:020000040800F2
:1000000008180020891F00087107000873070008FE
:10001000770700087B0700087F0700080000000042
:10002000000000000000000000000000830700083E
:1000300085070008000000008707000889070008FE
:10004000A31F0008A31F0008A31F0008A31F000888
:10005000A31F0008A31F00083D1B0008A31F0008E2
:10006000A31F0008A31F0008A31F0008A31F000868
:10007000A31F0008A31F0008A31F0008A31F000858
:10008000A31F0008A31F0008A31F0008A31F000848
:10009000A31F0008A31F0008A31F0008A31F000838
:1000A000A31F0008A31F0008A31F0008A31F000828
:1000B000A31F0008A31F0008A31F0008A31F000818
:1000C000A31F0008A31F0008A31F0008A31F000808
:1000D000A31F000835050008A31F000899060008A3
:1000E000A31F0008A31F0008A31F0008A31F0008E8
:1000F000A31F0008A31F0008A31F0008A31F0008D8
:10010000A31F0008A31F0008A31F0008A31F0008C7
:10011000AF050008A31F0008A31F0008A31F0008C5
:10012000A31F0008A31F0008A31F0008A31F0008A7
:1001300000F002F800F092F80AA090E8000C824467
:100140008344AAF10107DA4501D100F087F8AFF244
:10015000090EBAE80F0013F0010F18BFFB1A43F0A5
:10016000010318471C4C00003C4C0000103A24BF0F
:1001700078C878C1FAD8520724BF30C830C144BF0C
:1001800004680C607047000000230024002500264E
:10019000103A28BF78C1FBD8520728BF30C148BFEA
:1001A0000B6070476E2902F09786702902F0F38782
:1001B000662904F01A85652904F01785672904F07B
:1001C00014856129AFF3008003681B0A28BF41F042
:1001D0008001692902F04486642902F0418675296C
:1001E00002F03E866F2902F08087782902F0BF87EF
:1001F000E92902F01B87E42902F01887F52902F0AB
:100200001587EF2902F07D87F82902F0BE87036881
:10021000DB0928BF41F08001632903F04283732981
:1002200003F04783E32903F05283F32903F0578354
:10023000002070471FB502F0A4FD03F0A5FB0400E9
:100240000020002104F09EF8401C60600020002186
:1002500004F082F8E0601FBD10B510BD03F067FB2D
:100260001146FFF7E7FF00F0A8F803F043FC03B4E2
:10027000FFF7F2FF03BC01F003FD00000B49D1F8CA
:1002800000C04A685CF8043B1068184442F8040B4C
:100290008C4528BFA1F1DC0C8A4228BFA1F1DC0209
:1002A000C1F800C04A6020F000407047A011002053
:1002B00070B582498248006804F0E6F90446814935
:1002C00004F0ECFB11D27D497D48006804F0DCF9B4
:1002D000064604F03FF9044600227B4B04F074F814
:1002E00003D802207949087036E0744974480068E0
:1002F00004F0CAF90446734904F0D0FA03D8032085
:100300007249087028E06D496D48006804F0BCF936
:1003100004466F4904F0C2FB03D201206B49087008
:100320001AE066496648006804F0AEF9064604F033
:1003300011F904460022644B04F0D6F80CD25F4950
:100340005F48006804F0A0F90446614904F0A6FA89
:1003500002D204205D4908705E4800685D2803DD14
:1003600002205D49087009E05A48006818B9032066
:100370005949087002E00120574908705548006843
:10038000B8B1564800683A2807DD54480068642828
:1003900003DA0220524908700EE0504800683A28FB
:1003A00003DA01204E49087006E003204C4908702A
:1003B00002E004204A49087070BD86B001F0F6FBE7
:1003C0004FF4A06001F000FE4FF4E13001F067FC53
:1003D0004FF4165001F0AFFC56200223662211465E
:1003E000009040A001F06FFD4FF4E13001F0F2FC0D
:1003F00000F0D6FA01F098F800F09CFB00F076FBD4
:1004000000F04FFB01F072FB40F2A171072001F0F8
:1004100057FB52E000F0E4FD56200223662211460D
:10042000009030A001F04FFD642001F0FCFBFFF7CD
:100430003FFF22492248006804F026F9064604F0EE
:1004400089F804460D462A48007823490978244A49
:1004500012781E4B1B78CDE90232CDE904101D48FD
:1004600000681E49096822462B46CDE9001021A0EC
:1004700001F0FFFC11491248006804F005F9064636
:1004800004F068F804460D461948017812480078CF
:10049000134A12780D4B1B78CDE90232CDE90401E5
:1004A0000C4800680D49096822462B46CDE900102A
:1004B00018A001F032FD01F015FBABE70000C842C7
:1004C0007000002000000C4200C0424003000020E9
:1004D000000018423C0000200500002034000020ED
:1004E00004000020256325632563256300000000C8
:1004F000600000205B425D2A252E32662A25642A90
:1005000025642A25642A25642A25642A2564240D65
:100510000A0000005B425D2A252E32662A25642AE5
:1005200025642A25642A25642A25642A2564242131
:100530002300000010B540F22551944802F0F2FA71
:1005400010B3924802F06EFAC4B29148008800F4E9
:100550000040C8B98E48008800F4804060B10A2C81
:1005600003D000208A49088020E08948008840F4B0
:1005700000408749088019E00D2C06D18448008886
:1005800040F480408249088010E081480088C0F330
:100590000D0080490C547E480088401C7C4908802E
:1005A00008460088C72801DD0020088010BD2DE91D
:1005B000F041002640F22551774802F0B3FA0028B6
:1005C00040D0754802F02EFAC4B27448008800F496
:1005D000004028BB7148008800F4804008B3012D1A
:1005E00006D1662C2ED000206C490880002529E019
:1005F00000256A480088C0F30D0069490C5467481B
:100600000088401C654908800846008844F20801BB
:10061000884217D16148008840F400405F49088053
:1006200010E0662C07D15D48008840F480405B49AB
:100630000880012506E059480088132802DD0020C3
:10064000564908805548008800F4004010B301F076
:100650002DFA074604F00EF95249086052495148F4
:10066000006804F01BFA12D24D49C87902F074FBFD
:10067000FFF704FE462190FBF1F201FB12009630D9
:10068000C6B206F6AC5004F0DDF84649086000201A
:1006900042490880BDE8F08110B540F22551434839
:1006A00002F040FA10B3414802F0BCF9C4B240482D
:1006B000008800F40040C8B93D48008800F480403C
:1006C00060B10A2C03D000203949088020E0384866
:1006D000008840F400403649088019E00D2C06D10E
:1006E0003348008840F480403149088010E03048A9
:1006F0000088C0F30D002F490C542D480088401C81
:100700002B49088008460088C72801DD00200880A2
:100710002748008800F4004048B326480078312874
:1007200002D100F020FA1AE022480078322802D1E3
:1007300000F020FA13E01F480078332802D100F0BF
:1007400020FA0CE01B480078342802D100F020FA8F
:1007500005E018480078352801D100F0DEF9154889
:10076000017815A001F085FB00201149088010BD1B
:10077000704700BFFEE700BFFEE700BFFEE700BF17
:10078000FEE770477047704770470000003801402F
:1007900074000020200F0020004C00407600002054
:1007A000E80F00207000002000A0574500480040DE
:1007B00078000020FC0F002025630D0A00000000D7
:1007C0000CB50020019000906C48006840F4803027
:1007D0006A49086000BF6948006800F40030009072
:1007E0000198401C0190009818B90198B0F5A06FCD
:1007F000F1D16248006800F4003010B1012000908F
:1008000001E0002000900098012843D15C48006876
:1008100040F010005A4908600846006820F00300C4
:1008200008600846006840F00200086053484068CD
:10083000524948600846406848600846406840F4AD
:10084000806048600846406820F47C104860084694
:10085000406840F4E81048600846006840F0807046
:10086000086000BF4548006800F000700028F9D01B
:100870004248406820F0030040494860084640680C
:1008800040F00200486000BF3C48406800F00C00A7
:100890000828F9D10CBD10B5FFF792FF10BD10B5B7
:1008A0003648006840F00100344908600846406856
:1008B00034490840314948600846006832490840D8
:1008C0002E4908600846006820F480200860084629
:1008D000406820F4FE0048604FF41F008860FFF776
:1008E000DAFF4FF000602949086010BD10B5002103
:1008F00000200022214B5B6803F00C0121B1042988
:1009000006D0082928D107E0214B224C236027E09C
:100910001F4B204C236023E0184B5B6803F47010DE
:10092000164B5B6803F48032022303EB904022B93C
:10093000194B4343174C23600DE0104B5B6803F4E5
:10094000003323B1144B4343124C236003E0104B9C
:100950004343104C236003E00D4B0E4C236000BF5B
:1009600000BF064B5B68C3F303130C4CE15C094BFF
:100970001B68CB40074C236010BD000000100240F4
:10098000002002400000FFF8FFFFF6FE08ED00E047
:1009900000127A000800002000093D000C00002031
:1009A00008B50121402001F099FE4020ADF800007B
:1009B00010208DF8030003208DF802006946784866
:1009C00001F0D0FB4021764801F07BFC2020ADF8FF
:1009D00000006946724801F0C5FB2021704801F013
:1009E00070FC08BD08B50121802001F077FE3C2095
:1009F000ADF8000014208DF8030003208DF80200EC
:100A00006946684801F0AEFB0421664801F057FCD6
:100A10000821644801F053FC1021624801F04FFCAA
:100A20002021604801F04BFC08BD012806D00228B7
:100A300010D003281AD0042830D123E0012904D093
:100A40000422584B10331A6003E00422554B143330
:100A50001A6024E0012904D00822524B10331A6096
:100A600003E008224F4B14331A6018E0012904D028
:100A700010224C4B10331A6003E01022494B143300
:100A80001A600CE0012904D02022464B10331A6072
:100A900003E02022434B14331A6000E000BF00BF84
:100AA000704708B50121802001F018FE8020ADF8C4
:100AB000000014208DF8030003208DF80200694621
:100AC000384801F04FFB8021364801F0F8FB08BDA3
:100AD00010B58021334801F0F4FB4FF4487001F069
:100AE000A2F880212F4801F0EAFB10BD08B50121D2
:100AF000802001F0F3FD4020ADF8000010208DF8BB
:100B0000030003208DF802006946264801F02AFB05
:100B10004021244801F0D5FB08BD10B540212148F3
:100B200001F0CDFB0A2001F07EF840211D4801F0C4
:100B3000C8FB10BD08B50121802001F0CFFD4FF4A6
:100B40004070ADF8000010208DF8030003208DF8F0
:100B500002006946134801F005FB4FF4407111484B
:100B600001F0AFFB08BD10B54FF480710D4801F0E6
:100B7000A6FB10BD10B54FF480710A4801F0A1FB2F
:100B800010BD10B54FF40071064801F098FB10BD80
:100B900010B54FF40071034801F093FB10BD000045
:100BA00000180140001C014008B50121102001F08F
:100BB00095FD2020ADF8000048208DF8030069461F
:100BC000094801F0CFFA08BD08B50121102001F055
:100BD00085FD0120ADF8000048208DF8030069462E
:100BE000014801F0BFFA08BD00100140002001E0FB
:100BF000411CC8B2C828FBDB704710B510206E49F5
:100C0000486102204861FFF7F1FF02206A4908614C
:100C1000FFF7ECFF102068490861FFF7E7FF10BD00
:100C200008B50121102001F059FD03208DF80200C4
:100C300014208DF803000220ADF8000069465E48DC
:100C400001F090FA1020ADF8000069465A4801F012
:100C500089FAFFF7D2FF08BD10B510205649086188
:100C6000FFF7C4FF022054490861FFF7BFFF1020BF
:100C700051494861FFF7BAFF02204F494861FFF729
:100C8000B5FF10BD70B5044602204B4948610025F0
:100C900019E004F0800018B110204749086102E013
:100CA000102045494861FFF7A1FF02204249086131
:100CB000FFF79CFF0220404948616006040EFFF7E1
:100CC00095FF681CC5B2082DE3DB70BD70B500242C
:100CD000002514E06006040E022037490861FFF782
:100CE00085FF3548806800F0100008B1601CC4B270
:100CF000022031494861FFF779FF681CC5B2082D11
:100D0000E8DB204670BD10B510202B490861FFF7C5
:100D10006DFF022028490861FFF768FF26488068B8
:100D200000F0100008B1012400E000240220224954
:100D30004861FFF75BFF204610BD10B510201E492B
:100D40004861FFF753FF02201B490861FFF74EFF80
:100D5000022019494861FFF749FF10201649086130
:100D600010BD10B5102014490861FFF73FFF0220A5
:100D700011490861FFF73AFF02200F494861FFF768
:100D800035FF10BD70B504460B48806800F01000B8
:100D900080B10948806800F0020058B1FFF75CFF9D
:100DA0002046FFF76FFFFFF7AEFF0546FFF725FF71
:100DB000284670BD0120FCE70010014070B50546D3
:100DC0000C46FFF749FFAE20FFF75CFFFFF79BFFE4
:100DD00000B111E02846FFF755FFFFF794FF00B17F
:100DE0000AE02046FFF74EFFFFF78DFF00B103E05A
:100DF000FFF703FF012070BDFFF7FFFE0020FAE7B9
:100E000070B505460C46FFF727FFAE20FFF73AFF07
:100E1000FFF779FF00B118E02846FFF733FFFFF72F
:100E200072FF00B111E0FFF717FFAF20FFF72AFFB5
:100E3000FFF769FF00B108E0FFF748FF2070FFF7F8
:100E400090FFFFF7DAFE012070BDFFF7D6FE00200D
:100E5000FAE710B5C0210220FFF7B0FF08B9002063
:100E600010BD00210320FFF7A9FF08B90020F7E714
:100E700000210420FFF7A2FF08B90020F0E70021BD
:100E80000520FFF79BFF08B90020E9E700210620B5
:100E9000FFF794FF08B90020E2E76F210820FFF771
:100EA0008DFF08B90020DBE703210920FFF786FF4B
:100EB00008B90020D4E72F210A20FFF77FFF08B9E7
:100EC0000020CDE717210C20FFF778FF08B900209C
:100ED000C6E717210D20FFF771FF08B90020BFE713
:100EE0007F211020FFF76AFF08B90020B8E7012032
:100EF000B6E7F8B504460D46002028602060694634
:100F0000FFF77EFF69460120FFF77AFFFFF7A4FE97
:100F1000AE20FFF7B7FEFFF7F6FE18B1FEA001F016
:100F20000FFF4FE00720FFF7ADFEFFF7ECFE00B12B
:100F300048E0FFF791FEAF20FFF7A4FEFFF7E3FEC6
:100F400000B13FE0FFF7C2FE0646FFF7F6FE3604AB
:100F5000206830442060FFF7B9FE0646FFF7EDFE3B
:100F60003602206830442060FFF7B0FE0646FFF7E7
:100F7000E4FE206830442060FFF7A8FE0646FFF735
:100F8000DCFE3604286830442860FFF79FFE0646E2
:100F9000FFF7D3FE3602286830442860FFF796FE3C
:100FA0000646FFF7CAFE2868304428602068C0F370
:100FB000110020602868C0F311002860FFF71DFEB3
:100FC0000120F8BDFFF719FE0020FAE710B5402117
:100FD0000920FFF7F3FE08B9002010BD0120FCE74F
:100FE0002DE9FE4F0025A946D04E00279620D04976
:100FF0000860002427E006E06D1C4CF2503085426A
:1010000001D9002505E02021CA4801F03EF9012858
:10101000F2D000BFC84A02EB8401C84A02EB840048
:10102000FFF767FFC54850F82400B04202D2C3481A
:1010300050F82460C14850F82400B84202D9BF4893
:1010400050F82470641CBA4800688442D3DBBB4863
:1010500050F82480BA48BB49BB4ABC4BCDE90021BB
:101060000290B64AB2480168B34800F071FB002410
:10107000AE4E0027322420E0B04850F82410A4F1EE
:101080003200AE4A42F82010AB4850F82410A4F1C8
:101090003200A94A42F82010A84850F82400B04273
:1010A00002D2A64850F82460A44850F82400B84260
:1010B00002D9A24850F82470641C962CDCDB64240E
:1010C0006AE0601E9D4951F8208006E06D1C4CF2DC
:1010D0005030854201D9002505E02021954801F0D6
:1010E000D4F80128F2D000BF934A02EB8401934A5E
:1010F00002EB8400FFF7FDFE904850F824004045C5
:101100002AD98E4951F82410A1EB080003F0B2FB54
:101110008246B81B03F0AEFB83465946504603F0A7
:10112000B3FA82468A49504603F0ECFB82464846B1
:1011300003F0A0FB8346514603F0E2FC8246002107
:10114000504603F0ABFB02D24FF0000923E05046BB
:1011500003F05CFB81461EE0784951F82410A8EBAF
:10116000010003F087FB8246B81B03F083FB834634
:101170005946504603F088FA82467549504603F0B6
:10118000C1FB8246504603F041FB8144B9F1FF0F99
:1011900001D94FF0FF09641C962C92DB684869491D
:1011A000694A6A4BCDE900210290644A60480168AF
:1011B000614800F0CDFA62480078012871D1614899
:1011C0000068BE286DDA5F480068282869DD0020C5
:1011D0006049086060480068042819D101205F490F
:1011E000086000205C4908600C240EE05C4850F860
:1011F00024000A3053490968884205DD0020574918
:101200000860042054490860641C102CEEDB04E0E4
:1012100051480068401C5049086050480068002848
:1012200021D1002406E04E49601C51F8200041F80D
:101230002400641C0F2CF6DB424800684849C86350
:1012400048480068102804DA46480068401C4549B0
:10125000086000204449086042480068022803DA18
:1012600000204249086084E03E480068042812DA01
:101270000E2408E03A4850F824003B490968084425
:1012800039490860641C102CF4DB374800684010B2
:10129000364908606DE033480068082813DA0C24EA
:1012A00009E06AE02E4850F824002F4909680844F4
:1012B0002D490860641C102CF4DB2B48006880105A
:1012C0002A49086055E027480068102812DA0824E7
:1012D00008E0234850F824002349096808442249BB
:1012E0000860641C102CF4DB1F480068C0101F4904
:1012F00008603EE0002408E0194850F824001A492C
:101300000968084418490860641C102CF4DB16486E
:101310000068001115492BE07265616420666966FA
:101320006F206661696C656400000000FFFF0300C8
:101330001C000020001001404005002098070020FC
:101340002C00002028000020240000202000002085
:1013500000007F435C000020480000205000002077
:10136000F00900204400002030000020340000205C
:10137000086000207249086011E00020714908608F
:1013800071480068042805D1002070490860704940
:10139000086004E06C480068401C6B4908606D48B8
:1013A000007801287ED16C4800683B287ADD002057
:1013B0006A4908606A480068042819D1012069490F
:1013C00008600020664908600C240EE0664850F86A
:1013D00024000A3860490968884205DA002061491A
:1013E000086004205E490860641C102CEEDB04E0F9
:1013F0005B480068401C5A4908605A480068002849
:101400007AD1002406E05849601C51F8200041F8C8
:101410002400641C0F2CF6DB4F4800685249C86357
:1014200052480068102804DA50480068401C4F49B0
:10143000086000204E4908604C480068022803DA22
:1014400000204C49086057E048480068042812DA38
:101450000E2408E0444850F824004549096808442F
:1014600043490860641C102CF4DB414800684010BC
:101470004049086040E03D480068082813DA0C2421
:1014800008E0394850F824003949096808443849C7
:101490000860641C102CF4DB354800688010354966
:1014A000086029E02CE031480068102812DA08248E
:1014B00008E02D4850F824002D49096808442C49BB
:1014C0000860641C102CF4DB29480068C01029490E
:1014D000086011E0002408E0234850F82400244963
:1014E0000968084422490860641C102CF4DB204879
:1014F000006800111F49086000201A49086011E0C7
:1015000000201749086015480068042805D100200C
:10151000184908601549086004E010480068401C3C
:101520000E490860BDE8FE8F10B5FFF779FBFFF7A5
:101530004DFD11490020FFF763FCFFF78AFC10BD49
:1015400050000020480000205C00002034000020F3
:10155000440000202400002020000020580000202B
:101560004C00002054000020300A002040000020E1
:10157000380000203C0000202D00002030B50C4633
:10158000012213E050F82230114605E04D1E50F8BC
:10159000255040F82150491E002904DD4D1E50F809
:1015A00025509D42F2DC40F82130521CA242E9DB7A
:1015B00030BDF0B503461546012217E051F8224030
:1015C000104605E0461E51F8266041F82060401E96
:1015D000002808DD53F82470461E51F8266053F8A1
:1015E0002660B742EEDC41F82040521CAA42E5DBFF
:1015F000F0BD2DE9F04F05460C4692469846294627
:1016000050462268FFF7D5FF4FF0FF3621E0D4F8AF
:1016100000B0701C2060771C18E055F82710701C73
:1016200010B94FF0FF3001E055F82600A1EB00099A
:10163000C14503DCC8F10000814506DA55F82710E2
:101640002268501C206045F822107F1C5F45E4DBB7
:10165000761C2068B042DADC28462168FFF78EFF4E
:10166000BDE8F08F2DE9F04705461E46089C012095
:101670004FF00008002300274FF0040C4FF0000942
:10168000C1F800903DE0BFBB52F82090A14509DDB4
:1016900052F820A0A0F1010952F82990CA4501DDB5
:1016A0004FF00108B8F1010F2AD152F82090A1455E
:1016B00005DA634503DA4FF00008002320E06345B4
:1016C0001BD152F82090A1451ADAA0F1010952F875
:1016D0002990A14514DBD1F80090B9F10F0F07DA7A
:1016E000D1F800A00AF10109C1F8009045F82A00DC
:1016F00000239846082703E001E05B1C00E07F1E02
:10170000401CA6F101098145BDDCBDE8F0872DE94B
:10171000F84705460C4616461F46DDE90A9ADDF8ED
:1017200024803B46324621462846CDF80080FFF70C
:1017300099FF4B46324621462846FFF75AFF20685C
:10174000504501DA206800E050462060BDE8F88787
:101750002DE9FF4FA4B08346884600202390002443
:1017600005E05BF82410239808442390641C44454A
:10177000F7DB2398B0FBF8F02390002408E05BF837
:1017800024102398081A4042C44941F82400641CDC
:101790004445F4DB002417E0C04951F824200B46EF
:1017A000611C53F821100A44A11C53F821100A446B
:1017B000E11C53F821105018C11700EB91718910EA
:1017C0001A4642F82410641C922CE5DB0027002402
:1017D00004E0B24850F824000744641C962CF8DB5F
:1017E000962097FBF0F71E2F00DA1E273C2F00DD16
:1017F0003C27002404E0002012A941F82400641CC6
:101800000F2CF8DB0F2004219623A44ACDE90071A8
:10181000029021A912A8FFF77AFF002011902198C9
:10182000022821DB01240BE012A850F82410601ECE
:1018300012AA52F82000091A119808441190641C49
:1018400021988442F0DB2198401E119991FBF0F021
:10185000119040F6B831119891FBF0F13298016087
:1018600001213398017005E08D4932980160002113
:101870003398017000240BE05BF82400874941F89D
:101880002400269850F82400864941F82400641C5E
:101890004445F1DB21982290002005900026002489
:1018A00004E0002006A941F82400641C052CF8DBA4
:1018B00000240EE012A850F82400962808DD78498C
:1018C0002798016000213198017028B0BDE8F08FA1
:1018D000641C22988442EDDB0024A3E04FF07F409B
:1018E0000D900C9012A9601C51F8200051F82410A2
:1018F000401A03287EDD12A850F8245016E06748ED
:1019000050F825100C98814204DD644850F82500F9
:101910000C900B95634850F825100D98814204DD1A
:10192000604850F825000D90AA466D1C12A9601C55
:1019300051F82000A842E2DC601C51F8200059490F
:1019400051F8200012A951F82410564A52F82110DB
:10195000401A12A951F82410AAEB01014843109033
:1019600012A9601C51F8200051F82410411A109857
:1019700090FBF1F012A951F8241052F821100844FC
:101980001090104650F82A101098081A109012A9BA
:10199000601C51F82000414951F8200012A951F86B
:1019A00024103E4A52F82110401A12A951F824205E
:1019B0000B99891A48430F9012A9601C51F8200016
:1019C00051F82410411A0F9890FBF1F012A951F828
:1019D0002410324A52F8211008440F90104650F853
:1019E0002A100F98081A0F900C9910984843C011AC
:1019F000049000E015E00D990F984843C011039042
:101A0000039800280DDD052E0BDA049848B16421F7
:101A100004984843039990FBF1F006A941F8260089
:101A2000761C641C2298401EA0423FF757AF3146F7
:101A300006A8FFF7A3FD304606EBD0714FEA610917
:101A4000B9F1010F0CDDA9F1010106AA52F821102C
:101A500052F82920881800EBD0714910059103E055
:101A600006A850F829000590059802280DDD059874
:101A7000B8280ADA0C490598085C0E9027990E9848
:101A8000086001213198017005E00549279801603F
:101A900000213198017000BF17E70000700A002094
:101AA00019FCFFFFC80C0020EE4B00080020034982
:101AB0000979024AD27841EA02207047E80F0020F3
:101AC00070B505460C4645F2555001F06FF82846B2
:101AD00001F06FF8204601F06FF801F070F801F0A6
:101AE00073F870BD10B501F06AF810BD0EB5FFF7C0
:101AF0006BF80121084600F0F1FD0021022000F002
:101B000047FC0120019000208DF8080010208DF87E
:101B1000090001208DF80A0001A801F075F80620DF
:101B20008DF8000000208DF801008DF802000120E2
:101B30008DF80300684600F04CFA0EBD10B5052084
:101B400000F071F80121154800F09FFB01280DD12C
:101B50001E2000F068F80121104800F096FB0128D3
:101B600004D10F4908700FA001F0EAF801210B48D9
:101B700000F08BFB68B91E2000F055F801210748E2
:101B800000F083FB28B900200549087006A001F089
:101B9000D7F8012001F0AFF810BD0000001001409F
:101BA00060000020310000003000000010B56FF030
:101BB000040000F058FA2E4800682E49B0FBF1F0FE
:101BC0002D4908700846007800EB4001C1EBC010B9
:101BD0004FF6FF7101EAC0002849088010BD014698
:101BE000254A12784A434FF0E0235A6100229A6155
:101BF0001A46126942F001021A6100BF4FF0E0225A
:101C0000106900F001021AB100F48032002AF5D008
:101C10004FF0E022126922F001024FF0E0231A6136
:101C200000229A6170470146144A12884A434FF0D5
:101C3000E0235A6100229A611A46126942F00102B9
:101C40001A6100BF4FF0E022106900F001021AB1E2
:101C500000F48032002AF5D04FF0E022126922F021
:101C600001024FF0E0231A6100229A6170470000E0
:101C70000800002000127A006200002064000020AA
:101C8000014600BF704700BFB94A128802F0400207
:101C9000002AF9D0C2B2B64B1B1D1A80704710B58E
:101CA00086B00446012144F2040000F017FD4FF411
:101CB0000070ADF8140003208DF8160018208DF880
:101CC000170005A9AB4800F04DFA4FF48060ADF85D
:101CD000140004208DF8170005A9A64800F042FA68
:101CE00025208DF8000003208DF801008DF80200FA
:101CF00001208DF80300684600F06BF90194002084
:101D0000ADF80800ADF80A00ADF80C00ADF8100011
:101D10000C20ADF80E0001A9954800F086FD0122C7
:101D200040F22551924800F018FE0121904800F041
:101D300008FE06B010BD10B586B004460121102083
:101D400000F0CCFC0121C80400F0D5FC4FF4806009
:101D5000ADF8140003208DF8160018208DF8170038
:101D600005A9854800F0FEF94FF40060ADF81400B5
:101D700004208DF8170005A97F4800F0F3F93420FE
:101D80008DF8000003208DF801008DF8020001207D
:101D90008DF80300684600F01CF901940020ADF8AE
:101DA0000800ADF80A00ADF80C00ADF810000C20EA
:101DB000ADF80E0001A9714800F037FD012240F294
:101DC00025516E4800F0C9FD01216C4800F0B9FDB5
:101DD00006B010BD10B586B004460121082000F001
:101DE0007DFC0121880400F086FC4FF48060ADF892
:101DF000140003208DF8160018208DF8170005A98F
:101E00005F4800F0AFF94FF40060ADF81400042013
:101E10008DF8170005A95A4800F0A4F927208DF87D
:101E2000000003208DF801008DF8020001208DF8DC
:101E30000300684600F0CDF801940020ADF80800DA
:101E4000ADF80A00ADF80C00ADF810000C20ADF8AC
:101E50000E0001A94B4800F0E8FC012240F2255198
:101E6000484800F07AFD0121464800F06AFD06B0BE
:101E700010BD0FB410B5B4B0002437A80090C9212C
:101E800001A8009B369A00F041FF10E03848008816
:101E90002046621CD4B201AA115C354800F0BEFD98
:101EA00000BF4021324800F027FE0028F9D0C82C9E
:101EB00003DA01A8005D0028E8D10020009034B0CA
:101EC00010BC5DF814FB0FB410B58EB0002411A83F
:101ED0000090332101A8009B109A00F017FF10E03A
:101EE000264800882046621CD4B201AA115C23480F
:101EF00000F094FD00BF4021204800F0FDFD0028C7
:101F0000F9D0322C03DA01A8005D0028E8D10020C6
:101F100000900EB010BC5DF814FB0FB410B5B4B057
:101F2000002437A80090C92101A8009B369A00F030
:101F3000EDFE10E0134800882046621CD4B201AACE
:101F4000115C104800F06AFD00BF40210D4800F010
:101F5000D3FD0028F9D0C82C03DA01A8005D0028C1
:101F6000E8D10020009034B010BC5DF814FB0000F4
:101F7000003801400008014000100140004C0040C2
:101F8000000C0140004800400948804709480047CC
:101F9000FEE7FEE7FEE7FEE7FEE7FEE7FEE7FEE719
:101FA000FEE7FEE704480549054A064B7047000076
:101FB0009F080008310100080812002008180020BE
:101FC000081400200814002031490143314A1160EF
:101FD000704770B5002100230F22C47804B32D4C44
:101FE000246804F4E064C4F5E064210AC1F1040348
:101FF000CA40447804FA03F184781440214309016B
:10200000254C0678A155047804F01F050124AC4046
:1020100005786D11AD0005F1E025C5F8004109E036
:10202000047804F01F050124AC401C4D067876119D
:1020300045F8264070BD1A4A0A400243154B1B1F43
:102040001A60704739B1134A121D12680243114BCE
:102050001B1D1A6006E00F4A121D126882430D4BC9
:102060001B1D1A607047042808D14FF0E021096950
:1020700041F004014FF0E022116107E04FF0E02150
:10208000096921F004014FF0E0221161704700005E
:102090000000FA050CED00E000E400E080E100E063
:1020A00080FFFF1F10B50446CC48844208D10121AF
:1020B000042000F02DFB0021042000F029FB46E065
:1020C000C748844208D10121082000F021FB0021EB
:1020D000082000F01DFB3AE0C248844208D10121EB
:1020E000102000F015FB0021102000F011FB2EE065
:1020F000BD48844208D10121202000F009FB0021C5
:10210000202000F005FB22E0B848844208D10121DC
:10211000402000F0FDFA0021402000F0F9FA16E01E
:10212000B348844208D10121802000F0F1FA002157
:10213000802000F0EDFA0AE0AE48844207D1012188
:10214000801500F0E5FA0021A01500F0E1FA10BDBD
:1021500010B50121084600F0DBFA0021012000F053
:10216000D7FA10BD2DE9F0410246002500260020D7
:1021700000230024002791F803C00CF00F0591F80C
:1021800003C00CF0100CBCF1000F03D091F802C09A
:102190004CEA050591F800C0BCF1000F31D014687D
:1021A00000202BE04FF0010C0CFA00F3B1F800C056
:1021B0000CEA03069E4220D183004FF00F0C0CFA6C
:1021C00003F7BC4305FA03FC4CEA040491F803C08E
:1021D000BCF1280F06D14FF0010C0CFA00FCC2F83C
:1021E00014C00AE091F803C0BCF1480F05D14FF0CC
:1021F000010C0CFA00FCC2F810C0401C0828D1D316
:102200001460B1F800C0BCF1FF0F34DD5468002049
:102210002EE000F1080C4FF0010808FA0CF3B1F8B9
:1022200000C00CEA03069E4221D183004FF00F0C40
:102230000CFA03F7BC4305FA03FC4CEA040491F8DA
:1022400003C0BCF1280F05D100F1080C08FA0CF806
:10225000C2F8148091F803C0BCF1480F07D100F117
:10226000080C4FF0010808FA0CF8C2F81080401C66
:102270000828CED35460BDE8F0814FF6FF7101808D
:10228000022181700421C1707047024600209368CA
:102290000B400BB1012000E0002070470146886828
:1022A00080B2704702460020D3680B400BB101207A
:1022B00000E0002070470146C86880B270470161A5
:1022C0007047416170470AB1016100E041617047A8
:1022D000C16070474FF480320A438261816182613C
:1022E00082698269704702460020434B18684FF6A6
:1022F0008073184040EA021008433F4B1860704753
:102300003E49C8617047F0B50A4600230024002109
:10231000002500F00046B6F1004F02D1364EF169BB
:1023200001E0354E7168C0F3034583B200F44016F6
:10233000B6F5401F08D121F070612F4E766826F067
:1023400070662D4F7E6012E000F48016B6F5801F97
:1023500006D1032606FA05F4A14341F0706106E0B8
:10236000460D360103FA06F6B14341F0706122B121
:10237000460D360103FA06F6314300F00046B6F189
:10238000004F02D11C4EF16101E01B4E7160F0BDA7
:1023900030B500228B071C0F0F2303FA04F2164BF3
:1023A00008338C1053F824309343134C08348D10A9
:1023B00044F8253023468C1053F824308C07240F22
:1023C00000FA04F423430C4C08348D1044F82530F3
:1023D00030BD0A49DC310860704700000008014048
:1023E000000C0140001001400014014000180140A1
:1023F000001C01400020014000000140000020427C
:10240000DF48006840F00100DD4908600846406888
:10241000DC490840DA49486008460068DA49084063
:10242000D74908600846006820F480200860084604
:10243000406820F4FE0048604FF41F008860704739
:10244000CF49096821F48031CD4A116011460968ED
:1024500021F480211160B0F5803F03D0B0F5802FCA
:102460000ED106E0C649096841F48031C44A1160C2
:1024700007E0C349096841F4A021C14A116000E0A6
:1024800000BF00BF704710B50146002200230020A6
:102490004A11012A02D1BA4C236806E0022A02D16D
:1024A000B74C236A01E0B64C636A01F01F020124B5
:1024B00094401C400CB1012000E0002010BD38B554
:1024C000002000900024002500BF3120FFF7DBFF33
:1024D00005460098401C00900098B0F5A06F01D010
:1024E000002DF2D03120FFF7CEFF08B1012400E02B
:1024F0000024204638BD01460020A14A106820F083
:10250000F80040EAC10010607047A04908607047B9
:10251000024600209A4B586820F47C1042EA0103DE
:102520001843974B586070479849086670470146B2
:102530000020934A506820F0030008435060704721
:102540008F48406800F00C007047014600208C4A1C
:10255000506820F0F00008435060704701460020AA
:10256000874A506820F4E060084350607047014695
:102570000020834A506820F4605040EAC100506057
:10258000704729B17E4A527A02437D4B5A7204E069
:102590007B4A527A82437A4B5A7270477B49D831D0
:1025A0000860704701460020754A506820F440409A
:1025B0000843506070470021714A20321170704A00
:1025C00082F82010012802D004280AD104E0012159
:1025D0006B4A2032117005E00521694A20321170E2
:1025E00000E000BF00BF7047694908607047644958
:1025F000096A0143624A11627047654944390860BB
:10260000704730B500210022002400235C4D6D6826
:1026100005F00C0121B1042905D0082923D105E0DA
:102620005C4D056022E05B4D05601FE0544D6D6818
:1026300005F47012524D6D6805F48034022505EBE7
:1026400092421CB9544D554305600BE04C4D6D68EA
:1026500005F400351DB1504D5543056002E04D4D68
:102660005543056002E04B4D056000BF00BF444D7F
:102670006D6805F0F0010909484D6B5C0568DD40A7
:1026800045603F4D6D6805F4E061090A434D6B5CA0
:102690004568DD4085603A4D6D6805F46051C90AB2
:1026A0003E4D6B5C4568DD40C560354D6D6805F499
:1026B0004041890B3A4D6B5CC568B5FBF3F505618C
:1026C00030BD29B12E4A526902432D4B5A6104E0B4
:1026D0002B4A526982432A4B5A61704729B1284AD2
:1026E00092690243264B9A6104E0254A926982432B
:1026F000234B9A61704729B1214AD2690243204B8A
:10270000DA6104E01E4AD26982431D4BDA617047E8
:1027100029B11B4AD2680243194BDA6004E0184A17
:10272000D2688243164BDA60704729B1144A1269A5
:102730000243134B1A6104E0114A12698243104BA1
:102740001A61704712494039086070470F49C864E0
:1027500070470B49C87170470948406A40F0807063
:1027600007494862704701460020054A92680A40BE
:102770000AB1012000E000207047014988727047CB
:10278000001002400000FFF8FFFFF6FE000042428A
:102790008004424200127A0000093D007A000020C5
:1027A0008A00002010B50446FB48844209D101216B
:1027B0008803FFF7ADFF00214FF48040FFF7A8FF2B
:1027C00032E0F648844209D101214804FFF7ADFF09
:1027D00000214FF40030FFF7A8FF25E0F0488442C5
:1027E00009D101218804FFF7A0FF00214FF48020C8
:1027F000FFF79BFF18E0EB48844209D10121C80490
:10280000FFF793FF00214FF40020FFF78EFF0BE04E
:10281000E548844208D101210805FFF786FF002121
:102820004FF48010FFF781FF10BD2DE9F04786B00F
:1028300005460E460024A24600BFA1460027B089E7
:1028400000B100BF2F462C8A4CF6FF700440F08880
:1028500004432C82AC894EF6F3100440B0883189D1
:102860000843718908430443AC81AC8A4FF6FF40AA
:102870000440B0890443AC8201A8FFF7C2FEC648F9
:10288000874202D1DDF810A001E0DDF80CA0A88994
:1028900000F4004040B10AEBCA0000EB0A103168B6
:1028A0004900B0FBF1F807E00AEBCA0000EB0A10A0
:1028B00031688900B0FBF1F86420B8FBF0F0040146
:1028C0002009642101FB1089A88900F4004040B16F
:1028D000322000EBC900B0FBF1F000F00700044328
:1028E00008E0322000EB09106421B0FBF1F000F0A9
:1028F0000F0004432C8106B0BDE8F0874FF4165159
:10290000016000218180C18001810C214181002171
:102910008181704710B502460020108A4FF2FF03F4
:1029200018400B884C8823438C882343CC8823434E
:102930001843108210BD0021018041808180C18038
:10294000704721B1828942F40052828104E0828979
:102950004DF6FF731A4082817047F0B5034600249C
:1029600000260025002040F66A17B94200D100BFBA
:102970001846C1F3421401F01F06012707FA06F5B5
:10298000012C01D10C3004E0022C01D1103000E008
:1029900014301AB107682F43076002E00768AF439D
:1029A0000760F0BD1AB1838A0B43838202E0838AF9
:1029B0008B4383827047028A4FF6F0731A4002827B
:1029C000028A0A430282704782894FF2FF731A40DB
:1029D000828182890A438281704721B1828942F0D3
:1029E0000202828104E082894FF6FD731A408281DF
:1029F0007047028A4FF6DF731A400282028A0A4346
:102A00000282704721B1028A42F48042028204E0CD
:102A1000028A4BF6FF731A4002827047C1F3080224
:102A20008280704701468888C0F30800704781891A
:102A300041F0010181817047028BD2B20283028B87
:102A400042EA012202837047028B02F47F42028332
:102A5000028B0A430283704721B1828A42F020022E
:102A6000828204E0828A4FF6DF731A4082827047C6
:102A700021B1828A42F01002828204E0828A4FF6FB
:102A8000EF731A408282704721B1828A42F00802B5
:102A9000828204E0828A4FF6F7731A40828270477E
:102AA00021B1828942F40042828103E08289C2F32B
:102AB0000E028281704721B1828A42F400628282D2
:102AC00004E0828A4FF2FF731A4082827047828A42
:102AD0004FF6FB731A408282828A0A4382827047D1
:102AE00021B1828A42F00202828204E0828A4FF699
:102AF000FD731A408282704702460020B1F5007FC4
:102B000000D100BF13880B400BB1012000E0002072
:102B1000704701F40072B2F5007F00D100BFCA43D4
:102B20000280704770B50246002400230025002073
:102B300040F66A16B14200D100BFC1F3421501F060
:102B40001F03012606FA03F3012D02D196893340B3
:102B500006E0022D02D1168A334001E0968A334006
:102B60000C12012606FA04F41688344013B10CB195
:102B7000012000E0002070BD10B50022002340F6C7
:102B80006A14A14200D100BF0A1201249440A3B2EA
:102B9000DC43048010BD00000038014000440040C8
:102BA00000480040004C0040005000400E490860C2
:102BB00070470D49486070470B49886070474AF676
:102BC000AA200949086070474CF6CC4006490860C5
:102BD000704701460020044AD2680A400AB1012029
:102BE00000E0002070470000003000400020444911
:102BF0000860091D0860091D0860091D086041483A
:102C00003F4914310860704700213D498279002A0C
:102C10003AD00A46126803689A430B461A600A1DA6
:102C2000126803689A430B1D1A60027911440A68FE
:102C300003681A430A60324A0832126803689A43EA
:102C40002F4B08331A601A1D126803689A432C4BE5
:102C50000C331A604279102A0ED11A1F12680368C9
:102C60001A43274B08331A601A1D126803681A4367
:102C7000234B0C331A600DE02149427911440A6854
:102C800003681A430A6005E0027911440A68036880
:102C90009A430A6070470021016001710C21417163
:102CA0000021817170471649103109680143144AA7
:102CB00010321160704701460020114A1432126828
:102CC0000A400AB1012000E0002070470C4914318D
:102CD00008607047014600200022094B1B6803EA88
:102CE0000102074B14331B680B4013B10AB10120DA
:102CF00000E000207047024914310860704700006E
:102D000000040140FFFF0F00704700007CB51D4626
:102D100016460C00009001D02044401E074B7B4417
:102D20002A4669460190304600F0EFF805461CB18E
:102D30000020694600F0FCF828467CBD190200001E
:102D40000FB4044910B503AA029800F0FFF810BCB4
:102D50005DF814FB680000200B4910B5A1F17C025E
:102D60000A4CC2E93712372106E000EB104342F863
:102D70002130074B00FB03400B1EA1F10101F4DCE5
:102D800010BD0120E8E7000040110020E119D666DF
:102D9000CD0D0100704770477047704770B504460D
:102DA00085690068C10601D5302600E02026C007ED
:102DB00007D070BDD4E9012130469047206A401CFD
:102DC00020626D1EF6D570BD70B504468569007829
:102DD000C00707D170BDD4E9012120209047206AA7
:102DE000401C20626D1EF6D570BD09684A0501D5EC
:102DF00040B27047C905FCD500B2704709684A0562
:102E000001D5C0B27047C905FCD580B2704770B516
:102E10000C460546012A05D02878800600D5EA69C7
:102E2000002302E0012305E05B1C934202D2E05C38
:102E30000028F9D1A869E618C01AA861286A1844C0
:102E400028622846FFF7AAFF04E0D5E9012114F81B
:102E5000010B9047B442F8D32846FFF7B5FF70BD89
:102E60002DE9F0410646002410687529314616A563
:102E700010D0FFF7BAFF002802DA404213A507E09E
:102E800031688A0701D512A502E0490704D511A5CA
:102E9000012401E0FFF7B2FF00210A2206F1240716
:102EA00009E0B0FBF2FCB0FBF2F302FB1C00303097
:102EB00078541846491C0028F3D123462A46304648
:102EC000BDE8F04100F07BBA000000002D000000DA
:102ED0002B0000002000000011680268006A530502
:102EE00001D508700AE0D30501D5088006E0130675
:102EF00003D5C217C1E9000200E008600120704755
:102F000001694A1C02610878704700B58FB0CDE9AD
:102F100001310021059105497944CDE9031011469D
:102F2000684600F043F90FB000BD0000E5FFFFFF69
:102F30000A6802F8010B0A607047D1E900239A423F
:102F400002D2531C0B60107070470000074B70B525
:102F50000D467B44FFF7D9FF0446284600F0C3FC2A
:102F600010B14FF0FF3070BD204670BD31EDFFFF56
:102F70002DE9FF5F15468A460446DFF8AC80F84429
:102F80000027D8E900103E46CDE9001010E03AF8DD
:102F900016106A4602A800F0AAFC411C07D021784E
:102FA000890603D5E269391891420DD80744761C89
:102FB0002078800602D5E069B84205DDAE42E6DB46
:102FC0003AF816000028E2D1A069C01BA061204693
:102FD000FFF7E4FED8E90010CDE90010002017E06B
:102FE0003AF818106A4602A800F081FCB0F1FF3FE1
:102FF00081460BD000250DF1080B05E0D4E9012135
:103000001BF8050090476D1C4D45F7D308F10100F2
:10301000B0428046E4DB206A384420622046FFF755
:10302000D3FEBDE8FF9F0000261D00002DE9F04102
:103030008046D21D22F007020025D2E90002F529C0
:1030400015A614D0011E72F1000106DA0023D0EBA0
:10305000030063EB020211A608E0D8F800108B070A
:1030600001D50FA602E0490701D50EA6012511469C
:10307000002408F1240704E000F05CF930323A55EE
:10308000641C50EA0102F7D12B46324621464046E5
:10309000BDE8F04100F093B9000000002D000000F1
:1030A0002B0000002000000030B4002100F12404B7
:1030B00008E002F00705D208303542EA4372DB0827
:1030C0006554491C52EA0305F3D10468002310A299
:1030D000250707D5A40600D421B1C46901230DA298
:1030E000641EC46130BC00F06AB910B504462146C4
:1030F0001068FFF783FE02462046BDE8104000231B
:10310000D2E7D21D22F00701D1E90023CCE700006D
:103110000000000030000000F0B40D4601880905F1
:1031200002D5214C7C4402E01F4C7C440E3400212B
:1031300000F1240608E002F00F071209E75D42EAF9
:1031400003721B097754491C52EA0307F3D1027832
:103150000023120704D5702D06D009B102231134C3
:103160002246F0BC00F02BB901231034F8E770B50B
:1031700004460D4621461068FFF740FE02462946E8
:103180002046BDE870400023C6E7D21D22F00703A9
:10319000D3E90023C0E70368126843F0200303600B
:1031A0000823C3610023B7E7881B00002DE9F05F07
:1031B000894604464FF0000ADFF874B1FB44C0F8BA
:1031C00020A02046E1688847002874D0252806D032
:1031D000D4E901219047206A401C2062F1E70026D3
:1031E0005F462046E16888472028054607DB312DE9
:1031F00005D2781910F8200C08B10643F1E7B007A2
:1032000001D526F00406C4F81CA00027C4F818A0B5
:103210002A2D09D0284601F097F838B304EB870827
:10322000303DC8F8185019E059F8041B204604EB4B
:1032300087029161E1688847012F054618D1E0694E
:10324000002820DA26F020061DE0D8F8180000EB50
:10325000800005EB40003038C8F818002046E168CF
:103260008847054601F070F80028EED1012F0AD0FA
:103270002E2D08D12046E16888477F1C0546022F85
:1032800046F02006C4DBA069002803DA404246F07D
:103290000106A061F00701D026F010066C2D0BD0BE
:1032A000682D09D04C2D39D06A2D35D0742D35D0EC
:1032B0007A2D33D016E038E0E1682F462046884763
:1032C000B842054609D16C2F26D04FF48060E168E2
:1032D000064320468847054604E06C2F1AD04FF479
:1032E000807006430DB3A5F14100192802D820359E
:1032F00046F400664A462946204626604E46FCF7BC
:1033000051FF80B101280BD0F61D26F0070000F117
:10331000080956E74020E4E78020D8E70020D6E7F8
:1033200006F104094DE7284652E7206ABDE8F09F00
:10333000181B000030B5B0F10A024FEA900E71F18F
:1033400000034EEA817EB0EB0E0061EB91014FEA83
:10335000101E4EEA017E10EB0E0041EB11114FEAF8
:10336000102E4EEA016E10EB0E0041EB11214FEAD8
:10337000104E4EEA014E10EB0E0041EB1141401889
:1033800041F100014FEAD00040EA41704FEAD1011B
:1033900010EB80054FEA810444EA907444EB010489
:1033A0006D1944EB0404521BA3414FF0000348BFC6
:1033B0000A3200D530BD401C41F1000130BD2DE97D
:1033C000F0470D4699469246044600F124080168EC
:1033D000880604D5E06921F01001216000E0012099
:1033E000A84201DD471B00E00027A1697A1902EB22
:1033F0000900081AA0612078C00602D42046FFF711
:10340000CDFC002608E0D4E901211AF80600904717
:10341000206A401C761C20624E45F4DB2078C006F2
:103420000AD52046FFF7BAFC06E0D4E90121302096
:103430009047206A401C2062381EA7F10107F4DC87
:1034400007E0D4E9012118F805009047206A401CE4
:103450002062281EA5F10105F3DC2046FFF7B4FC2D
:103460002078000602D50220BDE8F0870120FBE7A6
:1034700070472DE9FF4F0C461E464FF0FF378BB0CB
:10348000D2E90001DDF860800A908A46C1F30A554E
:1034900005B93D46002108464FF00000BAF1000F83
:1034A00000F4400005DA00EB80004FF4400101EA2F
:1034B00050004FEA9059B9F1010F00DDB9460A9862
:1034C00050EA4A000ED044F61050A5F2FF354543AD
:1034D0002F14B8F1000F1ED07542291E1EDDC9F150
:1034E00000021CE0B8F1010F4FF0000001D03021C4
:1034F00003E0F24305E02154401CB042FBDB3046C0
:103500000022002121540B99C1F80880C1E9002054
:103510000FB0BDE8F08FBD1B6D1CDEE74A4600DA38
:10352000694206A800F074FA06AB93E8070003AB03
:1035300083E8070050460A9900F02AFB8DE807004F
:10354000A0F500501F3800900398002D0ADD42F2CC
:103550001F014A460844002303A90390684600F06F
:1035600093FD09E0A0F500504A461F38002303A947
:103570000390684600F09DFD8DE807000004000CF4
:1035800003D04FF0FF30410800E01046B8F1000FC3
:1035900003D00022009215461EE0751E05D4FFF7E9
:1035A000C9FE303262556D1EF9D5B346012208437B
:1035B00002D000227F1C04E02078302801D10022B4
:1035C0007F1E002A099784D01DE0112D07DAFFF72E
:1035D000B1FE303262556D1C50EA0102F5D108434C
:1035E00002D00098C8B10EE00021681E05E0235CFF
:1035F000625C63542254401E491C8142F7DBAB4697
:10360000A81B401E0990002004F80B000B98099A93
:10361000C0F80880C0E9002B7AE711264FF00008B7
:1036200057E72DE9F04F88460446D21D22F00701E6
:1036300091B0D1E90001CDE90A0100F071FE024626
:103640000B98C00F01D02D2007E02068810701D51D
:103650002B2002E0202101EAC000032A099001D0BA
:10366000072A05DB03464146204600F091F90BE1AD
:103670002078800601D5E06900E00620B8F1650FEA
:10368000814606D0B8F1660F18D0B8F1670F70D137
:1036900031E00020B9F1110F009001DB112301E0AE
:1036A00009F101030AAA01A90CA8FFF7E2FEDDE96E
:1036B0000C70002609F10105834647E001204B46C6
:1036C00000904FF000470AAA01A90CA8FFF7D1FE0D
:1036D000DDE90DB00C995D46002610B909F1010035
:1036E0000D18B9EB050003D4C0F1FF3609F101054F
:1036F000A5EB09002BE0B9F1010F01DA4FF0010948
:103700000020B9F1110F0090484601DD112300E0BF
:1037100003460AAA01A90CA8FFF7ABFEDDE90C706D
:103720004D4600268346207800070AD4AB4500DAD0
:103730005D4601A8012D04DD411911F8011C302955
:1037400007D04F4502DA17F1040F04DA0120824650
:103750000FE06D1EEEE7002F02DCED1B3E4403E0A0
:10376000781CA84200DD7D1CB81B00F1010A4FF057
:1037700000472078000703D4AA4501DB4FF0FF3A49
:103780000021B7F1004F0DF143088DF8431024D00C
:1037900002202B23002F01DA7F422D230A21021E53
:1037A000A0F1010000DC5FB197FBF1FC97FBF1F2A7
:1037B00001FB1C7C17460CF1300C08F801CDEEE73C
:1037C000A8F1010003702188090501D5452100E019
:1037D0006521A0F1010800F8011C09980FA9A1EBCF
:1037E0000807FF1D00B10120411901EBEA70A16932
:1037F0003844081A401EA0612078C00602D4204632
:10380000FFF7CCFA099828B1D4E901219047206A42
:10381000401C20622078C00622D52046FFF7BEFA61
:103820001EE0002E04DBB34502DD01A8805D00E050
:103830003020D4E901219047206A401C2062761C88
:10384000AAF101005FEA000A0AD100F09DF8C06801
:103850000168405CD4E901219047206A401C206245
:10386000281EA5F10105DCDC07E0D4E9012118F8E8
:10387000010B9047206A401C2062381EA7F1010707
:10388000F3DC2046FFF7A0FA032011B041E610B5A3
:10389000436913B1AFF3008001E0FFF7B8FA0120EC
:1038A00010BD127800F124010A7000224A70012232
:1038B000EDE711684FF0FF32E9E710B5436913B146
:1038C000AFF3008001E0FFF753FB012010BD128829
:1038D00000F1240182840022C2840122EDE71168F4
:1038E0004FF0FF32E9E7007B00F08000704770B5D1
:1038F00016460C46054600F03FF8036893F80101B0
:10390000012806D0FF2C0FD8185D68B101202C705B
:1039100070BDD3F807013246214603F20713034472
:103920002846BDE8704018474FF0FF3070BD75461F
:1039300000F0EAF8AE4605006946534620F007005D
:10394000854618B020B5FEF72DFBBDE820404FF0AE
:1039500000064FF000074FF000084FF0000B21F079
:103960000701AC46ACE8C009ACE8C009ACE8C00946
:10397000ACE8C0098D46704710B500F005F8001D91
:1039800010BD00BF010A000000487047C8110020A8
:103990002DE9F0411F46044603260168072A01F479
:1039A000006004DB08B116A505E016A503E008B128
:1039B00015A500E015A521F010002060A069C01E2B
:1039C000A0610FB1401EA0612046FFF7E7F94FB19B
:1039D000D4E9012138469047206A401C2062C01C6F
:1039E000206206E0206AFAE7D4E9012115F8010B0C
:1039F0009047761EF8D22046FFF7E6F9BDE8F08141
:103A00004E414E006E616E00494E4600696E660082
:103A10002DE9F047814616468AB0354878440DC8EE
:103A20008DE80D0032487844801C03AC0DC884E852
:103A30000D0041F69B300844372190FBF1F290FBDA
:103A4000F1F5A5F1800501FB12041B3C02D564428F
:103A5000012000E00020DFF898A080460027FA440B
:103A6000AAF1BE0A0EE0E0070AD03246684607EB2C
:103A7000470101230AEB810100F01BFB8DE80700E1
:103A800064107F1C002CEED1194F7F44AE3F19E02B
:103A9000E80715D007EB04100DF1180A90E80E00A6
:103AA0008AE80E00C068F04201D1981908903246A9
:103AB000012306A903A800F0FCFA03AB83E8070082
:103AC0006D10641C002DE3D14FF0010332466946AE
:103AD000B8F1000F03A802D000F0D6FA01E000F020
:103AE000E8FAC9E90001C9F808200AB0BDE8F08782
:103AF0004813000010B50446AFF300802046BDE82F
:103B00001040FCF7B4BB000000487047A81100202B
:103B10004FF0013C50F8042B51F8043B9A4221D15C
:103B2000A2EB0C03934313EACC1317D150F8042BE8
:103B300051F8043B9A4215D1A2EB0C03934313EACC
:103B4000CC130BD150F8042B51F8043B9A4209D105
:103B5000A2EB0C03934313EACC13DBD04FF000002D
:103B6000704700BFD01A01BAB1FA81F101F0180113
:103B700022FA01F0CB40C1F12001DBB2C0B2C01A81
:103B80002CFA01F3D11A914311EAC311E6D170471F
:103B90005FEA400C08BF91F0000F4FEA8C234FEA18
:103BA000C12243EA51514FEA1C5018BF00F5F040C2
:103BB0004FEA300018BF41F000415FEA6C5C00F052
:103BC0002980BCF1FF3F08BF40F080407047130CD4
:103BD00006BF12044FF0100C4FF0000C130E04BF80
:103BE00012020CF1080C130F04BF12010CF1040CAB
:103BF000930F04BF92000CF1020CD30F04BF5200CC
:103C00000CF1010C11464FF00002A0F11F00A0EBD7
:103C10000C00704711F0004F08BF704731F00041B1
:103C20003FF4D5AF0B0C06BF09044FF0100C4FF05A
:103C3000000C0B0E04BF09020CF1080C0B0F04BFA3
:103C400009010CF1040C8B0F04BF89000CF1020C6C
:103C5000CB0F04BF49000CF1010CCCF12003A0EB09
:103C60000C0022FA03F302FA0CF241EA030100F11C
:103C70000100704720F07F4C80EA030023F07F476B
:103C8000ACEB070303F57C5300F0004003F1FF03A6
:103C90002DE980494FEA154B09B44FEA144325EA50
:103CA0000B4E24EA03480FF2042606EB13274908BB
:103CB0003E785FEA320203FB0667C7F5000707FBA1
:103CC00006F64FEA54374FEAD64606F1020607FBDE
:103CD000066CCCF1005C4FEA1C472CEA074C07FB52
:103CE00006F40CFB06F504EB15464FEA961634BFB6
:103CF00000204FF000404FEAD13706FB07FC4FEAA7
:103D00001C4C0CFB0BF7D21B03FB0CF761EB070100
:103D10000CFB0EF7B0EB074072EB17420CFB08F7F9
:103D200034BFA2EB0742B2EB074261EB17414FEA07
:103D30000C444FEA910706FB07FC4FEA1C4C0CFBB6
:103D40000BF7B0EBC74072EB573203FB0CF734BFF5
:103D5000A2EBC742B2EBC74261EB57310CFB0EF747
:103D6000B0EBC70072EB57720CFB08F734BFA2EB45
:103D7000C702B2EBC70261EB5771039F4FEA816143
:103D800041EA921104EBCC044FEAD1374FEA826248
:103D900006FB07FC42EA90124FEA80604FEA1C4C97
:103DA0000CFB0BF7D21B03FB0CF761EB07010CFBC1
:103DB0000EF7B0EB074072EB17420CFB08F734BF6D
:103DC000A2EB0742B2EB074261EB17414FEA8C5579
:103DD0004FEA910704EB9C2406FB07FC4FEA1C4CBE
:103DE0000CFB0BF7B0EBC74072EB573203FB0CF741
:103DF00034BFA2EBC742B2EBC74261EB57310CFBB9
:103E00000EF7B0EBC70072EB57720CFB08F734BF2C
:103E1000A2EBC702B2EBC70261EB577115EB4C2561
:103E20004FEA816141EA92114FEA82624FEAD1374B
:103E300042EA901206FB07FC44F100044FEA80605E
:103E40004FEA1C4C0CFB0BF7D21B03FB0CF761EB8E
:103E500007010CFB0EF7B0EB074072EB17420CFBAF
:103E600008F734BFA2EB0742B2EB074261EB174100
:103E700015EB1C154FEA813141EA92414FEA82323B
:103E800042EA90424FEA80304FEA0C7644F1000457
:103E900048EA03434EEA0B484FF0000EB2EB080C21
:103EA00071EB030724BF624639464EEB0E0E4FF00E
:103EB000000B0018524149414BEB0B0BB2EB080CC5
:103EC00071EB03077BF1000B24BF624639464EEBD2
:103ED0000E0E4FF0000B0018524149414BEB0B0BFB
:103EE000B2EB080C71EB03077BF1000B24BF6246B9
:103EF00039464EEB0E0E51EA020718BF46F0010696
:103F000016EB0E7655F1000254F1000103D5BDE821
:103F10008901BDE80088BDE88901BDE80048B619FF
:103F2000524141EB0101A3F10103704780807F7E84
:103F30007D7C7B7A7978777676757473727171701F
:103F40006F6E6E6D6C6C6B6A6A69686867666665D1
:103F50006464636362616160605F5F5E5E5D5D5C5F
:103F60005C5B5B5A5A5959585857575656555555D0
:103F70005454535352525251515050504F4F4F4E30
:103F80004E4D4D4D4C4C4C4B4B4B4A4A4A4949497E
:103F900048484847474747464646454545444444C0
:103FA000444343434342424242414141002B9C46E9
:103FB00030D477002BD01CB54FEA370703B44FF04D
:103FC00010004FF01001BAF1000F06D0BCF1000F45
:103FD000DCBF40F0080040F008014FF000000FBCCB
:103FE000BDE810400BF1010BBBF1010F08BF5FEA08
:103FF000170722BF12F1010211F101014FF0004138
:1040000043F1000300F0004043EA00007047F9D399
:104010005708D0E746EA064613F1400F4FEA164626
:104020001FDD13F1200FDFBF16430A4600212033A6
:104030005B42BED0C3F1200746EA064602FA07F704
:104040004FEA164646EA0706C3F1200722FA03F2B2
:1040500001FA07F721FA03F14FF0000342EA0702E1
:10406000A7E746EA020646EA06464FEA164646EA49
:104070000106BCBF46EA0646360C4FF000034FF07F
:1040800000024FF0000194E72DE9804C9A469346D8
:1040900070B491E8380007C831EA400C48BF34EAF0
:1040A000430C03D5FFF7E6FDFFF780FFF0BCBDE84A
:1040B000008C2DE9804C9A46934670B491E8380004
:1040C00007C810F0804F08BF13F0804F03D100F0F5
:1040D00005F8FFF76BFFF0BCBDE8008C20F07F47D0
:1040E00080EA030023F07F4C07EB0C03A3F57C531D
:1040F00000F00040A3F1FE0392F0000F00F0B38047
:1041000095F0000F00F077802DE901494FEA11404A
:104110004FEA144621EA004800FB06FC24EA064761
:1041200008FB06F607FB08F800FB07F718EB064844
:104130004CEB164C4FEA124B18EB07484FEA15466A
:104140004CEB174022EA0B4E0BFB06FC25EA064718
:104150000EFB06F607FB0EFE0BFB07F71EEB064EEB
:104160004CEB164C4FF000061EEB074E4CEB174B7A
:1041700018EB0B0840F1000018EB0E0B58EB000891
:1041800040F100008F1A4FF000013CBFC943661B8D
:1041900014BFB5EB040C00213CBFC943F61B4FEA2A
:1041A00017444EEA8E0E27EA04454FEA1C4704FBEB
:1041B00007622CEA074C05FB07F70CFB05F604FB2E
:1041C0000CFC16EB074642EB174216EB0C4642EB93
:1041D0001C421BEB060658EB0202414146EA9E06D2
:1041E00001D5BDE80189B619524141EB0101A3F1A6
:1041F0000103BDE801894FEA14454FEA114724EA5B
:10420000054621EA074C05FB07F406FB07F70CFB04
:1042100006F105FB0CFC11EB074144EB17444FEA98
:10422000124711EB0C4144EB1C4422EA074C05FBFE
:1042300007F206FB07F70CFB06F605FB0CFC16EB7A
:10424000074642EB174216EB0C4642EB1C456A1838
:1042500054F1000148BF7047B619524141EB0101CA
:10426000A3F10103704795F0000F37D04FEA1142D8
:104270004FEA144721EA024624EA074C02FB07F101
:1042800006FB07F70CFB06F402FB0CFC14EB0744DF
:1042900041EB17414FEA154714EB0C4441EB1C412D
:1042A00025EA074C02FB07F506FB07F70CFB06F6B1
:1042B00002FB0CFC16EB074645EB174516EB0C46CC
:1042C00045EB1C42121951F1000148BF7047B61965
:1042D000524141EB0101A3F1010370474FEA14453C
:1042E0004FEA114724EA054621EA074C05FB07F18E
:1042F00006FB07F70CFB06F24FF0000605FB0CFC73
:1043000012EB074241EB174112EB0C4251EB1C41FF
:1043100048BF7047921841EB0101A3F101037047B8
:10432000490050EAC12018BF04204A0D18BF40F0D0
:10433000010040F2FF72B2EB515F08BF40F0020093
:10434000012808BF0520704730380A2801D2012013
:10435000704700207047000010B500290AD0087887
:10436000002807D005487844FFF7D2FB002801D089
:10437000002010BD0248784410BD00003A0A000039
:10438000320A000010B500290AD00878002807D0AA
:1043900005487844FFF7BCFB002801D0002010BD81
:1043A0000248784410BD00002A0A0000220A0000DA
:1043B000491058BFC1F140415B1058BFC3F14043A1
:1043C0008B42EFF30080704751EA030C17D41CF5C1
:1043D000801F58BFBCF5801F00F10680994218BFAE
:1043E000704708BF9042704707D711F5801F58BF2C
:1043F00013F5801F19D499427047894270471CF504
:10440000801F08D5BCF5801FF7D58B4218BF7047B9
:1044100008BF824270474FF4001C1CEB410F38BFAD
:104420001CEB430F01D28B42704770B500F008F8C7
:10443000922449004FF000514FF08053FFF7B8BF6E
:104440000EF1020E2EF0030E5EF8046B364205D418
:10445000012A43EB030515F5001F12D8012841EB93
:10446000010C1CF5001F0CD80ED14FEAD17C15F5BC
:10447000001F0CEB4C0C0CF1020C08BF4CEBD37C76
:1044800004E04FF0080C01E04FEAD37C0CEB4C0544
:1044900026FA05F606F00706B6F1040C06D20EEB76
:1044A000860CBDE870404CF0010C6047DFE80CF072
:1044B000090B02024FF000414FF00000A1F500216E
:1044C00070BD19461046012851EB010418BFD4F500
:1044D000001484BF002001F0004170BD0808A0F561
:1044E00000114FEA3101704753EA010C17D41CF553
:1044F000801F58BFBCF5801F00F106808B4218BF9B
:10450000704708BF8242704707D713F5801F58BF16
:1045100011F5801F19D48B4270479B4270471CF5E0
:10452000801F08D5BCF5801FF7D5994218BF70478A
:1045300008BF904270474FF4001C1CEB430F38BF7C
:104540001CEB410F01D2994270470FB40CBC03BC65
:10455000FFF76BBF43004FEAD30C4FEA3C0C4340DC
:104560001FBF40070CF1605113F0FE4F70471CF065
:10457000006F03D100200CF0004170470CF00043A5
:1045800043EA507010B540EACC0000F03CFA00BF9E
:10459000000000924FEA0001FFF7A0BF4FF000417A
:1045A0004FF00000A1F500217047000090EA010FD4
:1045B00048BF81F0004100F1AA82421A3CBF801A34
:1045C00089184FEAD0524FF07F4C1CEA410FA2EB02
:1045D000D15318BF9CEA026F00F03B804FF0004CB3
:1045E0004CEA00204CEA012121FA03FC10EB0C0CF0
:1045F0001ED202F1FF325FEA1C2040EBC25038BFEE
:1046000070471CF07F0F4FEA400C18BFBCF17F4F82
:1046100038BF7047C3F12003994008BF20F0010064
:10462000BCF17F4F38BF7047A0F1C04000F031BAF5
:104630004FEA3C00000A40EBC25028BF1CF0FF0FBD
:104640004FEA400CE6D018BFBCF17F4F38BF70472F
:10465000EAE79CEA026F05D010EA5C0F08BF00F0A1
:104660000040704710B500F0CEF900BF64FBBE3EBD
:10467000401058BFC0F14040491058BFC1F14041FF
:104680008142EFF3008070474FF47F0C1CEAD01298
:104690001EBF1CEAD11392EA0C0F93EA0C0F00F034
:1046A000858090EA010F48BF42F4807240F4000C0C
:1046B00041F400002CF07F4120F07F4000B58142A2
:1046C000A2EB03020FF2081CACEB504EC0F100004D
:1046D0009EF800E04FEA4E0E00FB0EFC38BF49008A
:1046E0004FEA2C1C02F5FA020CFB0EF34FEACE1E29
:1046F0004FEA112C4FEAC1210EEB635E42EB2242DE
:104700000EFB0CFC4FEA1C5300FB03114FEA112C6B
:104710004FEA01310EFB0CFC4FEADC4C00FB0C11A4
:10472000C14228BF09184CEB03335DF804EB10EBD2
:10473000410143EBC250B2F57C0F38BF704729D519
:1047400012F0F00F1CBF00F1C04000F000407047B5
:10475000008182838485868788898B8C8D8E8F915A
:104760009293959697999A9C9D9FA0A2A3A5A7A87E
:10477000AAACAEB0B2B3B5B7B9BCBEC0C2C5C7C9AA
:10478000CCCED1D4D7D9DCDFE2E6E9ECF0F3F7FA0E
:10479000FE0000004FEA400C0CF1807CBCF17E4F23
:1047A00028BF7047B0F1C04000F073B990EA010F24
:1047B0000CEAD11348BF42F48072624538BF6345AA
:1047C00007D213F47F0F16D080EA010000F00040FA
:1047D000704710B500F017F9097EFC3E00F005B8EF
:1047E00080EA010000F00040704780EA010000F01C
:1047F000004000F04EB912F47F0F04BF024870472A
:1048000080EA010000F045B90000C07F41000B0EB6
:10481000D3F19E0208D950F400034FEA032323FA90
:1048200002F048BF4042704710B500F0ECF800BFFE
:1048300049922480002070476FF0004282EA2000F5
:104840007047000010F0004148BF4042B0FA80F3CA
:1048500010FA03F2C3F19D030BD051EAC35101EBEF
:104860001220530638BF704700F1010008BF20F046
:1048700001007047B0FA80F310FA03F2C3F19D0310
:104880000AD0D90501EB1220530638BF704700F15A
:10489000010008BF20F001007047000050EA010C41
:1048A00000F113801CF5000F58BFBCF5000F01D4B8
:1048B0008842704707D710F5000F58BF11F5000F59
:1048C00015D488427047894270471CF5000F04D503
:1048D000BCF5000FF7D5814270474FF0807C1CEB90
:1048E000400F38BF1CEB410F01D28142704710B519
:1048F00000F089F8922449004FF000504FF08051A9
:10490000FFF7B6BE4FF47F0C1CEAD0121EBF1CEAA4
:10491000D11392EA0C0F93EA0C0F00F0478090EA53
:10492000010F48BF42F480724FF0004C4CEA002067
:104930004CEA012102EB0302A0FB0113A2F50002E5
:10494000002918BF43F001035B0028BF4FEA33037F
:1049500042EB22425FEA132C4CEBC2502EBFBCEB61
:10496000436FB2F57C0F70474FEA036CBCF1004F08
:1049700008BF20F00100B2F57C0F38BF70470BD59F
:1049800082F0FF0212F5803FC8BF704700F1C040BF
:10499000D8BF00F00040704700F5000C5FEA4C0CF7
:1049A00048BF7047B0F1C04000F073B890EA010F03
:1049B0000CEAD11348BF42F48072624538BF6345A8
:1049C00004D280EA010000F00040704710B500F00A
:1049D0001AF800BF8900013E00F007B800F009B8DE
:1049E0005FEA410C5FEA1C6C08D080EA010000F02D
:1049F00050B85FEA400C5FEA1C6CF6D14FF0004003
:104A0000A0F5800070470EF1020E2EF0030E5EF846
:104A1000044B244204D44FEA4102B2F17F4F11D833
:104A20004FEA4003B3F17F4F0CD80ED14FEAD07C50
:104A3000B2F17F4F0CEB4C0C0CF1020C08BF4CEBAD
:104A4000D17C04E04FF0080C01E04FEAD17C0CEB84
:104A50004C0324FA03F404F00704B4F1040C06D266
:104A60000EEB840CBDE810404CF0010C6047DFE811
:104A70000CF0070802024FF00040A0F5800010BDC6
:104A80000846420018BFD2F1807288BF00F0004093
:104A900010BDFF2141EAD050C005704751EA000C1B
:104AA00000F113801CF5000F58BFBCF5000F01D4B6
:104AB0008142704707D711F5000F58BF10F5000F5E
:104AC00015D481427047894270471CF5000F04D508
:104AD000BCF5000FF7D5884270474FF0807C1CEB87
:104AE000410F38BF1CEB400F01D28842704780EA6B
:104AF000010081EA000180EA0100FFF7F8BE000032
:104B000090EA010F48BF81F000413FF556AD421ACF
:104B100004D882F00042A0EB020011444FEAD052C8
:104B20004FF07F4C1CEA410FA2EBD15318BF9CEA17
:104B3000026F4AD04FF0004C4CEA00204CEA0121B1
:104B400021FA03FCB0EB0C0C0FD412F0FE0F36D0A0
:104B50005FEA4C001DD5001240EBC25038BF7047D1
:104B60001CF03F0F18BF70470BE0A2F101025FEA93
:104B70001C2040EBC25038BF70471CF07F0F18BF9D
:104B80007047C3F12003994014BF401E20F001007C
:104B9000704780084FEA122308BF7047B0FA80FCC4
:104BA000A2EB0C02CCF1280C60FA0CF093EA122F65
:104BB00004BF00EBC25070474FEAC3707047130A3E
:104BC0005FEADC1008BF7047F6E79CEA026F04D08A
:104BD00010EA5C0F08BF0020704710B5FFF713FF05
:104BE00040DFF63E81F000407047FEF71ABD5F5F80
:104BF0005F606060616161616162626262626363A1
:104C0000636363636363646464646464646464646A
:104C1000646464646464646464646363636363635A
:104C2000636362626262626261616161606060606E
:104C30005F5F5F5E5E5E5D5D5D5C5C5C5B5B5A5AA8
:104C40005959595858575756565555545453525206
:104C5000515150504F4E4E4D4C4C4B4A4A4948488A
:104C6000474645454443424241403F3E3E3D3C3B32
:104C70003A39383837363534333231302F2E2D2CFF
:104C80002B2A2928272625242322211F1E1D1C1BF1
:104C90001A19171615141311100F0E0C0B0A090709
:104CA00006050302010000000000000000000000F3
:104CB0003031323334353637383941424344454652
:104CC000403058003031323334353637383961624C
:104CD000636465664030780004000008000000004E
:104CE000000000020001000010000000024000006F
:104CF000000000A00000000005400000000000C807
:104D0000000000000C4000000000409C000000007B
:104D1000194000000020BCBE00000000344000002C
:104D2000BFC91B8E00000004B5400000504BCFD01F
:104D30006607E2CF010000006C4100003E8251AAEC
:104D4000DFEEA73401000000D9420000DCB5A0E28C
:104D50003A301F97FFFFFFFFB4450000FD25A0C8B4
:104D6000E9A3C14FFFFFFFFFFF3F000000000080ED
:104D700000000000FF3F0000000000800000000075
:104D8000CC4E000800000020900000006C010008DC
:104D90005C4F000890000020781700008801000890
:104DA0001C00000043000000F8FFFFFF0C000000A3
:104DB0000E0000000F0000002E0000001001000097
:104DC00043000000F8FFFFFF0040404040404040EB
:104DD00040404141414141404040404040404040CE
:104DE0004040404040404040400502020202020272
:104DF00002020202020202020220202020202020C1
:104E000020202002020202020202909090909090D4
:104E10001010101010101010101010101010101092
:104E20001010101002020202020288888888888806
:104E300008080808080808080808080808080808F2
:104E400008080808020202024000000000000000FA
:104E50000000000000000000000000000000000052
:104E60000000000000000000000000000000000042
:104E70000000000000000000000000000000000032
:104E80000000000000000000000000000000000022
:104E90000000000000000000000000000000000012
:104EA0000000000000000000000000000000000002
:104EB00000000000000000000000000000000000F2
:104EC00000000000000000000000000000000000E2
:104ED0000000000000A24A040000000000000000E2
:104EE000010203040607080900000000000000009A
:104EF00000000000000000000000000000000000B2
:104F000000000000000000000000000000000000A1
:104F10000000000000000000000000000000000091
:104F20000000000000000000000000000100000080
:104F30000000000000000000000000000000000071
:104F40000000000000000000000001020304010254
:0C4F50000304060708090204060800001C
:0400000508000131BD
:00000001FF
