:020000040000FA
:10000000C80E0020550100005D010000430C0000F7
:100010000F43000035080000C94B0000000000003D
:10002000000000000000000000000000CD430000C0
:10003000010900000000000079430000E7430000D0
:100040006F0100006F0100006F0100006F010000F0
:100050006F0100006F0100006F0100006F010000E0
:100060006F0100006F0100006F0100006F010000D0
:100070006F0100006F0100006F0100006F010000C0
:100080006F0100006F0100006D0B00006F010000A8
:100090006F0100006F0100006F0100006F010000A0
:1000A0006F0100006F010000000000006F01000000
:1000B0006F0100006F0100006F0100006F01000080
:1000C0006F0100006F0100006F0100006F01000070
:1000D0006F010000000000000000000000000000B0
:1000E000000000006F0100006F0100006F010000C0
:1000F0006F0100006F0100006F0100004944000023
:10010000B54400006F0100006F0100006F010000A6
:100110006F0100006F010000000000006F0100008F
:100120006F0100006F0100006F0100006F0100000F
:100130006F0100006F0100006F010000000000006F
:1001400000000000000000000000000000000000AF
:100150006F0100000648804706480047FEE7FEE7BB
:10016000FEE7FEE7FEE7FEE7FEE7FEE7FEE7FEE767
:10017000E943000079010000DFF80CD000F0C0FA7C
:1001800000480047415A0000C80E0020D2B201E0EA
:1001900000F8012B491EFBD270470022F6E710B58C
:1001A00013460A4604461946FFF7F0FF204610BDE5
:1001B000421C10F8011B0029FBD1801A704710B5B2
:1001C000002200E0521C835C8C5CA34201D1002B16
:1001D000F8D1D8B2E1B2401A10BD2DE9FE4F81EA44
:1001E000030404F0004421F0004100944FF0000BA0
:1001F00023F0004350EA01045ED052EA03045BD0CE
:10020000C3F30A54C1F30A552C44A4F2F334019405
:10021000A0FB0254C1F3130141F48011C3F3130393
:1002200043F4801301FB024400FB034E840A970A47
:1002300044EA815447EA8357A4FB076802958D0A74
:1002400005FB07854FEA932C04FB0C542705029D00
:100250004FEA065847EA1637B5EB08056EEB070C70
:10026000870E920E47EA811742EA8312A7FB02012A
:10027000B6EB0B0164EB00042B0D43EA0C335E1864
:1002800044EB1C50DA465146E7FB0201C5F3130468
:100290004FEA0B3343EA14534FEA0432019C43EA1A
:1002A0000603A4F10C040294009CCDE900B400F014
:1002B00092F803B0BDE8F08F00200146F9E70EB5D3
:1002C00040F2334102910021CDE900110A460B466C
:1002D00000F081F803B000BDC1F30A5210B5C1F3BC
:1002E000130140F2FF3341F480119A4201DA0020F9
:1002F00010BD40F233439A42A2F2334203DC524231
:1003000000F04AF810BD904010BD30B50B460146D4
:1003100000202022012409E021FA02F59D4205D3A4
:1003200003FA02F5491B04FA02F52844151EA2F14E
:100330000102F1DC30BD2DE9F05F05460020924658
:100340009B4688460646814640241BE02846414697
:100350004746224600F020F853465A46C01A9141BB
:1003600010D311461846224600F0DCF92D1A67EB2F
:1003700001084F4622460120002100F0D3F917EB77
:1003800000094E41201EA4F10104DFDC484631463D
:100390002A464346BDE8F09F202A04DB203A21FA92
:1003A00002F00021704721FA02F3D040C2F120028E
:1003B000914008431946704710B5141E73F10004AC
:1003C00008DA401C41F1000192185B411A4301D147
:1003D00020F0010010BD2DE9F04D92469B4611B171
:1003E000B1FA81F202E0B0FA80F22032904600F0D9
:1003F00099F904460F4640EA0A0041EA0B015346C8
:100400005A46084313D0114653EA010019D0C8F1E7
:1004100040025046FFF7C0FF05460E46504659467B
:10042000424600F07FF9084305D0012004E0204651
:100430003946BDE8F08D0020054346EAE0762C43BE
:1004400037430A986305E40AA0EB08000022FD0A7E
:1004500044EA47540A3002D500200146E9E7010585
:1004600010196941DDE9084500196941BDE8F04D01
:10047000A2E72DE9FE4F804681EA0300C00F0C463B
:10048000009021F0004123F00045B8EB0200A941A3
:1004900005D24046214690461C460B46024623F0B4
:1004A0000040104347D0270DC7F30A00C3F30A5199
:1004B0000290401A019040286BDAC3F3130040F415
:1004C000801B0098924620B10023D2EB030A63EB15
:1004D0000B0B01985946C0F14002504600F022F93A
:1004E00006460D4650465946019A00F02AF910EB8F
:1004F00008006141002487EA115284EAE7731A4335
:1005000040D0009A62B3019A012A4FEA075215DCE3
:10051000001B61EB02014FF0004202EA0752CDE9F5
:100520000042001C41F5801132462B46FFF753FF75
:1005300003B0BDE8F08F40462146F9E7001B61EBB0
:100540000201001C41F5801300185B412018A2F540
:10055000001747EB030140EAD570B6196D4111E071
:100560006D084FEA360645EAC0754FEA0752001B90
:1005700061EB0201001C41F5801149084FEA30008F
:100580000019514132462B4603B0BDE8F04FFFF74A
:1005900013BF0098012240000023D0EB020263EB5E
:1005A000E073009821464FEAE074B8EB000061EB7D
:1005B0000401E9E783F000435BE781F0004158E77D
:1005C0002DE9F04D81EA030404F0004B21F00045D1
:1005D00014464FF0000A23F0004150EA050220D0F3
:1005E00054EA01021DD0C5F30A570246C5F31303AE
:1005F000C1F31300C1F30A5640F4801543F480138D
:10060000A7EB0608101BD64608F2FD3873EB050071
:1006100002D308F1010801E092185B41B8F1000F24
:1006200003DA00200146BDE8F08D00204FF4801170
:10063000064684460EE0171B73EB050705D3121B15
:1006400063EB050306434CEA010C49084FEA30000E
:1006500092185B4150EA0107EDD152EA030012D033
:1006600082EA040083EA0501084305D0101BAB4170
:1006700006D20122002306E000224FF0004302E0F0
:100680006FF0010253101AEB06004CEB085110EB0F
:100690000A0041EB0B01BDE8F04DFFF78DBEC1F341
:1006A0000A52C1F3130140F2FF3341F480119A4220
:1006B00002DA00200146704740F233439A42A2F228
:1006C000334202DC5242FFF767BE00F02BB8000055
:1006D00030B5041E71F1000404DB4FF000444042C9
:1006E00064EB0101141E73F1000405DB1C464FF09E
:1006F0000043524263EB0403994208BF904230BD6D
:10070000064C074D06E0E06840F0010394E807005E
:1007100098471034AC42F6D3FFF732FDB8770000AB
:10072000D8770000202A04DB203A00FA02F10020EA
:1007300070479140C2F1200320FA03F3194390401F
:100740007047202A06DBCB17203A41FA02F043EA31
:10075000E07306E041FA02F3D040C2F1200291407A
:1007600008431946704700002DE9F0479146164AA4
:100770004FF0FF0A02EBC005002200240AFA02F043
:100780002346084219D04FF0010C00200CFA02FC5D
:100790004FF00F0821FA00F616EA0C0F06D086007B
:1007A00008FA06F73C4309FA06F73B43401C0828C1
:1007B000F0D32868A0431843286008322D1D082A6A
:1007C000DBDDBDE8F087000020200240012240214F
:1007D000014800F031BA000000800B4010B5002144
:1007E0004FF480104022012300F078F8084C0122D9
:1007F0004021204600F0F2F901224021204600F07D
:10080000FDF920460122BDE81040402100F014BA55
:1008100000800B4010B500224021054800F00CFA82
:1008200040F2DC5004F03AFFBDE81040FFF7CEBFC5
:1008300000800B40FEE7000070B5124E0446706B5E
:10084000850F00F023F82060012D05D00E48022D01
:1008500002D0032D00D000206060316AC840A06043
:100860003168C1F3015120FA01F1E160B16AC1F3CD
:100870000241072902D0C840206170BD0621B0FBAB
:10088000F1F0F9E70080084000127A000C49D1F835
:10089000A400002813D0086A0A48D1F8FC130129E3
:1008A0000DD0094A9169C1F3C55101B9402192693E
:1008B000C2F3415301229A40B0FBF2F04843704723
:1008C0000000104300127A000080084000B585B097
:1008D0006846FFF7B1FF039805B000BDF0B5074FBC
:1008E0007C6AFD6A3E6B84438D43964313B1044397
:1008F0000D4316437C62FD623E63F0BD00800840FC
:1009000070470000044B9A158240186809B11043E3
:1009100000E09043186070470080094070B5D0E94E
:100920000D3443EA0424314B016803EB01121461D6
:10093000456D846CB0F850602C43C56C2D0245EABF
:1009400006452C435461046CB0F84450240244EA38
:100950000544C56B2C439461456A8469C66944EAC1
:100960004504056AAD0045EAC6052C43C56A44EA5C
:100970000514856A44EA4514D4614A00032494406E
:100980004FF480558D402C434FF4803595402C43D7
:100990004FF4003595402C434FF080758D402C432B
:1009A0001D68C668A543446894408E403443066978
:1009B0009640344346699640826834438A4090F8B2
:1009C0003010144344EA017129431960416D002934
:1009D0000AD0D0E916121143026EB0F86400120278
:1009E00042EA00400143596070BD000000800940A8
:1009F0007CB5102408E034A0CDE900401023C822C3
:100A000055210F2003F04CFC142234A134A004F033
:100A1000FBFD0028EFD1142004F040FE31A005F0CA
:100A20003BFA142004F03AFE08E030A0CDE9004083
:100A30001023C82255210F2003F032FC322227A1B7
:100A40002DA004F0E1FD0028EFD1142004F026FED3
:100A500008E02CA0CDE900401023C82255210F202A
:100A600003F01EFC32221DA12AA004F0CDFD0028B7
:100A7000EFD1142004F012FE08E02BA0CDE90040D5
:100A80001023C82255210F2003F00AFC322213A1A3
:100A900029A004F0B9FD0028EFD1142004F0FEFDD8
:100AA000294D4FF478401023288028A0CDE900403C
:100AB000C82250210F2003F0F3FB1F202A49288071
:100AC000012008707CBD0000776966692069732089
:100AD0006E6F206F6E6C696E650000004F4B0000FA
:100AE00041540000415445300D0A00006369706DA7
:100AF000757820776169740041542B4349504D55F6
:100B0000583D310074637073657276657220776149
:100B10006974000041542B43495053455256455285
:100B20003D312C38303836006F76657274696D65EA
:100B3000207761697400000041542B43495053549D
:100B40004F3D36343030000008000020202065730F
:100B5000703832363620696E697420737563636548
:100B6000737366756C0000001200002010B5002140
:100B70000A2000F01DF828B105A004F095F80749F7
:100B800001200870BDE810400A2000F009B80000FC
:100B900067657420657874690D0A00002E000020D6
:100BA0000121814001484164816470470040024056
:100BB000084B10B502465B6C002001249440234290
:100BC00007D0054B03EB8202D2F800298A4200D0FD
:100BD000012010BD0040024000004842002A026887
:100BE00001D00A4300E08A4302607047002A42684D
:100BF00001D00A4300E08A4342607047002A02693C
:100C000001D00A4300E08A430261704742B1012AE1
:100C100009D082688A438260C2688A43C260704792
:100C200082680A43F7E7C2680A43C26082688A435F
:100C300082607047416270470AB1416270478162C9
:100C40007047FEE72DE9F043184F06460024388828
:100C50007D884543B888A0F5D041043902D1B879E0
:100C6000012808D00021084603F018FA03F042FBDF
:100C70004FF0C04015E00020B8714FF02A09A7F8E6
:100C80000A904FF02B08A7F80C80014603F006FAF3
:100C90000120B871A7F80A80A7F80C90E6E7468013
:100CA000641CAC42FBD3BDE8F0830000340000209C
:100CB0002DE9F04F4A492A232B24898845F2105AFE
:100CC0004FF4305B4FF4285E4FF448754FF0F00C52
:100CD00049F241394FF4A07745F210364FF4F072E3
:100CE00080B13F484FF00108494580F806800780F1
:100CF000A0F802C001D0B1423ED12C25058143812C
:100D0000848157E036484FF00008494580F8068056
:100D1000A0F800C0478006D0A1F5D04CBCF1040C6F
:100D200001D0B1420CD12C2505814381A1F5D043DE
:100D30008481043B01D0B14244D10780428041E02C
:100D4000514507D1A0F808B0A0F80AE04FF42C51A3
:100D500081810EE0A1F5C856633E06D022210181B3
:100D600020214181212181812CE02C21018144819C
:100D700083810280458025E0A1F5D04CBCF1040CB4
:100D800009D051450BD1A0F808B0A0F80AE04FF403
:100D90002C53838121E02C250581448109E0A1F5B4
:100DA000C85CBCF1630C12D0222303812123438150
:100DB00020238381A1F5D043043B01D0B14201D16E
:100DC00002804780BDE8F04F002003F095B84FF057
:100DD0002C0CA0F808C04381848105804280E9E79B
:100DE000340000202DE9FE4F0026A2EB00088246C9
:100DF0005F1A701E35468946B8F1000F02DD4FF0CC
:100E0000010102E003D14FF00001019102E0C8F1BD
:100E100000080190002F02DD4FF0010002E003D135
:100E20004FF00000009002E0C7F10007009040463C
:100E3000B84501DD044600E03C46601C4FF0000B65
:100E4000029015E01FFA89F11FFA8AF000F015F8F8
:100E500046443D44A64202DD0199361B8A44A54220
:100E600002DD00992D1B89440BF101001FFA80FB64
:100E700002998B45E6DDBDE8FE8F00B503F00EF963
:100E800003F038FA4FF0C0410020488000BD000058
:100E90002DE9F047DFF8F880924642460B46B8F855
:100EA00004500C0A9189060A5289A5F513474FF0A0
:100EB000C049413F19D0A5F5A647103F15D0A5F56B
:100EC000AA47103F17D04746A5F5C85CBE793F88B2
:100ED0003F1A7F1EBCF1630C20D0A5F5D04CBCF1AD
:100EE000040C33D0012E41D041E04D46A9F800203A
:100EF000A9F8026033E04D46A9F80020A9F8026085
:100F0000521CA9F80020C0B2A9F80200A9F80010EC
:100F1000A9F80240491CA9F8001024E006B9B8B2AB
:100F20004D46A9F80020020AA9F80220C6B2A9F885
:100F30000260A9F80220C0B2A9F80200A9F80010C6
:100F4000A9F80240D8B2A9F802000BE0012E00D1A6
:100F5000B8B24D46A9F80020020AA9F80220C0B292
:100F6000688029806C80D8B2688009E0B8B20146F8
:100F7000104603F0C7F9B8F80C00194603F0C2F99F
:100F8000B8F80800A9F80000A9F802A0BDE8F087A9
:100F9000340000202DE9F8431F4D1F468046AB88E2
:100FA000089EA3F5D040043802D1A879012807D0C3
:100FB000A2EB0800401C85B20C464FF0C04928E067
:100FC0002B880846991A0024AC713A462A24A3EBD0
:100FD00008036C812B27491E5B1EAF8189B29BB22F
:100FE0000096FFF7D7FF0120A8716F81AC81BDE8A3
:100FF000F8832146404603F051F803F07BF90020C6
:10100000494602E04E80401C80B2A842FAD3641CDC
:10101000A4B2BC42EDD9EAE7340000202DE9F04F3C
:10102000002401239BB0224699034FF48830FFF738
:1010300055FC092280210120FFF796FB092240215F
:101040000120FFF791FB09224FF480710120FFF787
:101050008BFB09224FF400610020FFF785FB09227A
:101060004FF480410020FFF77FFB4FF40049092235
:1010700049460020FFF778FB012109220846FFF7C7
:1010800073FB092202210120FFF76EFB09220421D4
:101090000120FFF769FB092208210120FFF764FB0B
:1010A000092210210120FFF75FFB092220210120E6
:1010B000FFF75AFB092280210220FFF755FB092286
:1010C0004FF480710220FFF74FFB0922102102200C
:1010D000FFF74AFB092220210220FFF745FB0922E6
:1010E00040210220FFF740FB092201210220FFF7E7
:1010F0003BFB022109220846FFF736FB09220421A7
:101100000220FFF731FB00224FF400711046FFF779
:101110002BFBFE4D4FF400712868FFF78BFD012279
:1011200051022868FFF75AFD0320CDE900400294E0
:101130004FF480500A94CDE9030440010B94CDE9AB
:1011400005040220099407940894CDE90E400C94FC
:101150000D940121CDE91001129013AA052082E817
:1011600013001020CDE916400F201890FF20199091
:101170006846FFF7D3FB01210020FFF7C3FB3220B5
:1011800004F08CFA002002F090FEE14949F2413669
:1011900046F60407888045F2103845F210524FF6A3
:1011A000FF754FF0C044FF2804D3A84202D0B0F529
:1011B000134F6DD1D320208002F06EFE888002F0A4
:1011C0006BFE888002F068FE05EA0020888002F04D
:1011D00063FE8B8818438880B04259D0BF2020809E
:1011E00002F05AFE888002F057FE888002F054FE1A
:1011F000888002F051FE05EA0020888002F04CFE53
:101200008B8818438880B84242D0D420208002F0D6
:1012100043FE888002F040FE888002F03DFE05EA31
:101220000020888002F038FE8B8818438880404573
:101230002ED04FF45A40208002F02EFE88804FF4CA
:101240005B40208002F028FE05EA002088804FF4F1
:101250005C40208002F020FE8B881843888048453F
:1012600001D18A80FEE3904212D0A120208002F0BA
:1012700013FE888002F010FE05EA0020888002F04C
:101280000BFE8B881843A0F5AE438880613B7DD070
:1012900080B2B0427BD1CF20208000206080C1206E
:1012A000608030206080ED202080642060800320FA
:1012B00060801220608081206080E820208085206E
:1012C0006080102060807A206080CB2020803920D0
:1012D00060802C20608000206080342060800220AC
:1012E0006080F720208020206080EA20208000207D
:1012F00060806080C02020801B206080C120208012
:1013000001206080C5202080302060806080C72060
:101310002080B720608036202080482060803A20DE
:10132000208055206080B1202080002060801A201D
:101330006080B62020800A206080A2206080F22099
:101340002080002060802620208001206080E02016
:1013500020800F2060802A20608028206080082064
:1013600060800E2060800820608054206080A9206A
:101370006080432060800A2060800F206080002011
:101380006080608060806080E12001E032E036E0D3
:10139000208000206080152060801720608007205A
:1013A000608011206080062060802B2060805620A5
:1013B00060803C20608005206080102060800F20CD
:1013C00060803F20608060800F2060802B20208024
:1013D000002060806080012060803F2060802A20A3
:1013E00020800020608060806080EF20608011207D
:1013F000208071E041F66310888002F0CABCB842D8
:1014000071D111202080142004F048F9D0202080D0
:1014100007206080422060801D206080D1202080D5
:10142000002060801A20608009206080D220208007
:101430000120608022206080C020208010206080F9
:101440003B2060800020608002206080112060804E
:10145000C520208003206080C8202080002060807C
:101460002520608021206080052060800020608031
:101470000A20608065206080252060807720608061
:10148000502060800F20608000206080F820208045
:1014900001206080FE20208000206080022060808B
:1014A0002020208036202080082060803A20208064
:1014B000552060802B2020800020608060800120EB
:1014C00060803F2060802A20208000206080608033
:1014D00001206080DF206080782004F0DFF8292080
:1014E00001F036BCFFE740457ED1ED202080012091
:1014F0006080FE206080EE202080DE206080212041
:101500006080F12020800120608003E0C45F000043
:1015100034000020DF20208010206080C420208044
:101520008F206080C620208000206080E2206080C4
:1015300060806080BF202080AA206080B020208052
:101540000D206080002060800D2060800020608081
:101550001120608000206080192060800020608061
:1015600021206080002060802D206080002060802D
:101570003D206080002060805D20608000206080D1
:101580005D20608000206080B1202080802060800D
:10159000002060808B20608000206080962060802A
:1015A00000206080B22020800020608060800220C7
:1015B0006080002060800320608000206080B32075
:1015C000208000206080608060806080608060801B
:1015D000608060806080608060806080608060800B
:1015E00060806080608000E0FEE3608060806080FA
:1015F0006080608060806080B42020808B2060806C
:10160000002060809620608000206080A1206080A3
:1016100000206080B5202080022060800020608053
:1016200003206080002060800420608000206080B3
:10163000B6202080002060806080B72020800020BD
:10164000608060803F206080002060805E2060803D
:101650000020608064206080002060808C2060809A
:1016600000206080AC20608000206080DC206080F2
:10167000002060807020608000206080902060806A
:1016800000206080EB20608000206080DC20608093
:1016900000206080B8202080002060806080608012
:1016A00060806080608060806080BA20208024201C
:1016B00060800020608060806080C12020802020C9
:1016C0006080002060805420608000206080FF20C7
:1016D000608000206080C22020800A20608000207E
:1016E00060800420608000206080C32020803C2037
:1016F0006080002060803A20608000206080392077
:1017000060800020608037206080002060803C2066
:101710006080002060803620608000206080322061
:101720006080002060802F206080002060802C205E
:10173000608000206080292060800020608026205A
:101740006080002060802420608000206080242051
:1017500060800020608023206080002060803C202A
:101760006080002060803620608000206080322011
:101770006080002060802F206080002060802C200E
:10178000608000206080292060800020608026200A
:101790006080002060802420608000206080242001
:1017A0006080002060802320608000206080C42052
:1017B0002080622060800020608005206080002002
:1017C00060808420608000206080F02060800020A5
:1017D00060801820608000206080A420608000204D
:1017E0006080182060800020608050206080002091
:1017F00060800C20608000206080172060800020C6
:1018000060809520608000206080F3206080002050
:101810006080E620608000206080C520208032202B
:10182000608000206080442060800020608065200F
:1018300060800020608076206080002060808820AA
:10184000608000206080C6202080202060800020F2
:101850006080172060800020608001206080002070
:101860006080C72020800020608060806080608071
:10187000C820208000206080608060806080C92057
:101880002080002060806080608060806080608058
:101890006080608060806080608060806080608048
:1018A00060806080E02020801620608000206080C2
:1018B0001C206080002060802120608000206080EB
:1018C000362060800020608046206080002060809C
:1018D0005220608000206080642060800020608052
:1018E0007A206080002060808B20608000206080F3
:1018F0009920608000206080A820608000206080A7
:10190000B920608000206080C4206080002060805A
:10191000CA20608000206080D2206080002060802B
:10192000D920608000206080E020608000206080FE
:10193000F320608000206080E120208016206080FD
:10194000002060801C206080002060802220608059
:10195000002060803620608000206080452060800C
:1019600000206080522060800020608064206080C1
:10197000002060807A206080002060808B20608062
:10198000002060809920608000206080A820608016
:1019900000206080B920608000206080C4206080CA
:1019A00000206080CA20608000206080D22060809B
:1019B00000206080D820608000206080E02060806F
:1019C00000206080F320608000206080E220208082
:1019D00005206080002060800B20608000206080F7
:1019E0001B206080002060803420608000206080A8
:1019F00044206080002060804F2060800020608054
:101A000061206080002060807920608000206080FC
:101A100088206080002060809720608000206080A7
:101A2000A620608000206080B72060800020608059
:101A3000C220608000206080C7206080002060801D
:101A4000D120608000206080D620608000206080EF
:101A5000DD20608000206080F320608000206080B6
:101A6000E32000E0F6E12080052060800020608017
:101A70000A206080002060801C2060800020608040
:101A800033206080002060804420608000206080DF
:101A90005020608000206080622060800020608094
:101AA0007820608000206080882060800020608036
:101AB0009720608000206080A620608000206080E9
:101AC000B720608000206080C2206080002060809D
:101AD000C720608000206080D1206080002060806E
:101AE000D520608000206080DD2060800020608044
:101AF000F320608000206080E4202080012060804E
:101B000000206080012060800020608002206080D2
:101B1000002060802A206080002060803C2060805F
:101B2000002060804B206080002060805D2060800D
:101B300000206080742060800020608084206080AD
:101B4000002060809320608000206080A220608060
:101B500000206080B320608000206080BE20608014
:101B600000206080C420608000206080CD206080E4
:101B700000206080D320608000206080DD206080B5
:101B800000206080F320608000206080E5202080BD
:101B90000020608060806080608002206080002083
:101BA000608029206080002060803C2060800020D0
:101BB00060804B206080002060805D20608000207D
:101BC000608074206080002060808420608000201D
:101BD00060809320608000206080A22060800020D0
:101BE0006080B320608000206080BE206080002084
:101BF0006080C420608000206080CD206080002054
:101C00006080D320608000206080DC206080002025
:101C10006080F320608000206080E620208011201A
:101C2000608000206080342060800020608056202A
:101C300060800020608076206080002060807720B7
:101C400060800020608066206080002060808820A6
:101C50006080002060809920608000206080BB2030
:101C60006080002060809920608000206080662075
:101C700060800020608055206080002060805520BA
:101C800060800020608045206080002060804320CC
:101C90006080002060804420608000206080E72019
:101CA00020803220608000206080552060800020ED
:101CB0006080762060800020608066206080002048
:101CC0006080672060800020608067206080002046
:101CD00060808720608000206080992060800020E4
:101CE0006080BB20608000206080992060800020A0
:101CF0006080772060800020608044206080002029
:101D0000608056206080002060802320608000205A
:101D1000608033206080002060804520608000204B
:101D20006080E820208000206080608099206080B2
:101D30000020608087206080002060808820608094
:101D400000206080772060800020608066206080B6
:101D5000002060808820608000206080AA20608051
:101D600000206080BB20608000206080992060801F
:101D700000206080662060800020608055206080A8
:101D800000206080552060800020608044206080BA
:101D900000206080442060800020608055206080AA
:101DA00000206080E9202080AA20608000206080E0
:101DB000608060802080AA206080CF20208000206A
:101DC0006080608060806080608060806080608013
:101DD0006080608060806080608060806080608003
:101DE0006080F020208000E032E000206080502001
:101DF00060800020608060806080F3202080002070
:101E00006080F920208006206080102060802920DA
:101E10006080002060803A20208055206080112062
:101E20002080642003F03AFC292020803520208087
:101E30000020608051202080FF206080532020807F
:101E40002C20608055202080822060802C20FDE3A3
:101E500090427CD14FF470435521184602F052FA5B
:101E60004FF20106AA21304602F04CFA771C5221AB
:101E7000384602F047FA4FF203080821404602F0C4
:101E800041FA4FF204090121484602F03BFA0D21C4
:101E90004FF4304002F036FA0D214BF2010002F00F
:101EA00031FA0D214BF2020002F02CFA4FF4364ABF
:101EB0003421504602F026FA34214BF2016002F040
:101EC00021FA34214BF2026002F01CFA4FF4314B3C
:101ED0000D21584602F016FA0D214BF2011002F0C6
:101EE00011FA0D214BF2021002F00CFA34214FF4DA
:101EF000374002F007FA34214BF2017002F002FA87
:101F000034214BF2027002F0FDF900214FF432400F
:101F100002F0F8F900214BF2012002F0F3F9002160
:101F20004BF2022002F0EEF924214FF4384002F087
:101F3000E9F924214BF6010002F0E4F924214BF6E3
:101F4000020002F0DFF901214FF43F4000E0FCE322
:101F500002F0D8F90F214FF4334002F0D3F90F21EA
:101F60004BF2013002F0CEF90F214BF2023002F0B9
:101F7000C9F934214FF4394002F0C4F934214BF649
:101F8000011002F0BFF934214BF6021002F0BAF949
:101F900008214FF4354002F0B5F908214BF2015009
:101FA00002F0B0F908214BF2025002F0ABF9032124
:101FB0004FF4424002F0A6F924214FF43A4002F0D7
:101FC000A1F924214BF6012002F09CF924214BF6C3
:101FD000022002F097F900214FF43C4002F092F900
:101FE00078214BF6014002F08DF900214BF60240BA
:101FF00002F088F900214FF43D4002F083F9782186
:102000004BF6015002F07EF900214BF6025002F02F
:1020100079F900214FF43E4002F074F964214BF647
:10202000016002F06FF900214FF4514002F06AF9AB
:1020300033214DF2011002F065F900214DF202103A
:1020400002F060F934214DF2031002F05BF9002137
:102050004DF2041002F056F93A214DF2051002F04B
:1020600051F900214DF2061002F04CF94A214DF2CF
:10207000071002F047F900214DF2081002F042F972
:102080005C214DF2091002F03DF900214DF20A10D9
:1020900002F038F981214DF20B1002F033F90021E2
:1020A0004DF20C1002F02EF9A6214DF20D1002F0A7
:1020B00029F900214DF20E1002F024F9E5214DF22C
:1020C0000F1002F01FF901214DF2101002F01AF961
:1020D00013214DF2111002F015F901214DF21210E9
:1020E00002F010F954214DF2131002F00BF9012106
:1020F0004DF2141002F006F982214DF2151002F093
:1021000001F901214DF2161002F0FCF8CA214DF23E
:10211000171002F0F7F802214DF2181002F0F2F851
:1021200000214DF2191002F0EDF802214DF21A10C3
:1021300002F0E8F801214DF21B1002F0E3F8022151
:102140004DF21C1002F0DEF834214DF21D1002F0A9
:10215000D9F802214DF21E1002F0D4F867214DF299
:102160001F1002F0CFF802214DF2201002F0CAF841
:1021700084214DF2211002F0C5F802214DF2221007
:1021800002F0C0F8A4214DF2231002F0BBF80221A6
:102190004DF2241002F0B6F8B7214DF2251002F0EE
:1021A000B1F802214DF2261002F0ACF8CF214DF229
:1021B000271002F0A7F802214DF2281002F0A2F831
:1021C000DE214DF2291002F09DF802214DF22A1075
:1021D00002F098F8F2214DF22B1002F093F8022150
:1021E0004DF22C1002F08EF8FE214DF22D1002F06F
:1021F00089F803214DF22E1002F084F810214DF2DF
:102200002F1002F07FF803214DF2301002F07AF81F
:1022100033214DF2311002F075F803214DF23210E6
:1022200002F070F86D214DF2331002F06BF80021CE
:102230004FF4524002F066F833214DF2012002F0D3
:1022400061F800214DF2022002F05CF834214DF2D9
:10225000032002F057F800214DF2042002F052F85A
:102260003A214DF2052002F04DF800214DF20620F2
:1022700002F048F84A214DF2072002F043F800210D
:102280004DF2082002F03EF85C214DF2092002F0E8
:1022900039F800214DF20A2002F034F881214DF284
:1022A0000B2002F02FF800214DF20C2002F02AF84A
:1022B000A6214DF20D2002F025F800214DF20E204E
:1022C00002F020F8E5214DF20F2002F01BF8012169
:1022D0004DF2102002F016F813214DF2112002F0F9
:1022E00011F801214DF2122002F00CF854214DF2A8
:1022F000132002F007F801214DF2142002F002F839
:1023000082214DF2152001F0FDFF01214DF2162032
:1023100001F0F8FFCA214DF2172001F0F3FF02216E
:102320004DF2182001F0EEFF00214DF2192001F0CE
:10233000E9FF02214DF21A2001F0E4FF01214DF2E4
:102340001B2001F0DFFF02214DF21C2001F0DAFF1B
:1023500034214DF21D2001F0D5FF02214DF21E2047
:1023600001F0D0FF67214DF21F2001F0CBFF0221C9
:102370004DF2202001F0C6FF84214DF2212001F012
:10238000C1FF02214DF2222001F0BCFFA4214DF239
:10239000232001F0B7FF02214DF2242001F0B2FF0B
:1023A000B7214DF2252001F0ADFF02214DF226208C
:1023B00001F0A8FFCF214DF2272001F0A3FF022159
:1023C0004DF2282001F09EFFDE214DF2292001F080
:1023D00099FF02214DF22A2001F094FFF2214DF2E3
:1023E0002B2001F08FFF02214DF22C2001F08AFFFB
:1023F000FE214DF22D2001F085FF03214DF22E200C
:1024000001F080FF10214DF22F2001F07BFF03210E
:102410004DF2302001F076FF33214DF2312001F0F2
:1024200071FF03214DF2322001F06CFF6D214DF25E
:10243000332001F067FF00214FF4534001F062FFA9
:1024400033214DF2013001F05DFF00214DF20230E9
:1024500001F058FF34214DF2033001F053FF002109
:102460004DF2043001F04EFF3A214DF2053001F0FB
:1024700049FF00214DF2063001F044FF4A214DF2A0
:10248000073001F03FFF00214DF2083001F03AFF24
:102490005C214DF2093001F035FF00214DF20A3088
:1024A00001F030FF81214DF20B3001F02BFF0021B4
:1024B0004DF20C3001F026FFA6214DF20D3001F057
:1024C00021FF00214DF20E3001F01CFFE5214DF2FD
:1024D0000F3001F017FF01214DF2103001F012FF13
:1024E00013214DF2113001F00DFF01214DF2123098
:1024F00001F008FF54214DF2133001F003FF0121D8
:102500004DF2143001F0FEFE82214DF2153001F043
:10251000F9FE01214DF2163001F0F4FECA214DF210
:10252000173001F0EFFE02214DF2183001F0EAFE03
:1025300000214DF2193001F0E5FE02214DF21A3072
:1025400001F0E0FE01214DF21B3001F0DBFE022123
:102550004DF21C3001F0D6FE34214DF21D3001F059
:10256000D1FE02214DF21E3001F0CCFE67214DF26A
:102570001F3001F0C7FE02214DF2203001F0C2FEF3
:1025800084214DF2213001F0BDFE02214DF22230B6
:1025900001F0B8FEA4214DF2233001F0B3FE022178
:1025A0004DF2243001F0AEFEB7214DF2253001F09E
:1025B000A9FE02214DF2263001F0A4FECF214DF2FA
:1025C000273001F09FFE02214DF2283001F09AFEE3
:1025D000DE214DF2293001F095FE02214DF22A3024
:1025E00001F090FEF2214DF22B3001F08BFE022122
:1025F0004DF22C3001F086FEFE214DF22D3001F01F
:1026000081FE03214DF22E3001F07CFE10214DF2AF
:102610002F3001F077FE03214DF2303001F072FED1
:1026200033214DF2313001F06DFE03214DF2323095
:1026300001F068FE6D214DF2333001F063FE0021A0
:102640004FF4544001F05EFE332100E080E34DF290
:10265000014001F057FE00214DF2024001F052FE10
:1026600034214DF2034001F04DFE00214DF20440B3
:1026700001F048FE3A214DF2054001F043FE0021F1
:102680004DF2064001F03EFE4A214DF2074001F0B6
:1026900039FE00214DF2084001F034FE5C214DF27C
:1026A000094001F02FFE00214DF20A4001F02AFE00
:1026B00081214DF20B4001F025FE00214DF20C402E
:1026C00001F020FEA6214DF20D4001F01BFE00217D
:1026D0004DF20E4001F016FEE5214DF20F4001F0E3
:1026E00011FE01214DF2104001F00CFE13214DF2BC
:1026F000114001F007FE01214DF2124001F002FEEF
:1027000054214DF2134001F0FDFD01214DF2144022
:1027100001F0F8FD82214DF2154001F0F3FD012199
:102720004DF2164001F0EEFDCA214DF2174001F0C6
:10273000E9FD02214DF2184001F0E4FD00214DF2C7
:10274000194001F0DFFD022100E003E34DF21A40E1
:1027500001F0D8FD01214DF21B4001F0D3FD022113
:102760004DF21C4001F0CEFD34214DF21D4001F030
:10277000C9FD02214DF21E4001F0C4FD67214DF25A
:102780001F4001F0BFFD02214DF2204001F0BAFDD3
:1027900084214DF2214001F0B5FD02214DF222408D
:1027A00001F0B0FDA4214DF2234001F0ABFD022168
:1027B0004DF2244001F0A6FDB7214DF2254001F075
:1027C000A1FD02214DF2264001F09CFDCF214DF2EA
:1027D000274001F097FD02214DF2284001F092FDC3
:1027E000DE214DF2294001F08DFD02214DF22A40FB
:1027F00001F088FDF2214DF22B4001F083FD022112
:102800004DF22C4001F07EFDFE214DF22D4001F0F5
:1028100079FD03214DF22E4001F074FD10214DF29F
:102820002F4001F06FFD03214DF2304001F06AFDB1
:1028300033214DF2314001F065FD03214DF232406C
:1028400001F060FD6D214DF2334001F05BFD002190
:102850004FF4554001F056FD33214DF2015001F087
:1028600051FD00214DF2025001F04CFD34214DF29A
:10287000035001F047FD00214DF2045001F042FDEC
:102880003A214DF2055001F03DFD00214DF2065078
:1028900001F038FD4A214DF2075001F033FD0021CF
:1028A0004DF2085001F02EFD5C214DF2095001F06F
:1028B00029FD00214DF20A5001F024FD81214DF245
:1028C0000B5001F01FFD00214DF20C5001F01AFDDC
:1028D000A6214DF20D5001F015FD00214DF20E50D4
:1028E00001F010FDE5214DF20F5001F00BFD01212B
:1028F0004DF2105001F006FD13214DF2115001F080
:1029000001FD01214DF2125001F0FCFC54214DF269
:10291000135001F0F7FC01214DF2145001F0F2FCCC
:1029200082214DF2155001F0EDFC01214DF21650BF
:1029300001F0E8FCCA214DF2175001F0E3FC02213E
:102940004DF2185001F0DEFC00214DF2195001F05B
:10295000D9FC02214DF21A5001F0D4FC01214DF2B4
:102960001B5001F0CFFC02214DF21C5001F0CAFCBB
:1029700034214DF21D5001F0C5FC02214DF21E50D4
:1029800001F0C0FC67214DF21F5001F0BBFC022199
:102990004DF2205001F0B6FC84214DF2215001F09F
:1029A000B1FC02214DF2225001F0ACFCA4214DF209
:1029B000235001F0A7FC02214DF2245001F0A2FCAB
:1029C000B7214DF2255001F09DFC02214DF2265019
:1029D00001F098FCCF214DF2275001F093FC022129
:1029E0004DF2285001F08EFCDE214DF2295001F00D
:1029F00089FC02214DF22A5001F084FCF2214DF2B3
:102A00002B5001F07FFC02214DF22C5001F07AFC9A
:102A1000FE214DF22D5001F075FC03214DF22E5098
:102A200001F070FC10214DF22F5001F06BFC0321DE
:102A30004DF2305001F066FC33214DF2315001F07F
:102A400061FC03214DF2325001F05CFC6D214DF22E
:102A5000335001F057FC00214FF4564001F052FC76
:102A600033214DF2016001F04DFC00214DF2026076
:102A700001F048FC34214DF2036001F043FC0021D9
:102A80004DF2046001F03EFC3A214DF2056001F088
:102A900039FC00214DF2066001F034FC4A214DF270
:102AA000076001F02FFC00214DF2086001F02AFCC4
:102AB0005C214DF2096001F025FC00214DF20A6015
:102AC00001F020FC81214DF20B6001F01BFC002184
:102AD0004DF20C6001F016FCA6214DF20D6001F0E4
:102AE00011FC00214DF20E6001F00CFCE5214DF2CD
:102AF0000F6001F007FC01214DF2106001F002FCB3
:102B000013214DF2116001F0FDFB01214DF2126025
:102B100001F0F8FB54214DF2136001F0F3FB0121A9
:102B20004DF2146001F0EEFB82214DF2156001F0D0
:102B3000E9FB01214DF2166001F0E4FBCA214DF2E0
:102B4000176001F0DFFB02214DF2186001F0DAFBA3
:102B500000214DF2196001F0D5FB02214DF21A60FF
:102B600001F0D0FB01214DF21B6001F0CBFB0221F3
:102B70004DF21C6001F0C6FB34214DF21D6001F0E6
:102B8000C1FB02214DF21E6001F0BCFB67214DF23A
:102B90001F6001F0B7FB02214DF2206001F0B2FB93
:102BA00084214DF2216001F0ADFB02214DF2226043
:102BB00001F0A8FBA4214DF2236001F0A3FB022148
:102BC0004DF2246001F09EFBB7214DF2256001F02B
:102BD00099FB02214DF2266001F094FBCF214DF2CA
:102BE000276001F08FFB02214DF2286001F08AFB83
:102BF000DE214DF2296001F085FB02214DF22A60B1
:102C000001F080FBF2214DF22B6001F07BFB0221F1
:102C10004DF22C6001F076FBFE214DF22D6001F0AB
:102C200071FB03214DF22E6001F06CFB10214DF27F
:102C30002F6001F067FB03214DF2306001F062FB71
:102C400033214DF2316001F05DFB03214DF2326022
:102C500001F058FB6D214DF2336001F053FB55211B
:102C6000184601F04FFBAA21304601F04BFB5221E0
:102C7000384601F047FB0821404601F043FB0021A4
:102C8000484601F03FFBCC21584601F03BFB0021B8
:102C90004BF2011001F036FB0521504601F032FBEA
:102CA00070214FF4374001F02DFB70214BF2017081
:102CB00001F028FB01214FF4384001F023FB0321F0
:102CC0004BF6010001F01EFB03214BF6020001F060
:102CD00019FB03214BF6030001F014FB02214FF412
:102CE0003C4001F00FFB00214BF6014001F00AFBD4
:102CF00000214BF6024001F005FBD0214FF4494082
:102D000001F000FB02214CF6011001F0FBFA50210A
:102D10004CF6021001F0F6FA50214CF6031001F0C7
:102D2000F1FA50214CF6041001F0ECFA00214FF4B6
:102D3000545001F0E7FA55214FF4685001F0E2FADF
:102D40004FF488502080782002F0C2FC4FF42450C9
:102D50002080FDE3A0F513414FF4E06740F2022923
:102D600040F23F1A4FF4274825392FD0FE1DA0F519
:102D7000134128397ED0A0F513414FF4887B4FF4DE
:102D80001C58203977D0A0F51341313974D0A0F503
:102D9000A841083971D0A0F5A8514FF4407B0539FE
:102DA0006CD0A0F53541053969D0A0F5454105390C
:102DB00066D0A0F58A4131397ED0A0F58A413539F7
:102DC0007BD0A0F5C851633978D0C2E747F6F0014F
:102DD000E52001F097FA4FF48071012001F092FA9A
:102DE0003946022001F08EFA41F23001032001F051
:102DF00089FA0021042001F085FA4946082001F0F3
:102E000081FA0021092001F07DFA00210A2001F059
:102E100079FA00210C2001F075FA00210D2001F053
:102E200071FA00210F2001F06DFA0021102001F04D
:102E300069FA0721112001F065FA0021122001F042
:102E400061FA0021132001F05DFA0021072001F052
:102E500059FA41F29061102001F054FA40F2272112
:102E6000112001F04FFA9D21122001F04BFA4FF48E
:102E7000C85106E082E03AE1DEE1B3E24EE3FDE371
:102E8000FDE3132001F03EFA2521292001F03AFA52
:102E90000D212B2001F036FA0721302001F032FA03
:102EA00040F20331312001F02DFA0321322001F0EC
:102EB00029FA40F2062102E0FDE3FDE3FDE33520BF
:102EC00001F020FA0821362001F01CFA40F20641F8
:102ED000372001F017FA4FF44171382001F012FA4F
:102EE0000721392001F00EFA40F202613C2001F086
:102EF00009FA08213D2001F005FA0021502001F0D7
:102F000001FAEF21512001F0FDF90021522001F0DA
:102F1000F9F95146532001F0F5F94146602001F0DE
:102F2000F1F90121612001F0EDF900216A2001F0A1
:102F3000E9F90021802001F0E5F90021812001F06C
:102F4000E1F90021822001F0DDF90021832001F068
:102F5000D9F90021842001F0D5F90021852001F064
:102F6000D1F91021902001F0CDF94FF4C0619220E9
:102F700001F0C8F940F233110720FDE341F28F015F
:102F8000EC2001F0BFF941F23421EF2001F0BAF951
:102F90004FF48071012001F0B5F93946022001F0AB
:102FA000B1F941F23001032001F0ACF90021042015
:102FB00001F0A8F94946082001F0A4F900210920F0
:102FC00001F0A0F900210A2001F09CF901210C2058
:102FD00001F098F900210D2001F094F900210F2053
:102FE00001F090F90021102001F08CF90721112047
:102FF00001F088F90021122001F084F9002113204A
:1030000001F080F90121072001F07CF9322002F063
:1030100045FB41F29041102001F074F940F2272164
:10302000112001F06FF9322002F038FB8A211220C2
:1030300001F068F9322002F031FB4FF4D051132037
:1030400001F060F90621292001F05CF90D212B2007
:1030500001F058F9322002F021FB0021202001F07C
:1030600051F90021212001F04DF9322002F016FB28
:103070000021302001F046F940F20461312001F0D6
:1030800041F940F20531322001F03CF900213520B0
:1030900001F038F940F60941362001F033F94FF4D8
:1030A0000171372001F02EF940F20131382001F092
:1030B00029F93146392001F025F900213C2001F0A1
:1030C00021F940F60A213D2001F01CF9322002F0DE
:1030D000E5FA0021502001F015F9EF21512001F00F
:1030E00011F90021522001F00DF951464BE1002168
:1030F000084601F007F94FF48071012001F002F950
:103100003946022001F0FEF841F23001032001F0BF
:10311000F9F80021042001F0F5F84946082001F0F3
:10312000F1F80021092001F0EDF800210A2001F05A
:10313000E9F801210C2001F0E5F800210D2001F053
:10314000E1F800210F2001F0DDF8322002F0A6FAAC
:1031500040F20111072001F0D5F8322002F09EFA6A
:103160004FF48651102001F0CDF80721112001F015
:10317000C9F85B465946122001F0C4F84FF430619B
:10318000132001F0BFF80021292001F0BBF844F220
:1031900010012B2001F0B6F80021502001F0B2F808
:1031A000EF21512001F0AEF80021522001F0AAF8E1
:1031B0005146532001F0A6F84146602001F0A2F8E4
:1031C0000121612001F09EF800216A2001F09AF8A7
:1031D0000021802001F096F80021812001F092F872
:1031E0000021822001F08EF80021832001F08AF86E
:1031F0000021842001F086F80021852001F082F86A
:103200001021902001F07EF80021922001F07AF840
:103210000121932001F076F81946952001F072F80B
:103220000021972001F06EF80021982001F06AF843
:1032300040F27311072081E341F21401E72001F00D
:1032400061F84FF48071012001F05CF84FF40071D7
:10325000022001F057F841F23801032001F052F842
:103260004946082001F04EF80021092001F04AF8F3
:1032700000210A2001F046F800210C2001F042F85C
:1032800000210D2001F03EF800210F2001F03AF856
:103290000021102001F036F80721112001F032F84A
:1032A0000021122001F02EF80021132001F02AF84D
:1032B000C82002F0F3F941F29061102001F022F8E9
:1032C00040F22721112001F01DF8322002F0E6F92A
:1032D0000C21122001F016F8322002F0DFF94FF431
:1032E0000061132001F00EF81121292001F00AF8E5
:1032F0000B212B2001F006F8322002F0CFF900213B
:10330000202000F0FFFF53465146212000F0FAFF35
:103310000021302000F0F6FF4FF483742146312065
:1033200000F0F0FF0021322000F0ECFF4FF40171BB
:10333000352000F0E7FF41F20A61362000F0E2FF9D
:103340003146372000F0DEFF2146382000F0DAFF5A
:103350003146392000F0D6FF40F202413C2000F017
:10336000D1FF40F60F413D2000F0CCFF002150205E
:1033700000F0C8FFEF21512000F0C4FF00215220CF
:1033800000F0C0FF1946532000F0BCFF414660200A
:1033900000F0B8FF0121612000F0B4FF00216A2095
:1033A00000F0B0FF0021802000F0ACFF0021812060
:1033B00000F0A8FF0021822000F0A4FF002183205C
:1033C00000F0A0FF0021842000F09CFF0021852058
:1033D00000F098FF1021902000F094FF4FF4C0619E
:1033E0009220FDE34FF48071012000F08BFF3946FD
:1033F000022000F087FF41F23001032000F082FF3D
:103400000021042000F07EFF40F20721082000F098
:1034100079FF0021092000F075FF00210A2000F04B
:1034200071FF00210C2000F06DFF00210D2000F045
:1034300069FF00210F2000F065FF142002F02EF933
:1034400041F2B061102000F05DFF0121112000F079
:1034500059FF0121172000F055FF4FF49C711220F5
:1034600000F050FF4FF40061132000F04BFF0921E2
:10347000292000F047FF09212A2000F043FF002106
:10348000A42000F03FFF0021502000F03BFFEF217F
:10349000512000F037FF0021522000F033FF514649
:1034A000532000F02FFF4146602000F02BFF012148
:1034B000612000F027FF00216A2000F023FF002197
:1034C000802000F01FFF0021812000F01BFF002161
:1034D000822000F017FF0021832000F013FF00215D
:1034E000842000F00FFF0021852000F00BFF132146
:1034F000902000F007FF0021922000F003FF03213D
:10350000932000F0FFFE5946952000F0FBFE40F2AC
:103510007311072000F0F6FE32200FE10021072092
:1035200000F0F0FE322002F0B9F84FF48E71122054
:1035300000F0E8FE0121A42000F0E4FE0F210820A5
:1035400000F0E0FE08210A2000F0DCFE082100E087
:1035500075E30D2000F0D6FE3146302000F0D2FE9B
:103560000721312000F0CEFE40F20361322000F04E
:10357000C9FE3946332000F0C5FE4946342000F02C
:10358000C1FE0221352000F0BDFE41F60F7136204C
:1035900000F0B8FE3146372000F0B4FE002138209C
:1035A00000F0B0FE0021392000F0ACFE31463A2098
:1035B00000F0A8FE00213B2000F0A4FE07213C20E3
:1035C00000F0A0FE00213D2000F09CFE322002F021
:1035D00065F80121072000F095FE0121172000F079
:1035E00091FE322002F05AF84FF4BD51102000F045
:1035F00089FE40F21721112000F084FE4FF48F71F4
:10360000122000F07FFE4FF47061132000F07AFE6C
:1036100000212A2000F076FE0A21292000F072FE07
:103620004FF49F71122000F06DFE0021502000F039
:1036300069FEEF21512000F065FE0021522000F0CC
:1036400061FE5146532000F05DFE4146602000F0CF
:1036500059FE0121612000F055FE00216A2000F092
:1036600051FE0021802000F04DFE0021812000F05D
:1036700049FE0021822000F045FE01E061E05EE1AC
:103680000021832000F03EFE0021842000F03AFE5D
:103690000021852000F036FE1321902000F032FE3C
:1036A0005946922000F02EFE0521932000F02AFEBC
:1036B0000021952002E00BE2C2E26AE300F022FE64
:1036C0000021972000F01EFE0021982000F01AFE35
:1036D0004FF48071012000F015FE3946022000F001
:1036E00011FE41F23801032000F00CFE00210420FD
:1036F00000F008FE00210C2000F004FE00210F2045
:1037000000F000FE0021202000F0FCFD002121201F
:1037100000F0F8FD2121072000F0F4FD142001F055
:10372000BDFF6121072000F0EDFD142001F0B6FF80
:1037300040F27311072000F0E5FD142001F0AEFF08
:10374000A1E30021084600F0DDFD0021084600F05D
:10375000D9FD0021084600F0D5FD0021084600F003
:10376000D1FD0121A42000F0CDFD142001F096FF31
:1037700044464146602000E0DCE000F0C3FD4E46D8
:103780004946082000F0BEFD4FF40571302000F0DE
:10379000B9FD43F21571312000F0B4FD40F204612F
:1037A000322000F0AFFD40F61661332000F0AAFD94
:1037B00042F21121342000F0A5FD4FF4A85135202C
:1037C00000F0A0FD48F20751362000F09BFD41F2C9
:1037D0000741372000F096FD41F20341382000F008
:1037E00091FD2021392000F08DFD1A21902000F05C
:1037F00089FD0021102000F085FD0721112000F037
:1038000081FD0021122000F07DFD0021132000F039
:1038100079FD142001F042FF4FF4E661102000F022
:1038200071FD40F23711112000F06CFD142001F001
:1038300035FF4FF4DC71122000F064FD142001F01C
:103840002DFF4FF47061132000F05CFD80212A20D1
:1038500000F058FD4821292000F054FD142001F00B
:103860001DFF4FF48071012000F04CFD394602200D
:1038700000F048FD41F23801032000F043FD3146DD
:10388000082000F03FFD00210A2000F03BFD002150
:103890000C2000F037FD00210D2000F033FD302119
:1038A0000E2000F02FFD0021502000F02BFDEF2115
:1038B000512000F027FD0021522000F023FD514649
:1038C000532000F01FFD2146602000F01BFD012168
:1038D000612000F017FD00216A2000F013FD112186
:1038E000902000F00FFD4FF4C061922000F00AFD1F
:1038F00040F20241932000F005FD0221942000F0E7
:1039000001FD142001F0CAFE0121072000F0FAFC9D
:10391000142001F0C3FE6121072000F0F3FC40F207
:103920007311072000F0EEFC0021202000F0EAFCDB
:103930000021212000F0E6FC222100207DE1002171
:10394000084600F0DFFC0021084600F0DBFC1420F4
:1039500001F0A4FE0021084600F0D4FC0021084636
:1039600000F0D0FC0021084600F0CCFC0021084605
:1039700000F0C8FC0121A42000F0C4FC142001F0D8
:103980008DFE4146602000F0BDFC40F60601082097
:1039900000F0B8FC40F203731946302000F0B2FC8E
:1039A0000121312000F0AEFC0421322000F0AAFCFD
:1039B0004FF48171332000F0A5FC5C465946342059
:1039C00000F0A0FC40F20311352000F09BFC1F2109
:1039D000362000F097FC1946372000F093FC0121B7
:1039E000382000F08FFC0421392000F08BFC1521D9
:1039F000902000F087FC4FF48261102000F082FCE0
:103A000040F24721112000F07DFC4FF4DE711220BE
:103A100000F078FC4FF46061132000F073FC782014
:103A200001F03CFE4FF480763146012000F06AFC44
:103A30007100022000F066FC41F23001032000F02A
:103A400061FC08210A2000F05DFC00210C2000F040
:103A500059FC20210E2000F055FC00210F2000F021
:103A600051FC0021202000F04DFC0021212000F01D
:103A700049FC3D212A2000F045FC142001F00EFEF7
:103A80002D21292000F03EFC0021502000F03AFCBE
:103A90004DF2EF01512000F035FC0021522000F0E2
:103AA00031FC5146532000F02DFC0021612000F034
:103AB00029FC00216A2000F025FC2146922000F01C
:103AC00021FC0521932000F01DFC3146FFF7B2BB1D
:103AD0000121002000F016FC0A2001F0DFFD41F278
:103AE0002861102000F00EFC0E21122000F00AFCCC
:103AF00040F63921132000F005FC0A2001F0CEFD2C
:103B00004021112000F0FEFB5021152000F0FAFBAF
:103B10000A2001F0C3FD1E21122000F0F3FB0A2051
:103B200001F0BCFD4FF4B151102000F0EBFB42F668
:103B30003921132000F0E6FB0A2001F0AFFD4FF41D
:103B400080731946012000F0DDFB5946022000F089
:103B5000D9FB41F23801032000F0D4FB494608208C
:103B600000F0D0FB08210A2000F0CCFB002130201F
:103B700000F0C8FB40F20241312000F0C3FB4FF4DB
:103B80008371322000F0BEFB40F20351332000F07D
:103B9000B9FB4FF48271342000F0B4FB40F20131E4
:103BA000352000F0AFFB3146362000F0ABFB40F291
:103BB0000531372000F0A6FB4FF40271382000F0E9
:103BC000A1FB40F60B71392000F09CFB0221412043
:103BD00000F098FB4146602000F094FB012100E0DA
:103BE000D2E0612000F08EFB4FF40471902000F0D1
:103BF00089FB4FF48571922000F084FB042193200F
:103C000000F080FB1946A02000F07CFB012107207A
:103C100000F078FB2121072000F074FB232107200E
:103C200000F070FB3321072000F06CFB40F23311F1
:103C3000072000F067FB0021A02000F063FB22E1D9
:103C40003021152000F05EFB10219A2000F05AFB75
:103C50002021112000F056FB43F22841102000F0F3
:103C600051FB0221122000F04DFB41F238011320DC
:103C700000F048FB282001F011FD1221084600F059
:103C800041FB282001F00AFD43F22041102000F002
:103C900039FB43F23801132000F034FB462001F0D9
:103CA000FDFC0021302000F02DFB40F202413120CC
:103CB00000F028FB40F20731322000F023FB4FF4E4
:103CC0004171332000F01EFB0421342000F01AFB68
:103CD00040F20141352000F015FB3146362000F05E
:103CE00011FB40F20531372000F00CFB4FF4C263AA
:103CF0001946382000F006FB1946392000F002FB77
:103D00004FF480731946012000F0FCFA5946022056
:103D100000F0F8FA41F23001032000F0F3FA40F627
:103D20000801082000F0EEFA08210A2000F0EAFA63
:103D30004146602000F0E6FA0121612000F0E2FA3D
:103D40004FF49F71902000F0DDFA1946922000F0A8
:103D5000D9FA1946932000F0D5FA4FF44051A0202B
:103D600000F0D0FA1021A32000F0CCFA01210720A6
:103D700000F0C8FA2121072000F0C4FA232107200F
:103D800000F0C0FA3321072000F0BCFA40F23311F2
:103D90009CE6E22020801D206080022060800420BC
:103DA0006080642001F094FCE0202080012060808D
:103DB0000A2001F073FCE0202080032060800C20AA
:103DC00001F06CFC012020800A2001F067FCE62055
:103DD00020802F206080FF2060806080B0202080C5
:103DE00020206080002060800320608040F21F302F
:103DF00060800120608040F2DF10608000206080E1
:103E0000B42020800420608040F21F4060800020A9
:103E100060802E20608000206080608060806080F4
:103E2000B6202080022060804FF403706080002064
:103E30006080172060801520608000206080608096
:103E4000F02020800320608029202080D020208046
:103E500000206080BE20208005206080FE206080E1
:103E6000012060800020608060806080B820208019
:103E70000320608001206080BA20208001206080C3
:103E8000642000F01DF80020FCF712FF2846FCF724
:103E9000D9FE1BB0BDE8F08F08B54FF0C040408898
:103EA000ADF80000BDF8000008BD10B54FF0C041EE
:103EB0000880052001F00CFCBDE81040FFF7ECBFC6
:103EC00010B54FF0C044BE21218005216180FCF770
:103ED000F6F94FF06632074BFCF77FF9FCF7FCF977
:103EE000608001206080FF20608000206080608012
:103EF00010BD000066660440F0B5674E00233146F1
:103F0000B279898846F6040741F66314012A01D084
:103F10002AB11DE0B9421BD0A14202D118E0A14252
:103F200016D1082814D2DFE800F00406080A0C0EA7
:103F3000101206200CE007200AE0042008E005200B
:103F400006E0012004E0002002E0032000E002205F
:103F5000A1F5134C45F2103245F21055BCF1410C5D
:103F600007D0B94205D0914203D0A94201D0A14265
:103F700075D1082812D2DFE800F0110406080A0CF7
:103F80000E1080230AE0402308E0C02306E020232F
:103F900004E0602302E0A02300E0E023A94202D174
:103FA0004FF4585000E03620914205D0A94203D08A
:103FB000A14201D043F00803B94201D143F002030A
:103FC000194600F09FF9B288A2420AD098063088BC
:103FD000718802D5884202D303E0884201D931803A
:103FE00070804FF0C0407189AA42018021D1002227
:103FF00042804A1C0280002242808A1C0280328851
:10400000521E130A4380C91C0180D1B24180B1897C
:104010000180002242804A1C0280002242808A1CC9
:1040200002807288521E130A4380C91C0180D1B2DB
:1040300012E00021418041803188491E0A0A4280F5
:10404000C9B24180B18901800021418041807188DD
:10405000491E0A0A4280C9B24180F0BDFFE7082824
:1040600012D2DFE800F0040608110A0C0E1030230B
:104070000AE0102308E0202306E0382304E0282388
:1040800002E0182300E00823BDE8F040032043F4D9
:10409000805100F037B90000340000202DE9F04FC6
:1040A0004B4F0B463A46BD880C0A91895289A5F5BB
:1040B00013464FEA102C4FF0C04A413E1DD0A5F5E3
:1040C000A646103E19D03E46BB4696F80690368866
:1040D000A5F5D047A6EB0008A8F10108043F12D0CF
:1040E000A5F5C857633F21D0A5F5AA475E46103F06
:1040F0004ED0B9F1010F5ED05FE05546AAF800201E
:10410000AAF802C00AE0B9F1010F01D11FFA88F044
:104110005546AAF80020020AAAF80220C0B2688018
:1041200029806C80D8B26880BDE8F08FB9F1000FAB
:104130001ED0AAF80020AAF802C0C0B2AAF8020055
:10414000761E300AAAF80200F0B2AAF80200AAF815
:104150000010AAF80240D9B2AAF80210BBF8021067
:10416000491E0A0AAAF80220C9B2AAF80210DBE71F
:104170001FFA88F5AAF800200022AAF80220AAF85F
:1041800002202A0AAAF80220EAB2AAF80220DEE7F0
:104190005546AAF80020AAF802C0521CAAF800202E
:1041A000C0B2AAF80200AAF80010AAF80240491CFE
:1041B000AAF80010B6E71FFA88F00146104600F092
:1041C000A1F8B089BDE8F04F194600F09BB8000097
:1041D000340000202DE9F84F82461F460C468B46DE
:1041E000580700D0012000EBD70079084843203A57
:1041F000C0B202F0FF090026009041E00C2F10D061
:10420000102F12D0182F3ED1204909EBC90001EB25
:1042100080004FF00008855D28060AD51C480288FA
:104220000BE009EB49001B49F1E71B4901EB0910C1
:10423000EFE70A9828B94FF6FF7221465046FCF77F
:1042400027FE6806050E1548641CA4B24088A042EB
:1042500019D9A4EB0B00B84209D10AF101001FFAE9
:1042600080FA0E485C46018851450CD906E008F1F9
:10427000010000F0FF08B8F1080FCDD3761CF6B2AC
:1042800000988642BAD3BDE8F88F00005C6A00004F
:1042900008000020F85F00006C640000340000207B
:1042A0002DE9F84F044600F0FF0810190D46DDE92E
:1042B0000A761FFA80FA58191FFA80F94FF0000B9E
:1042C00011E0544502D3E819444685B24D450FD25A
:1042D0003B4629462046CDF800B0FFF77BFF04EBB4
:1042E000570084B2761C3278A2F120005E28E8D90B
:1042F000BDE8F88F02484FF0C04100890880704740
:10430000340000204FF0C042108051807047FEE71B
:1043100000F01F02012191404009800000F1E020DF
:10432000C0F80011704730B500F00703C3F107046F
:10433000042C00D90424181D072801D2002300E012
:10434000DB1E012505FA04F0401E084098409D4000
:104350006D1E1540284330BD0907090E002806DAF6
:1043600000F00F0000F1E02080F8141D704700F10C
:10437000E02080F80014704770470000F0B50A4F45
:10438000D7F80441D7F80851D7F80C6184438D431E
:10439000964313B104430D431643C7F80441C7F8CD
:1043A0000851C7F80C61F0BD0080084070B50446A4
:1043B000C1B24FF08045284600F0FAFB4021284664
:1043C00000F0C2FB0028F9D0204670BD70474FF0C6
:1043D000E0210428086903D020F004000861704738
:1043E00040F00400FAE7704714480121C0F80013B8
:1043F000134AC2F8A810D2F80831002BFBD00023D2
:1044000013624FF010638361C2F8A410D2F8043134
:10441000002BFBD00B4AD2F8003223F00703DB1C41
:10442000C2F800320162426822F00302521C42606C
:10443000426BB1EB927FFBD17047000000800840D7
:10444000000010430000084010B501218C072046F1
:1044500000F07AFB00280FD0204600F09CFB1349A7
:10446000C0B20A88120407D40A8853044FF000022D
:1044700007D50A2801D00A8010BD088840F4004002
:1044800011E00D280CD00B88094CC3F30D03E05448
:104490000888401C08800888B0F5487FEBD210BD22
:1044A000088840F48040088010BD00000E00002005
:1044B000420000202DE9FC5FFD4E0121304600F056
:1044C00043FBFC4CFC4D4FF0000928B3304600F094
:1044D00062FB2188C0B209041CD42188490407D595
:1044E0000A2801D0484614E0208840F4004010E03B
:1044F0000D280BD02188C1F30D0168542088401C81
:1045000020802088B0F5487FECD203E0208840F47A
:104510008040208000F0ACFB2088000474D5208807
:10452000A346C6B200244FF080470BE0295D384611
:1045300000F03EFB4021384600F006FB0128F9D18F
:10454000641CE4B2B442F1D328782B287DD1012039
:1045500001E0401CC0B2295C3A29FAD129188978B7
:104560007A29F3D1401DC4B20020D44F06E039545B
:1045700003281FD0641C401CE4B2C0B2295D2A2964
:10458000F5D11026CEA0CDE900603346E6226921A0
:104590004F20FFF785FE1023E62269214F20CDE949
:1045A0000067FFF77DFE0020641CE4B2C94F0CE0F9
:1045B000641CE4B2285D2A28FAD1E2E739540428C1
:1045C0001ED0641C401CE4B2C0B2295D2A29F5D17A
:1045D000C1A0CDE900601023E6227D214F20FFF726
:1045E0005FFE1023E6227D214F20CDE90067FFF713
:1045F00057FE0020641CE4B2BC4F0DE0641CE4B222
:10460000285D2A28FAD1E3E76DE2395404281FD047
:10461000641C401CE4B2C0B2295D2A29F5D1B4A0C3
:10462000CDE900601023E62291214F20FFF738FEEC
:104630001023E62291214F20CDE90067FFF730FEDD
:104640000020641CE4B2AF4F0DE024E2641CE4B22D
:10465000285D2A28FAD1E2E7395404281ED0641CC8
:10466000401CE4B2C0B2295D2A29F5D19AA0CDE957
:1046700000601023E622A5214F20FFF711FE102332
:10468000E622A5214F20CDE90067FFF709FE0020B3
:10469000641CE4B29C4F0CE0641CE4B2285D2A2840
:1046A000FAD1E3E7395402281ED0641C401CE4B25E
:1046B000C0B2295D2A29F5D187A0CDE90060102379
:1046C000E622B9214F20FFF7EBFD1023E622B921A6
:1046D0004F20CDE90067FFF7E3FD0020641CE4B242
:1046E0008A4F0CE0641CE4B2285D2A28FAD1E3E783
:1046F000395402281ED0641C401CE4B2C0B2295DAB
:104700002A29F5D174A0CDE900601023E622CD213D
:104710004F20FFF7C5FD1023E622CD214F20CDE924
:104720000067FFF7BDFD641CE4B2AA46285D07E000
:10473000641CE4B2285D2A28FAD1E3E7641CE4B2E1
:104740001AF804102A29F9D1714D4FF478474FF027
:104750001F08312806D0322807D0332807D0342844
:104760000FD01AE02F806BA00DE06DA000E06EA0CE
:10477000CDE900601023E62269217F20FFF790FD3C
:104780000BE02F806CA0CDE900601023E6226921A8
:104790007F20FFF785FDA5F80080641CE4B21AF8BD
:1047A000040001E0641CE4B21AF804102A29F9D1CB
:1047B000312804D0322805D033280DD018E02F80BE
:1047C00060A00BE061A0CDE900601023E6227D210E
:1047D0007F20FFF765FD0BE02F805EA0CDE9006034
:1047E0001023E6227D217F20FFF75AFDA5F80080E7
:1047F000641CE4B21AF8040001E0641CE4B21AF884
:1048000004102A29F9D1312804D0322805D03328C0
:104810000DD018E02F8051A00BE04CA0CDE9006036
:104820001023E62291217F20FFF73AFD0BE02F8035
:104830004CA0CDE900601023E62291217F20FFF7F4
:104840002FFDA5F80080641CE4B21AF8040001E012
:10485000641CE4B21AF804102A29F9D1312806D0D0
:10486000322807D033280FD0342810D01BE02F80F7
:104870003EA00EE035A0CDE900601023E622A52180
:104880007F20FFF70DFD0EE02F803AA001E02F8082
:104890003BA0CDE900601023E622A5217F20FFF791
:1048A000FFFCA5F80080641CE4B21AF804006FE075
:1048B0000000044010000020A20900201300002086
:1048C00020202020202020202020202020202020E8
:1048D0002000000017000020202020202020202081
:1048E0002020202020202020202020001C0000202C
:1048F00020202020202020202020202020202020B8
:104900002020000021000020260000202A00002096
:104910000800002076657279206C69676874210050
:10492000676F6F64000000006C6974746C652064CC
:1049300061726B21000000007665727920646172FB
:104940006B210000686F742100000000676F6F64C6
:1049500021000000636F6C64210000007765742102
:104960000000000064727921000000006869676837
:10497000210000006E6F74207765617221000000D5
:104980006C6F77206665766572210000641CE4B266
:104990001AF804102A29F9D1312806D0322807D074
:1049A000332810D0342811D01DE02F804FA010E004
:1049B000AFF26800CDE900601023E622B9217F2024
:1049C000FFF76EFC0FE02F804AA002E02F80AFF2CD
:1049D0005C00CDE900601023E622B9217F20FFF7BB
:1049E0005FFCA5F80080641CE4B21AF8040001E042
:1049F000641CE4B21AF804102A29F9D1312804D031
:104A0000322805D033280ED01AE02F8037A00DE0D1
:104A1000AFF2C800CDE900601023E622CD217F204F
:104A2000FFF73EFC0CE02F80AFF2B800CDE900604C
:104A30001023E622CD217F20FFF732FCA5F800806D
:104A4000641CE0B254461AF8001001E0401CC0B2E9
:104A5000225C242AFAD1312902D030290FD017E064
:104A60002F80FBF7D7FE25A0CDE900601023E622BA
:104A7000E1210F20FFF714FCA5F8008008E024A036
:104A8000CDE900601023E622E1210F20FFF708FCAA
:104A900024486179017024480078012801D1ABF8DD
:104AA0000090204801783039017014211F48FBF72D
:104AB00074FB1F49C1F800901E49A1F8009081F8CD
:104AC00002901D49A1F8009081F802901B49A1F8BD
:104AD00000901B49A1F8009081F802901949A1F8B3
:104AE000009081F80290BDE8FC9F00006C6F772178
:104AF0000000000068696768000000007061746968
:104B0000656E7420696E2064616E676572210000B5
:104B100070617469656E7420697320676F6F6420BB
:104B2000202100002D00002012000020A2090020FA
:104B300013000020170000201C000020210000208E
:104B4000260000202A0000208069084000D00120B3
:104B5000704770B505460C46C88889882A6908439D
:104B6000218922F01F02114308432861686A618984
:104B700020F0030008436862FBF7A8FE2168B0FB41
:104B8000F1F0A86370BD002A426801D00A4300E03A
:104B90008A4342607047006880B270470029C1684C
:104BA00002D041F4007101E021F40071C16070474E
:104BB000016070470029C16802D041F4807101E0B2
:104BC00021F48071C1607047FEE7000005490028AC
:104BD000486802D040F4803001E020F48030486022
:104BE000704700000080064000201022012301468B
:104BF000FFF7C4BB70B54FF4802001115022012390
:104C0000FBF76CFE4FF40074002221460220FBF7F4
:104C1000ABFD0F4D012221462846FBF7DFFFFFF7D2
:104C2000E3FF4FF4E04000F02BF840F6FF6000F0A7
:104C300031F8012000F00EF80120FFF7C7FF00F067
:104C400017F821462846BDE870400122FBF7F4BF63
:104C500000400B4005490028486802D040F400504D
:104C600001E020F4005048607047000000800640DA
:104C700002490148086070470100A05F00800640BB
:104C800003498A68C2F30B0202438A60704700003E
:104C90000080064003494A6802F4704202434A60B9
:104CA0007047000000800640014A024900F0E8B861
:104CB000055700000400002037B514460846064B8F
:104CC0006A46214600F0EEF804466946002000F0EE
:104CD00080FC20463EBD0000D355000002E008C81D
:104CE000121F08C1002AFAD170477047002001E066
:104CF00001C1121F002AFBD1704700002DE9FF5FA0
:104D000082B00021DDE90430020DDDF840B003433C
:104D100018D044F61050A2F2FF32424315141198F5
:104D200001281FD0A5EB0B00401C5FEA000A4FF0E2
:104D300000064E4FDFF83891B046504615D5CAF1FF
:104D4000000413E0119801244AA3012801D16FEA5D
:104D50000B010298119AC0E90031C0E9024206B085
:104D6000BDE8F09FCBF10000DFE704460021404A98
:104D7000491842EB0450CDE9001012E0E00707D0DB
:104D800032463B4640464946FBF727FA804689466D
:104D900032463B4610461946FBF71FFA06460F46B9
:104DA0006410002CEAD1DDE90401DDE90023BAF149
:104DB000000F06DAFBF711FA42464B46FBF70DFAF5
:104DC00005E0FBF7FDFB42464B46FBF7F9FB0446CB
:104DD0000E460022284BFBF77BFC03D84FF0FF3038
:104DE000014607E00022254B20463146FBF741FBF8
:104DF000FBF755FC102409E0002C0ADB0A220023F3
:104E0000FBF799FA039B30321A55641E50EA0102EF
:104E1000F2D1641C039AC4F111031444119A012ABB
:104E200003D0012208430DD10AE0084304D000203A
:104E30004FF0110B119072E7A3EB0B056D1E0DE007
:104E40005B4504DD4FF0000205F1010504E003DAE3
:104E50004FF00002A5F10105002AECD0029811994B
:104E6000C0E90231C0E9004579E7000000001440C4
:104E70000000F03F300000000000F0430000E03F81
:104E80002DE9F04116460F460446002503E0394659
:104E9000B047641C6D1C20780028F8D12846BDE876
:104EA000F08100002DE9FF4F95B09B4689460646EC
:104EB00000250FE2252877D100242746F84A012152
:104EC000059400E0044316F8013F203B01FA03F08B
:104ED0001042F7D130782A2811D06FF02F033078A4
:104EE000A0F13002092A16D8059A44F0020402EB18
:104EF000820203EB42021044761C0590EFE759F85A
:104F0000042B0592002A03DA504244F40054059021
:104F100044F00204761C30782E2816D116F8010FC2
:104F200044F004042A280DD06FF02F023078A0F14D
:104F30003003092B09D807EB870302EB4303C7189B
:104F4000761CF3E759F8047B761C30786C280FD078
:104F500006DC4C2817D068280DD06A2814D104E04C
:104F6000742810D07A280FD10DE044F400140AE020
:104F700044F4801401E044F440147278824202D177
:104F800004F58014761C761C307866280BD013DC70
:104F9000582877D009DC002875D04528F6D0462857
:104FA000F4D047281AD19DE118E0632835D0642851
:104FB00079D0652812D195E1702873D008DC672874
:104FC000F1D069286FD06E280DD06F2806D1B5E0DA
:104FD00073282CD0752875D0782874D05A46179924
:104FE00090476D1C75E1C4F30250022809D00328D4
:104FF0000DD0D9F8001004280DD00D6009F1040976
:1050000067E1D9F80010EA17C1E90052F6E7D9F8CC
:1050100000100D80F2E70D70F0E719F8041B8DF811
:10502000001000208DF80100EA46012003E059F845
:1050300004AB4FF0FF3061074FF0000102D40DE0E8
:1050400008F101018846B9420FDA8045F8DB1AF809
:1050500008100029F4D108E008F1010188468142D6
:10506000FADB1AF808100029F6D105985B46A0EB88
:10507000080721463846179A00F094FA284400EBB6
:10508000080507E04DE029E10DE01AF8010B5A464A
:1050900017999047B8F10108F7D25B462146384688
:1050A000179A13E142E00A220092C4F302524FF031
:1050B000000A022A08D059F804CB032A4FEAEC71FF
:1050C0000AD00DE029E02AE009F1070121F00702EA
:1050D000F2E802C1914609E00FFA8CFC4FEAEC714C
:1050E000042A03D14FFA8CFC4FEAEC71002907DA4D
:1050F0000A460021DCF1000C61EB02012D2202E0E6
:10510000220504D52B228DF80420012203E0E207BA
:1051100001D02022F7E7904659E00A2102E0102250
:105120000DE010214FF0000A00910BE010224FF02B
:10513000000A44F004040827009203E008224FF01C
:10514000000A0092C4F30252022A05D059F804CB97
:105150000021032A08D009E009F1070121F0070224
:10516000F2E802C1914605E01FFA8CFC042A01D145
:105170000CF0FF0C4FF00008220728D5702806D04D
:10518000009B83F0100353EA0A0305D00EE040228F
:105190008DF80420012208E05CEA010206D03022EA
:1051A0008DF804208DF8050002229046009B83F0C4
:1051B000080353EA0A030AD15CEA010201D162073B
:1051C00005D530228DF804204FF001087F1E5828A5
:1051D00004D034A003900EA802900DE036A0F9E7A9
:1051E00053466046009AFBF7A6F884460398825C13
:1051F0000298401E029002705CEA0100F0D1029811
:1052000006A9081A00F1200A600702D524F48034A8
:1052100000E00127574502DDA7EB0A0000E000206F
:1052200000EB0A01009005984144401A0590E00304
:1052300006D45B462146179A059800F0B3F9054459
:10524000002706E001A85A46C05D179990476D1CDB
:105250007F1C4745F6DBE0030CD55B462146179AD9
:10526000059800F09FF9054404E030205A4617994C
:1052700090476D1C0099481E00900029F5DC08E05D
:10528000029802995A460078491C02911799904752
:105290006D1CBAF10001AAF1010AF1DC65E1000020
:1052A00009280100303132333435363738396162FC
:1052B00063646566000000003031323334353637C0
:1052C00038394142434445460000000000F058F997
:1052D0000544761C307800287FF4ECAD19B02846E0
:1052E000BDE8F08F620700D4062709F1070222F01B
:1052F000070CFCE80223E14603F000485FEA080CD3
:1053000002D00FF2702C0DE05FEA045C02D50FF2C0
:10531000682C07E05FEAC47C02D00FF2602C01E049
:10532000AFF2700C4FF0FF3823F00043CDF850C0BF
:1053300065280CD006DC452809D046281DD0472812
:105340003DD13DE0662818D067287ED138E00021A5
:10535000112F01DB112000E0781CCDE9000106A926
:105360000EA8FFF7CBFCDDE90F010E9A0391002197
:10537000009207F1010A04914DE04FF000400097C0
:10538000CDE9011006A90EA8FFF7B8FCDDE90F0270
:1053900003920E9B11990022DDF80CA00093049259
:1053A00011B9791C00EB010AB7EB0A0004D4C0F173
:1053B000FF3007F1010A0490AAEB0700019044E0D6
:1053C000012F00DA01270021112F01DD112000E05B
:1053D0003846CDE9000106A90EA8FFF78FFCDDE9EC
:1053E0000F010E9A0391002104910092BA46210701
:1053F0000CD40399514500DA8A46BAF1010F05DD54
:10540000009AAAF10101515C302908D0B84202DAB1
:1054100010F1040F06DA0121CDE9011015E0AAF11F
:105420000101E9E7002805DC049901440491AAEB95
:10543000000102E0411C514500DD8A460499401AF2
:10544000401C01904FF000400290200704D40198C6
:10545000504501DBCDF8048000208DF84F00029804
:105460000DF14F07B0F1004F25D02B200E90029880
:105470004FF0020800280CDA404202902D200E90D6
:1054800007E00A210298FAF740FF3031029007F84E
:10549000011DB8F10001A8F10108F2DC0298002812
:1054A000EFD1791E0E980870307800F0200040F09F
:1054B000450007F8020D12A8C01B00F10708149858
:1054C000007800B1012000EB0A01019801EBE071C6
:1054D00005984144401A401E0590E00306D45B46FF
:1054E0002146179A059800F05DF805441498007855
:1054F00018B15A46179990476D1CE00324D55B46B6
:105500002146179A059800F04DF805441CE00498D0
:10551000002807DBDDE90301884203DD0098405CD9
:10552000179901E0179930205A469047049805F1E1
:105530000105401C04900198401E019004D12E20CA
:105540005A46179990476D1CBAF10001AAF1010A59
:10555000DDDC05E017F8010B5A46179990476D1CE2
:10556000B8F10001A8F10108F4DC5B462146179A66
:105570000598ABE62D0000002B0000002000000085
:105580002DE9F041044600251E461746880404D440
:1055900005E039462020B0476D1C641EF9D5284629
:1055A000BDE8F0812DE9F041044600251E469046F5
:1055B000C80301D5302700E02027880404D505E082
:1055C00041463846B0476D1C641EF9D52846BDE8F3
:1055D000F0810A68531C0B6010707047084A10B5C0
:1055E0000146138801201B0409D512880020054BB1
:1055F000C2F30E0298541846FAF7E1FDC0B210BD8E
:1056000010000020A20900202DE9F041114E0025D4
:10561000144688462F46358001460FA000F03CFC1A
:10562000B8F1000F13D06CB911E0322000F036F859
:105630003088000406D54046FFF7D0FF08B12CB1F2
:1056400005E03780641E2404240CEED10125284691
:10565000BDE8F0811000002025730D0A0000000055
:1056600010B56FF00400FEF7B2FE09480068094962
:10567000B0FBF1F00849C0B200EB40020870C2EB89
:10568000C0104FF6FF7202EAC000488010BD000053
:105690000000002000127A000A0000200B4949880F
:1056A00048434FF0E021486100238B61086940F0D6
:1056B000010008610869C20701D0C003FAD5086972
:1056C00020F0010008618B61704700000A00002093
:1056D0000B49097848434FF0E021486100238B6172
:1056E000086940F0010008610869C20701D0C003E1
:1056F000FAD5086920F0010008618B61704700004D
:105700000A000020FEF752BE1CB500F00BFAAA4AB0
:105710001021072878D2DFE800F0A80452A8A8A931
:10572000F6001078052848D2DFE800F00310202D9D
:105730003A00A2A0CDE900101023C8222321D220D4
:10574000FEF7AEFD32229EA19EA00BE09BA0CDE90C
:1057500000101023C8222321D220FEF7A1FD3222FF
:1057600097A19CA0FFF750FF9EA018E193A0CDE960
:1057700000101023C8222321D220FEF791FD3222EF
:105780008FA199A0EEE78DA0CDE900101023C822CB
:105790002321D220FEF784FD322289A196A0E1E7E1
:1057A00086A0CDE900101023C8222321D220FEF7C5
:1057B00077FD322282A194A0D4E780A04DE010783A
:1057C000052849D2DFE800F00310212E3B0092A00B
:1057D000CDE900101023C8222321D220FEF760FD5E
:1057E000322277A177A00BE08BA0CDE90010102327
:1057F000C8222321D220FEF753FD322270A175A0CA
:10580000FFF702FF85A0CAE02FE083A0CDE90010DA
:105810001023C8222321D220FEF742FD322268A1A4
:1058200071A0EDE77CA0CDE900101023C822232150
:10583000D220FEF735FD322261A16FA0E0E776A00D
:10584000CDE900101023C8222321D220FEF728FD25
:1058500032225BA16CA0D3E76FA0CDE9001010232A
:10586000C8222321D220FEF71BFD1CBD107805287D
:1058700078D2DFE800F00310202D3A0068A0CDE9CF
:1058800000101023E6229121BF20FEF709FD3222ED
:105890004BA14CA00BE062A0CDE900101023E62242
:1058A0009121BF20FEF7FCFC322245A149A0FFF761
:1058B000ABFE5DA073E05AA0CDE900101023E622F4
:1058C0009121BF20FEF7ECFC32223DA146A0EEE77D
:1058D00053A0CDE900101023E6229121BF20FEF74E
:1058E000DFFC322236A144A0E1E74DA0CDE9001053
:1058F0001023E6229121BF20FEF7D2FC322230A1F4
:1059000041A0D4E7FFE7107805284CD2DFE800F08B
:1059100003101D2B380045A0CDE900101023E6220E
:105920009121BF20FEF7BCFC322225A125A033E047
:105930003EA0CDE900101023E6229121BF20FEF702
:10594000AFFC32221EA123A026E038A0CDE9001032
:105950001023E6229121BF20FEF7A2FC322218A1DB
:1059600021A019E01FE031A0CDE900101023E622AC
:105970009121BF20FEF794FC322211A11EA00BE062
:105980002AA0CDE900101023E6229121BF20FEF7C6
:1059900087FC32220AA11CA0FFF736FE25A0BDE835
:1059A0001C4000F079BA24A0CDE900101023E622B3
:1059B0009121BF2057E700002D000020203100007A
:1059C0004F4B000041542B43495053454E443D300A
:1059D0002C33000041542B43495053454E443D3134
:1059E0002C330000310D0A0041542B4349505345DC
:1059F0004E443D322C33000041542B434950534513
:105A00004E443D332C33000041542B434950534501
:105A10004E443D342C33000020320000320D0A0089
:105A20006F66662100000000360D0A00206F6E21AF
:105A300000000000350D0A006572722100000000B0
:105A40001A4908684FF6FF021040194A40F44070A6
:105A500010430860002201210320FEF764FC014688
:105A60002F20FEF779FC002211460320FEF75BFC95
:105A700001463020FEF770FC4FF4E134204600F080
:105A800031FA204600F05EFAFFF7EAFDFBF7C6FAAE
:105A900000F0F4F8FFF7AEF8FAF7A0FE00F00AF80D
:105AA000FAF7A6FFFFF730FEFCE700000CED00E080
:105AB0000000FA0570B54FF48010811140220123D7
:105AC000FAF70CFF4FF47065002229460420FAF71C
:105AD0004BFE134C012229462046FBF77FF801229A
