:020000040000FA
:10000000F8180020550100005D010000C10E00003D
:1000100081440000810A0000F14A00000000000055
:10002000000000000000000000000000A1480000E7
:100030004D0B00000000000099460000BB48000086
:100040006F0100006F0100006F0100006F010000F0
:100050006F0100006F0100006F0100006F010000E0
:100060006F0100006F0100006F0100006F010000D0
:100070006F0100006F0100006F0100006F010000C0
:100080006F0100006F0100003D0C0000E50C000056
:100090006F0100006F0100006F0100006F010000A0
:1000A0006F0100006F010000000000006F01000000
:1000B0006F0100006F0100006F0100006F01000080
:1000C0006F0100006F0100006F0100006F01000070
:1000D0006F010000000000000000000000000000B0
:1000E000000000006F0100006F0100006F010000C0
:1000F0006F0100006F0100006F0100001D4900004A
:10010000C14900006F0100006F0100006F01000095
:100110006F0100006F010000000000006F0100008F
:100120006F0100006F0100006F0100006F0100000F
:100130006F0100006F0100006F010000000000006F
:1001400000000000000000000000000000000000AF
:100150006F0100000648804706480047FEE7FEE7BB
:10016000FEE7FEE7FEE7FEE7FEE7FEE7FEE7FEE767
:10017000BD48000079010000DFF80CD000F0D0FB92
:1001800000480047E95A0000F8180020421C10F807
:10019000011B0029FBD1801A7047F0B480EA0102EC
:1001A000D40F4200B2EB410F02D20246084611467C
:1001B0004A0042D0C30DDDB2C1F3C752AD1A202DA3
:1001C00035DAC1F3160141F4000204B15242C5F11F
:1001D000200602FA06F12A411044B3EBD05F23D087
:1001E000C4B1012DA0EBC35009DCF0BC4FF00042BC
:1001F00002EAC352DBB200F5000000F0BFB94000D4
:1002000000F1807000EBC350A0F1807040EAD17023
:10021000490009E0490841EAC071A0EBC35000F56C
:100220000000400800EBC350F0BC00F09EB96142F2
:10023000012202EB4101001BF6E7F0BC704781F0A0
:100240000041AAE780F00040A7E780EA010210B56C
:1002500002F00043400022D04A001FD0010E01EB03
:100260001261C0F35600C2F3560240F4000042F49B
:100270000002A0FB022000047F39140400D0401CBF
:1002800050EA124001D44000491EC2B20C0604EBF1
:10029000D010401C4008802A02D003E0002010BD8E
:1002A00020F00100002900DA0020184310BD30B40E
:1002B00080EA010202F0004530F0004221F00040E7
:1002C00013D090B1C30DD40DC2F31601C0F31600C4
:1002D000E41A41F4000140F400027D34914201D35C
:1002E000641C00E04900002C02DA30BC002070479A
:1002F0004FF400000023914201D3891A03434008C0
:100300004FEA4101F7D151B1914202D14FF0004182
:1003100005E002D24FF0010101E06FF0010103EBB3
:10032000C450284430BC00F020B92DE9FE4F81EACA
:10033000030404F0004421F0004100944FF0000B4E
:1003400023F0004350EA01045ED052EA03045BD07C
:10035000C3F30A54C1F30A552C44A4F2F3340194B4
:10036000A0FB0254C1F3130141F48011C3F3130342
:1003700043F4801301FB024400FB034E840A970AF6
:1003800044EA815447EA8357A4FB076802958D0A23
:1003900005FB07854FEA932C04FB0C542705029DAF
:1003A0004FEA065847EA1637B5EB08056EEB070C1F
:1003B000870E920E47EA811742EA8312A7FB0201D9
:1003C000B6EB0B0164EB00042B0D43EA0C335E1813
:1003D00044EB1C50DA465146E7FB0201C5F3130417
:1003E0004FEA0B3343EA14534FEA0432019C43EAC9
:1003F0000603A4F10C040294009CCDE900B400F0C3
:10040000FAF803B0BDE8F08F00200146F9E7962323
:100410000022114600F0B2B80EB540F2334102910D
:100420000021CDE900110A460B4600F0E4F803B0C4
:1004300000BD00F0004220F00040C10DC0F31600E6
:1004400040F400007F2901DA00207047962903DC80
:10045000C1F19601C84001E096398840002AF4D0E5
:1004600040427047C1F30A5210B5C1F3130140F284
:10047000FF3341F480119A4201DA002010BD40F2AE
:1004800033439A42A2F2334203DC524200F05DF859
:1004900010BD904010BD00F0004230F000400AD086
:1004A000C10D01F56071C0F3160042EA0151C208A6
:1004B00040071143704700200146704730B50B4696
:1004C000014600202022012409E021FA02F59D4284
:1004D00005D303FA02F5491B04FA02F52844151E58
:1004E000A2F10102F1DC30BD2DE9F05F05460020EC
:1004F00092469B4688460646814640241BE0284695
:1005000041464746224600F020F853465A46C01A54
:10051000914110D311461846224600F013FA2D1AC5
:1005200067EB01084F4622460120002100F00AFA3D
:1005300017EB00094E41201EA4F10104DFDC484600
:1005400031462A464346BDE8F09F202A04DB203A84
:1005500021FA02F00021704721FA02F3D040C2F1E3
:10056000200291400843194670470029A8BF7047F0
:10057000401C490008BF20F00100704710B4B0FAD9
:1005800080FC00FA0CF050EA010404BF10BC704774
:1005900049B1CCF1200421FA04F411FA0CF118BF8E
:1005A000012121430843A3EB0C01CB1D4FEA00615D
:1005B0004FEA102042BF002010BC704700EBC35030
:1005C00010440029A4BF10BC7047401C490008BF5C
:1005D00020F0010010BC704710B5141E73F1000428
:1005E00008DA401C41F1000192185B411A4301D125
:1005F00020F0010010BD2DE9F04D92469B4611B14F
:10060000B1FA81F202E0B0FA80F22032904600F0B6
:1006100099F904460F4640EA0A0041EA0B015346A5
:100620005A46084313D0114653EA010019D0C8F1C5
:1006300040025046FFF789FF05460E465046594690
:10064000424600F07FF9084305D0012004E020462F
:100650003946BDE8F08D0020054346EAE0762C439C
:1006600037430A986305E40AA0EB08000022FD0A5C
:1006700044EA47540A3002D500200146E9E7010563
:1006800010196941DDE9084500196941BDE8F04DDF
:10069000A2E72DE9FE4F804681EA0300C00F0C4619
:1006A000009021F0004123F00045B8EB0200A94181
:1006B00005D24046214690461C460B46024623F092
:1006C0000040104347D0270DC7F30A00C3F30A5177
:1006D0000290401A019040286BDAC3F3130040F4F3
:1006E000801B0098924620B10023D2EB030A63EBF3
:1006F0000B0B01985946C0F14002504600F022F918
:1007000006460D4650465946019A00F02AF910EB6C
:1007100008006141002487EA115284EAE7731A4312
:1007200040D0009A62B3019A012A4FEA075215DCC1
:10073000001B61EB02014FF0004202EA0752CDE9D3
:100740000042001C41F5801132462B46FFF753FF53
:1007500003B0BDE8F08F40462146F9E7001B61EB8E
:100760000201001C41F5801300185B412018A2F51E
:10077000001747EB030140EAD570B6196D4111E04F
:100780006D084FEA360645EAC0754FEA0752001B6E
:1007900061EB0201001C41F5801149084FEA30006D
:1007A0000019514132462B4603B0BDE8F04FFFF728
:1007B00013BF0098012240000023D0EB020263EB3C
:1007C000E073009821464FEAE074B8EB000061EB5B
:1007D0000401E9E783F000435BE781F0004158E75B
:1007E0002DE9F04D81EA030404F0004B21F00045AF
:1007F00014464FF0000A23F0004150EA050220D0D1
:1008000054EA01021DD0C5F30A570246C5F313038B
:10081000C1F31300C1F30A5640F4801543F480136A
:10082000A7EB0608101BD64608F2FD3873EB05004F
:1008300002D308F1010801E092185B41B8F1000F02
:1008400003DA00200146BDE8F08D00204FF480114E
:10085000064684460EE0171B73EB050705D3121BF3
:1008600063EB050306434CEA010C49084FEA3000EC
:1008700092185B4150EA0107EDD152EA030012D011
:1008800082EA040083EA0501084305D0101BAB414E
:1008900006D20122002306E000224FF0004302E0CE
:1008A0006FF0010253101AEB06004CEB085110EBED
:1008B0000A0041EB0B01BDE8F04DFFF78DBEC1F31F
:1008C0000A52C1F3130140F2FF3341F480119A42FE
:1008D00002DA00200146704740F233439A42A2F206
:1008E000334202DC5242FFF730BE00F02BB800006A
:1008F00030B5041E71F1000404DB4FF000444042A7
:1009000064EB0101141E73F1000405DB1C464FF07B
:100910000043524263EB0403994208BF904230BD4A
:10092000064C074D06E0E06840F0010394E807003C
:1009300098471034AC42F6D3FFF722FC74680000ED
:1009400094680000202A04DB203A00FA02F100201B
:1009500070479140C2F1200320FA03F319439040FD
:100960007047202A06DBCB17203A41FA02F043EA0F
:10097000E07306E041FA02F3D040C2F12002914058
:10098000084319467047000010B50022072802D915
:1009900001220838C0B29300054A1A441368800047
:1009A0000F248440A34381401943116010BD00000F
:1009B000002002402DE9F0479146164A4FF0FF0A09
:1009C00002EBC005002200240AFA02F02346084286
:1009D00019D04FF0010C00200CFA02FC4FF00F0868
:1009E00021FA00F616EA0C0F06D0860008FA06F780
:1009F0003C4309FA06F73B43401C0828F0D328681B
:100A0000A0431843286008322D1D082ADBDDBDE80D
:100A1000F08700002020024001222021014800F040
:100A200022BA000000800B4010B5002220210548AA
:100A300000F019FAC82004F01DFEBDE81040FFF7D1
:100A4000EBBF000000800B4010B500214FF4801078
:100A50004022012300F068F8084C012220212046A2
:100A600000F0CEF901222021204600F0D9F92046DD
:100A70000122BDE81040202100F0F5B900800B40B4
:100A8000FEE7000070B5124E0446706B850F00F053
:100A900023F82060012D05D00E48022D02D0032D31
:100AA00000D000206060316AC840A0603168C1F3A6
:100AB000015120FA01F1E160B16AC1F30241072955
:100AC00002D0C840206170BD0621B0FBF1F0F9E70B
:100AD0000080084000127A000C49D1F8A4000028D8
:100AE00013D0086A0A48D1F8FC1301290DD0094A2D
:100AF0009169C1F3C55101B940219269C2F34153D3
:100B000001229A40B0FBF2F04843704700001043C6
:100B100000127A000080084000B585B06846FFF7F3
:100B2000B1FF039805B000BDF0B5074F7C6AFD6AC0
:100B30003E6B84438D43964313B104430D431643E8
:100B40007C62FD623E63F0BD00800840704700009B
:100B5000044B9A158240186809B1104300E0904395
:100B6000186070470080094070B5D0E90D3443EA41
:100B70000424314B016803EB01121461456D846C50
:100B8000B0F850602C43C56C2D0245EA06452C4355
:100B90005461046CB0F84450240244EA0544C56B27
:100BA0002C439461456A8469C66944EA4504056A30
:100BB000AD0045EAC6052C43C56A44EA0514856ABA
:100BC00044EA4514D4614A00032494404FF480550C
:100BD0008D402C434FF4803595402C434FF4003525
:100BE00095402C434FF080758D402C431D68C6689E
:100BF000A543446894408E4034430669964034438C
:100C000046699640826834438A4090F83010144315
:100C100044EA017129431960416D00290AD0D0E9E5
:100C200016121143026EB0F86400120242EA00404C
:100C30000143596070BD00000080094010B50021DB
:100C40000A2000F0ABF8084C08B101202070012107
:100C50000A2000F0A3F808B100202070BDE8104081
:100C60000A2000F093B80000300000207FB5002279
:100C70004FF480104FF440410123FFF755FF01224C
:100C8000164D94022146284600F0D2F80122214652
:100C90000420FFF78FFE00222146284600F0B0F81E
:100CA00001222146284600F0B3F80A2000900120D6
:100CB0008DF804000A48029004208DF80C00684664
:100CC00000F082F804210A20FFF75EFE01210A20CD
:100CD00000F088F8122003F0DFFB7FBD00800B409E
:100CE00080FC0A0010B500210B2000F057F8084CDA
:100CF00008B10120607001210B2000F04FF808B10D
:100D000000206070BDE810400B2000F03FB80000EC
:100D1000300000207FB500224FF480104FF4404196
:100D20000123FFF701FF0122164DD4022146284678
:100D300000F07EF8012221460420FFF73BFE00224E
:100D40002146284600F05CF801222146284600F0A2
:100D50005FF80B20009001208DF804000A480290F3
:100D600004208DF80C00684600F02EF804210B20BA
:100D7000FFF70AFE01210B2000F034F8132003F0E6
:100D80008BFB7FBD00800B4080FC0A00012181406D
:100D9000014841648164704700400240084B10B52F
:100DA00002465B6C002001249440234207D0054B8F
:100DB00003EB8202D2F800298A4200D0012010BD44
:100DC00000400240000048420179027BC90741EA25
:100DD0000271826800681143014A42F8201070478E
:100DE00000400240054B01228240186C012902D0CC
:100DF0009043186470471043FBE700000040024036
:100E0000002A026801D00A4300E08A43026070476A
:100E1000002A426801D00A4300E08A4342607047DA
:100E2000002A026901D00A4300E08A430261704748
:100E300042B1012A09D082688A438260C2688A432B
:100E4000C260704782680A43F7E7C2680A43C2601B
:100E500082688A4382607047C069084000D00120E0
:100E60007047416270470AB14162704781627047C2
:100E7000012208210148FFF7F6BF000000800B4067
:100E8000002208210148FFF7EEBF000000800B4060
:100E900010B500214FF4801040220123FFF744FEDB
:100EA000064C012208212046FFF7AAFF2046002217
:100EB000BDE810400821FFF7D6BF000000800B40BE
:100EC000FEE7000010B50024224686B044F201017E
:100ED00001231046FFF728FE07224FF4805101201E
:100EE000FFF768FD07224FF400510120FFF762FD74
:100EF00047F230500490009401940294ADF80C40F5
:100F00006946024800F07BF806B010BD008004403E
:100F10000029016802D041F0010101E021F0010146
:100F2000016070472DE9F04114468846054603F0FC
:100F30007FFE224E4FF468173946304600F042F8E3
:100F40000028F9D04146304600F09EF84FF4806208
:100F50005B21304600F09AF8194F3046394600F0D0
:100F600031F80028F9D0164FFF1C3946304600F002
:100F700029F80028F9D0012C03D901213046FFF7C8
:100F8000C7FF4FF4C8179CB13946304600F01AF835
:100F90000028F9D0304600F074F8641EA4B205F8B9
:100FA000010B012CEFD100213046FFF7B1FFEBE739
:100FB0003046BDE8F04100F018B800000080044061
:100FC00001001800C068884201D10120704700204C
:100FD0007047C16070470029016802D041F00801E4
:100FE00001E021F0080101607047016841F0020151
:100FF00001607047C068084000D00120704770B59C
:101000000E4686B0044600250121FFF7E4FFD6E92D
:1010100000010843B168226822F0850211430843A9
:101020002060B089A0606846FFF72CFD0298216817
:1010300011F4404106D0B1F5804F05D0B1F5004F15
:1010400005D103E0062502E0082500E00925316905
:1010500000EBC00301EB81018A00B3FBF2F100EB6E
:10106000400303EBC000B0FBF2F0491BA0EB05000E
:1010700000D50021002800DA00202161606106B05F
:1010800070BD8069C0B270478161704703689B077B
:10109000FCD40AB141F48061C16170472DE9F0438D
:1010A000184F0646002438887D884543B888A0F547
:1010B000D041043902D1B879012808D0002108466E
:1010C00003F0FCF803F096F94FF0C04015E0002063
:1010D000B8714FF02A09A7F80A904FF02B08A7F82B
:1010E0000C80014603F0EAF80120B871A7F80A80E5
:1010F000A7F80C90E6E74680641CAC42FBD3BDE841
:10110000F0830000860000202DE9F04F4A492A2391
:101110002B24898845F2105A4FF4305B4FF4285E37
:101120004FF448754FF0F00C49F241394FF4A07775
:1011300045F210364FF4F07280B13F484FF001088D
:10114000494580F806800780A0F802C001D0B1426E
:101150003ED12C2505814381848157E036484FF0EC
:101160000008494580F80680A0F800C0478006D0F6
:10117000A1F5D04CBCF1040C01D0B1420CD12C250E
:1011800005814381A1F5D0438481043B01D0B14264
:1011900044D10780428041E0514507D1A0F808B012
:1011A000A0F80AE04FF42C5181810EE0A1F5C85659
:1011B000633E06D0222101812021418121218181AC
:1011C0002CE02C210181448183810280458025E02F
:1011D000A1F5D04CBCF1040C09D051450BD1A0F8BD
:1011E00008B0A0F80AE04FF42C53838121E02C25AD
:1011F0000581448109E0A1F5C85CBCF1630C12D003
:10120000222303812123438120238381A1F5D0431D
:10121000043B01D0B14201D102804780BDE8F04FCC
:10122000002002F079BF4FF02C0CA0F808C04381D9
:10123000848105804280E9E7860000202DE9F04F97
:10124000002401239BB0224699034FF48830FFF716
:101250006BFC092280210120FFF7ACFB0922402111
:101260000120FFF7A7FB09224FF480710120FFF74F
:10127000A1FB09224FF400610020FFF79BFB09222C
:101280004FF480410020FFF795FB4FF400490922FD
:1012900049460020FFF78EFB012109220846FFF78F
:1012A00089FB092202210120FFF784FB0922042186
:1012B0000120FFF77FFB092208210120FFF77AFBBD
:1012C000092210210120FFF775FB092220210120AE
:1012D000FFF770FB092280210220FFF76BFB092238
:1012E0004FF480710220FFF765FB092210210220D4
:1012F000FFF760FB092220210220FFF75BFB092298
:1013000040210220FFF756FB092201210220FFF7AE
:1013100051FB022109220846FFF74CFB0922042158
:101320000220FFF747FB00224FF400711046FFF741
:1013300041FBFE4D4FF400712868FFF792FD01223A
:1013400051022868FFF75CFD0320CDE900400294BC
:101350004FF480500A94CDE9030440010B94CDE989
:1013600005040220099407940894CDE90E400C94DA
:101370000D940121CDE91001129013AA052082E8F5
:1013800013001020CDE916400F201890FF2019906F
:101390006846FFF7E9FB01210020FFF7D9FB322067
:1013A00004F068F9002002F090FEE14949F241366C
:1013B00046F60407888045F2103845F210524FF681
:1013C000FF754FF0C044FF2804D3A84202D0B0F507
:1013D000134F6DD1D320208002F06EFE888002F082
:1013E0006BFE888002F068FE05EA0020888002F02B
:1013F00063FE8B8818438880B04259D0BF2020807C
:1014000002F05AFE888002F057FE888002F054FEF7
:10141000888002F051FE05EA0020888002F04CFE30
:101420008B8818438880B84242D0D420208002F0B4
:1014300043FE888002F040FE888002F03DFE05EA0F
:101440000020888002F038FE8B8818438880404551
:101450002ED04FF45A40208002F02EFE88804FF4A8
:101460005B40208002F028FE05EA002088804FF4CF
:101470005C40208002F020FE8B881843888048451D
:1014800001D18A80FEE3904212D0A120208002F098
:1014900013FE888002F010FE05EA0020888002F02A
:1014A0000BFE8B881843A0F5AE438880613B7DD04E
:1014B00080B2B0427BD1CF20208000206080C1204C
:1014C000608030206080ED202080642060800320D8
:1014D00060801220608081206080E820208085204C
:1014E0006080102060807A206080CB2020803920AE
:1014F00060802C206080002060803420608002208A
:101500006080F720208020206080EA20208000205A
:1015100060806080C02020801B206080C1202080EF
:1015200001206080C5202080302060806080C7203E
:101530002080B720608036202080482060803A20BC
:10154000208055206080B1202080002060801A20FB
:101550006080B62020800A206080A2206080F22077
:101560002080002060802620208001206080E020F4
:1015700020800F2060802A20608028206080082042
:1015800060800E2060800820608054206080A92048
:101590006080432060800A2060800F2060800020EF
:1015A0006080608060806080E12001E032E036E0B1
:1015B0002080002060801520608017206080072038
:1015C000608011206080062060802B206080562083
:1015D00060803C20608005206080102060800F20AB
:1015E00060803F20608060800F2060802B20208002
:1015F000002060806080012060803F2060802A2081
:1016000020800020608060806080EF20608011205A
:10161000208071E041F66310888002F0CABCB842B5
:1016200071D111202080142004F024F8D0202080D3
:1016300007206080422060801D206080D1202080B3
:10164000002060801A20608009206080D2202080E5
:101650000120608022206080C020208010206080D7
:101660003B2060800020608002206080112060802C
:10167000C520208003206080C8202080002060805A
:10168000252060802120608005206080002060800F
:101690000A2060806520608025206080772060803F
:1016A000502060800F20608000206080F820208023
:1016B00001206080FE202080002060800220608069
:1016C0002020208036202080082060803A20208042
:1016D000552060802B2020800020608060800120C9
:1016E00060803F2060802A20208000206080608011
:1016F00001206080DF206080782003F0BBFF29207C
:1017000001F036BCFFE740457ED1ED20208001206E
:101710006080FE206080EE202080DE20608021201E
:101720006080F12020800120608003E08867000055
:1017300086000020DF20208010206080C4202080D0
:101740008F206080C620208000206080E2206080A2
:1017500060806080BF202080AA206080B020208030
:101760000D206080002060800D206080002060805F
:10177000112060800020608019206080002060803F
:1017800021206080002060802D206080002060800B
:101790003D206080002060805D20608000206080AF
:1017A0005D20608000206080B120208080206080EB
:1017B000002060808B206080002060809620608008
:1017C00000206080B22020800020608060800220A5
:1017D0006080002060800320608000206080B32053
:1017E00020800020608060806080608060806080F9
:1017F00060806080608060806080608060806080E9
:1018000060806080608000E0FEE3608060806080D7
:101810006080608060806080B42020808B20608049
:10182000002060809620608000206080A120608081
:1018300000206080B5202080022060800020608031
:101840000320608000206080042060800020608091
:10185000B6202080002060806080B720208000209B
:10186000608060803F206080002060805E2060801B
:101870000020608064206080002060808C20608078
:1018800000206080AC20608000206080DC206080D0
:101890000020608070206080002060809020608048
:1018A00000206080EB20608000206080DC20608071
:1018B00000206080B82020800020608060806080F0
:1018C00060806080608060806080BA2020802420FA
:1018D00060800020608060806080C12020802020A7
:1018E0006080002060805420608000206080FF20A5
:1018F000608000206080C22020800A20608000205C
:1019000060800420608000206080C32020803C2014
:101910006080002060803A20608000206080392054
:1019200060800020608037206080002060803C2044
:10193000608000206080362060800020608032203F
:101940006080002060802F206080002060802C203C
:101950006080002060802920608000206080262038
:10196000608000206080242060800020608024202F
:1019700060800020608023206080002060803C2008
:1019800060800020608036206080002060803220EF
:101990006080002060802F206080002060802C20EC
:1019A00060800020608029206080002060802620E8
:1019B00060800020608024206080002060802420DF
:1019C0006080002060802320608000206080C42030
:1019D00020806220608000206080052060800020E0
:1019E00060808420608000206080F0206080002083
:1019F00060801820608000206080A420608000202B
:101A0000608018206080002060805020608000206E
:101A100060800C20608000206080172060800020A3
:101A200060809520608000206080F320608000202E
:101A30006080E620608000206080C5202080322009
:101A400060800020608044206080002060806520ED
:101A50006080002060807620608000206080882088
:101A6000608000206080C6202080202060800020D0
:101A7000608017206080002060800120608000204E
:101A80006080C7202080002060806080608060804F
:101A9000C820208000206080608060806080C92035
:101AA0002080002060806080608060806080608036
:101AB0006080608060806080608060806080608026
:101AC00060806080E02020801620608000206080A0
:101AD0001C206080002060802120608000206080C9
:101AE000362060800020608046206080002060807A
:101AF0005220608000206080642060800020608030
:101B00007A206080002060808B20608000206080D0
:101B10009920608000206080A82060800020608084
:101B2000B920608000206080C42060800020608038
:101B3000CA20608000206080D22060800020608009
:101B4000D920608000206080E020608000206080DC
:101B5000F320608000206080E120208016206080DB
:101B6000002060801C206080002060802220608037
:101B700000206080362060800020608045206080EA
:101B8000002060805220608000206080642060809F
:101B9000002060807A206080002060808B20608040
:101BA000002060809920608000206080A8206080F4
:101BB00000206080B920608000206080C4206080A8
:101BC00000206080CA20608000206080D220608079
:101BD00000206080D820608000206080E02060804D
:101BE00000206080F320608000206080E220208060
:101BF00005206080002060800B20608000206080D5
:101C00001B20608000206080342060800020608085
:101C100044206080002060804F2060800020608031
:101C200061206080002060807920608000206080DA
:101C30008820608000206080972060800020608085
:101C4000A620608000206080B72060800020608037
:101C5000C220608000206080C720608000206080FB
:101C6000D120608000206080D620608000206080CD
:101C7000DD20608000206080F32060800020608094
:101C8000E32000E0F6E120800520608000206080F5
:101C90000A206080002060801C206080002060801E
:101CA00033206080002060804420608000206080BD
:101CB0005020608000206080622060800020608072
:101CC0007820608000206080882060800020608014
:101CD0009720608000206080A620608000206080C7
:101CE000B720608000206080C2206080002060807B
:101CF000C720608000206080D1206080002060804C
:101D0000D520608000206080DD2060800020608021
:101D1000F320608000206080E4202080012060802B
:101D200000206080012060800020608002206080B0
:101D3000002060802A206080002060803C2060803D
:101D4000002060804B206080002060805D206080EB
:101D5000002060807420608000206080842060808B
:101D6000002060809320608000206080A22060803E
:101D700000206080B320608000206080BE206080F2
:101D800000206080C420608000206080CD206080C2
:101D900000206080D320608000206080DD20608093
:101DA00000206080F320608000206080E52020809B
:101DB0000020608060806080608002206080002061
:101DC000608029206080002060803C2060800020AE
:101DD00060804B206080002060805D20608000205B
:101DE00060807420608000206080842060800020FB
:101DF00060809320608000206080A22060800020AE
:101E00006080B320608000206080BE206080002061
:101E10006080C420608000206080CD206080002031
:101E20006080D320608000206080DC206080002003
:101E30006080F320608000206080E62020801120F8
:101E40006080002060803420608000206080562008
:101E50006080002060807620608000206080772095
:101E60006080002060806620608000206080882084
:101E70006080002060809920608000206080BB200E
:101E80006080002060809920608000206080662053
:101E90006080002060805520608000206080552098
:101EA00060800020608045206080002060804320AA
:101EB0006080002060804420608000206080E720F7
:101EC00020803220608000206080552060800020CB
:101ED0006080762060800020608066206080002026
:101EE0006080672060800020608067206080002024
:101EF00060808720608000206080992060800020C2
:101F00006080BB206080002060809920608000207D
:101F10006080772060800020608044206080002006
:101F20006080562060800020608023206080002038
:101F30006080332060800020608045206080002029
:101F40006080E82020800020608060809920608090
:101F50000020608087206080002060808820608072
:101F60000020608077206080002060806620608094
:101F7000002060808820608000206080AA2060802F
:101F800000206080BB2060800020608099206080FD
:101F90000020608066206080002060805520608086
:101FA0000020608055206080002060804420608098
:101FB0000020608044206080002060805520608088
:101FC00000206080E9202080AA20608000206080BE
:101FD000608060802080AA206080CF202080002048
:101FE00060806080608060806080608060806080F1
:101FF00060806080608060806080608060806080E1
:102000006080F020208000E032E0002060805020DE
:1020100060800020608060806080F320208000204D
:102020006080F920208006206080102060802920B8
:102030006080002060803A20208055206080112040
:102040002080642003F016FB29202080352020808A
:102050000020608051202080FF206080532020805D
:102060002C20608055202080822060802C20FDE381
:1020700090427CD14FF470435521184602F0C2F9CA
:102080004FF20106AA21304602F0BCF9771C52211A
:10209000384602F0B7F94FF203080821404602F033
:1020A000B1F94FF204090121484602F0ABF90D21C4
:1020B0004FF4304002F0A6F90D214BF2010002F07E
:1020C000A1F90D214BF2020002F09CF94FF4364ABF
:1020D0003421504602F096F934214BF2016002F0AF
:1020E00091F934214BF2026002F08CF94FF4314B3C
:1020F0000D21584602F086F90D214BF2011002F035
:1021000081F90D214BF2021002F07CF934214FF4D9
:10211000374002F077F934214BF2017002F072F986
:1021200034214BF2027002F06DF900214FF432407D
:1021300002F068F900214BF2012002F063F900215E
:102140004BF2022002F05EF924214FF4384002F0F5
:1021500059F924214BF6010002F054F924214BF6E1
:10216000020002F04FF901214FF43F4000E0FCE390
:1021700002F048F90F214FF4334002F043F90F21E8
:102180004BF2013002F03EF90F214BF2023002F027
:1021900039F934214FF4394002F034F934214BF647
:1021A000011002F02FF934214BF6021002F02AF947
:1021B00008214FF4354002F025F908214BF2015077
:1021C00002F020F908214BF2025002F01BF9032122
:1021D0004FF4424002F016F924214FF43A4002F045
:1021E00011F924214BF6012002F00CF924214BF6C1
:1021F000022002F007F900214FF43C4002F002F9FE
:1022000078214BF6014002F0FDF800214BF6024028
:1022100002F0F8F800214FF43D4002F0F3F8782185
:102220004BF6015002F0EEF800214BF6025002F09E
:10223000E9F800214FF43E4002F0E4F864214BF647
:10224000016002F0DFF800214FF4514002F0DAF8AB
:1022500033214DF2011002F0D5F800214DF20210A9
:1022600002F0D0F834214DF2031002F0CBF8002137
:102270004DF2041002F0C6F83A214DF2051002F0BA
:10228000C1F800214DF2061002F0BCF84A214DF2CF
:10229000071002F0B7F800214DF2081002F0B2F872
:1022A0005C214DF2091002F0ADF800214DF20A1048
:1022B00002F0A8F881214DF20B1002F0A3F80021E2
:1022C0004DF20C1002F09EF8A6214DF20D1002F016
:1022D00099F800214DF20E1002F094F8E5214DF22C
:1022E0000F1002F08FF801214DF2101002F08AF861
:1022F00013214DF2111002F085F801214DF2121058
:1023000002F080F854214DF2131002F07BF8012105
:102310004DF2141002F076F882214DF2151002F001
:1023200071F801214DF2161002F06CF8CA214DF23D
:10233000171002F067F802214DF2181002F062F84F
:1023400000214DF2191002F05DF802214DF21A1031
:1023500002F058F801214DF21B1002F053F802214F
:102360004DF21C1002F04EF834214DF21D1002F017
:1023700049F802214DF21E1002F044F867214DF297
:102380001F1002F03FF802214DF2201002F03AF83F
:1023900084214DF2211002F035F802214DF2221075
:1023A00002F030F8A4214DF2231002F02BF80221A4
:1023B0004DF2241002F026F8B7214DF2251002F05C
:1023C00021F802214DF2261002F01CF8CF214DF227
:1023D000271002F017F802214DF2281002F012F82F
:1023E000DE214DF2291002F00DF802214DF22A10E3
:1023F00002F008F8F2214DF22B1002F003F802214E
:102400004DF22C1001F0FEFFFE214DF22D1001F0D7
:10241000F9FF03214DF22E1001F0F4FF10214DF2CF
:102420002F1001F0EFFF03214DF2301001F0EAFF11
:1024300033214DF2311001F0E5FF03214DF232104E
:1024400001F0E0FF6D214DF2331001F0DBFF0021C0
:102450004FF4524001F0D6FF33214DF2012001F03C
:10246000D1FF00214DF2022001F0CCFF34214DF2CA
:10247000032001F0C7FF00214DF2042001F0C2FF4C
:102480003A214DF2052001F0BDFF00214DF206205A
:1024900001F0B8FF4A214DF2072001F0B3FF0021FF
:1024A0004DF2082001F0AEFF5C214DF2092001F051
:1024B000A9FF00214DF20A2001F0A4FF81214DF275
:1024C0000B2001F09FFF00214DF20C2001F09AFF3C
:1024D000A6214DF20D2001F095FF00214DF20E20B6
:1024E00001F090FFE5214DF20F2001F08BFF01215B
:1024F0004DF2102001F086FF13214DF2112001F062
:1025000081FF01214DF2122001F07CFF54214DF298
:10251000132001F077FF01214DF2142001F072FF2A
:1025200082214DF2152001F06DFF01214DF21620A0
:1025300001F068FFCA214DF2172001F063FF02216C
:102540004DF2182001F05EFF00214DF2192001F03C
:1025500059FF02214DF21A2001F054FF01214DF2E2
:102560001B2001F04FFF02214DF21C2001F04AFF19
:1025700034214DF21D2001F045FF02214DF21E20B5
:1025800001F040FF67214DF21F2001F03BFF0221C7
:102590004DF2202001F036FF84214DF2212001F080
:1025A00031FF02214DF2222001F02CFFA4214DF237
:1025B000232001F027FF02214DF2242001F022FF09
:1025C000B7214DF2252001F01DFF02214DF22620FA
:1025D00001F018FFCF214DF2272001F013FF022157
:1025E0004DF2282001F00EFFDE214DF2292001F0EE
:1025F00009FF02214DF22A2001F004FFF2214DF2E1
:102600002B2001F0FFFE02214DF22C2001F0FAFEFA
:10261000FE214DF22D2001F0F5FE03214DF22E207A
:1026200001F0F0FE10214DF22F2001F0EBFE03210E
:102630004DF2302001F0E6FE33214DF2312001F061
:10264000E1FE03214DF2322001F0DCFE6D214DF25E
:10265000332001F0D7FE00214FF4534001F0D2FEA9
:1026600033214DF2013001F0CDFE00214DF2023058
:1026700001F0C8FE34214DF2033001F0C3FE002109
:102680004DF2043001F0BEFE3A214DF2053001F06A
:10269000B9FE00214DF2063001F0B4FE4A214DF2A0
:1026A000073001F0AFFE00214DF2083001F0AAFE24
:1026B0005C214DF2093001F0A5FE00214DF20A30F7
:1026C00001F0A0FE81214DF20B3001F09BFE0021B4
:1026D0004DF20C3001F096FEA6214DF20D3001F0C6
:1026E00091FE00214DF20E3001F08CFEE5214DF2FD
:1026F0000F3001F087FE01214DF2103001F082FE13
:1027000013214DF2113001F07DFE01214DF2123006
:1027100001F078FE54214DF2133001F073FE0121D7
:102720004DF2143001F06EFE82214DF2153001F0B1
:1027300069FE01214DF2163001F064FECA214DF20E
:10274000173001F05FFE02214DF2183001F05AFE01
:1027500000214DF2193001F055FE02214DF21A30E0
:1027600001F050FE01214DF21B3001F04BFE022121
:102770004DF21C3001F046FE34214DF21D3001F0C7
:1027800041FE02214DF21E3001F03CFE67214DF268
:102790001F3001F037FE02214DF2203001F032FEF1
:1027A00084214DF2213001F02DFE02214DF2223024
:1027B00001F028FEA4214DF2233001F023FE022176
:1027C0004DF2243001F01EFEB7214DF2253001F00C
:1027D00019FE02214DF2263001F014FECF214DF2F8
:1027E000273001F00FFE02214DF2283001F00AFEE1
:1027F000DE214DF2293001F005FE02214DF22A3092
:1028000001F000FEF2214DF22B3001F0FBFD022120
:102810004DF22C3001F0F6FDFE214DF22D3001F08D
:10282000F1FD03214DF22E3001F0ECFD10214DF2AF
:102830002F3001F0E7FD03214DF2303001F0E2FDD1
:1028400033214DF2313001F0DDFD03214DF2323004
:1028500001F0D8FD6D214DF2333001F0D3FD0021A0
:102860004FF4544001F0CEFD332100E080E34DF2FF
:10287000014001F0C7FD00214DF2024001F0C2FD10
:1028800034214DF2034001F0BDFD00214DF2044022
:1028900001F0B8FD3A214DF2054001F0B3FD0021F1
:1028A0004DF2064001F0AEFD4A214DF2074001F025
:1028B000A9FD00214DF2084001F0A4FD5C214DF27C
:1028C000094001F09FFD00214DF20A4001F09AFD00
:1028D00081214DF20B4001F095FD00214DF20C409D
:1028E00001F090FDA6214DF20D4001F08BFD00217D
:1028F0004DF20E4001F086FDE5214DF20F4001F052
:1029000081FD01214DF2104001F07CFD13214DF2BB
:10291000114001F077FD01214DF2124001F072FDEE
:1029200054214DF2134001F06DFD01214DF2144090
:1029300001F068FD82214DF2154001F063FD012197
:102940004DF2164001F05EFDCA214DF2174001F034
:1029500059FD02214DF2184001F054FD00214DF2C5
:10296000194001F04FFD022100E003E34DF21A404F
:1029700001F048FD01214DF21B4001F043FD022111
:102980004DF21C4001F03EFD34214DF21D4001F09E
:1029900039FD02214DF21E4001F034FD67214DF258
:1029A0001F4001F02FFD02214DF2204001F02AFDD1
:1029B00084214DF2214001F025FD02214DF22240FB
:1029C00001F020FDA4214DF2234001F01BFD022166
:1029D0004DF2244001F016FDB7214DF2254001F0E3
:1029E00011FD02214DF2264001F00CFDCF214DF2E8
:1029F000274001F007FD02214DF2284001F002FDC1
:102A0000DE214DF2294001F0FDFC02214DF22A4069
:102A100001F0F8FCF2214DF22B4001F0F3FC022111
:102A20004DF22C4001F0EEFCFE214DF22D4001F064
:102A3000E9FC03214DF22E4001F0E4FC10214DF29F
:102A40002F4001F0DFFC03214DF2304001F0DAFCB1
:102A500033214DF2314001F0D5FC03214DF23240DB
:102A600001F0D0FC6D214DF2334001F0CBFC002190
:102A70004FF4554001F0C6FC33214DF2015001F0F6
:102A8000C1FC00214DF2025001F0BCFC34214DF29A
:102A9000035001F0B7FC00214DF2045001F0B2FCEC
:102AA0003A214DF2055001F0ADFC00214DF20650E7
:102AB00001F0A8FC4A214DF2075001F0A3FC0021CF
:102AC0004DF2085001F09EFC5C214DF2095001F0DE
:102AD00099FC00214DF20A5001F094FC81214DF245
:102AE0000B5001F08FFC00214DF20C5001F08AFCDC
:102AF000A6214DF20D5001F085FC00214DF20E5043
:102B000001F080FCE5214DF20F5001F07BFC01212A
:102B10004DF2105001F076FC13214DF2115001F0EE
:102B200071FC01214DF2125001F06CFC54214DF268
:102B3000135001F067FC01214DF2145001F062FCCA
:102B400082214DF2155001F05DFC01214DF216502D
:102B500001F058FCCA214DF2175001F053FC02213C
:102B60004DF2185001F04EFC00214DF2195001F0C9
:102B700049FC02214DF21A5001F044FC01214DF2B2
:102B80001B5001F03FFC02214DF21C5001F03AFCB9
:102B900034214DF21D5001F035FC02214DF21E5042
:102BA00001F030FC67214DF21F5001F02BFC022197
:102BB0004DF2205001F026FC84214DF2215001F00D
:102BC00021FC02214DF2225001F01CFCA4214DF207
:102BD000235001F017FC02214DF2245001F012FCA9
:102BE000B7214DF2255001F00DFC02214DF2265087
:102BF00001F008FCCF214DF2275001F003FC022127
:102C00004DF2285001F0FEFBDE214DF2295001F07B
:102C1000F9FB02214DF22A5001F0F4FBF2214DF2B2
:102C20002B5001F0EFFB02214DF22C5001F0EAFB9A
:102C3000FE214DF22D5001F0E5FB03214DF22E5007
:102C400001F0E0FB10214DF22F5001F0DBFB0321DE
:102C50004DF2305001F0D6FB33214DF2315001F0EE
:102C6000D1FB03214DF2325001F0CCFB6D214DF22E
:102C7000335001F0C7FB00214FF4564001F0C2FB76
:102C800033214DF2016001F0BDFB00214DF20260E5
:102C900001F0B8FB34214DF2036001F0B3FB0021D9
:102CA0004DF2046001F0AEFB3A214DF2056001F0F7
:102CB000A9FB00214DF2066001F0A4FB4A214DF270
:102CC000076001F09FFB00214DF2086001F09AFBC4
:102CD0005C214DF2096001F095FB00214DF20A6084
:102CE00001F090FB81214DF20B6001F08BFB002184
:102CF0004DF20C6001F086FBA6214DF20D6001F053
:102D000081FB00214DF20E6001F07CFBE5214DF2CC
:102D10000F6001F077FB01214DF2106001F072FBB2
:102D200013214DF2116001F06DFB01214DF2126093
:102D300001F068FB54214DF2136001F063FB0121A7
:102D40004DF2146001F05EFB82214DF2156001F03E
:102D500059FB01214DF2166001F054FBCA214DF2DE
:102D6000176001F04FFB02214DF2186001F04AFBA1
:102D700000214DF2196001F045FB02214DF21A606D
:102D800001F040FB01214DF21B6001F03BFB0221F1
:102D90004DF21C6001F036FB34214DF21D6001F054
:102DA00031FB02214DF21E6001F02CFB67214DF238
:102DB0001F6001F027FB02214DF2206001F022FB91
:102DC00084214DF2216001F01DFB02214DF22260B1
:102DD00001F018FBA4214DF2236001F013FB022146
:102DE0004DF2246001F00EFBB7214DF2256001F099
:102DF00009FB02214DF2266001F004FBCF214DF2C8
:102E0000276001F0FFFA02214DF2286001F0FAFA82
:102E1000DE214DF2296001F0F5FA02214DF22A601F
:102E200001F0F0FAF2214DF22B6001F0EBFA0221F1
:102E30004DF22C6001F0E6FAFE214DF22D6001F01A
:102E4000E1FA03214DF22E6001F0DCFA10214DF27F
:102E50002F6001F0D7FA03214DF2306001F0D2FA71
:102E600033214DF2316001F0CDFA03214DF2326091
:102E700001F0C8FA6D214DF2336001F0C3FA55211B
:102E8000184601F0BFFAAA21304601F0BBFA5221E0
:102E9000384601F0B7FA0821404601F0B3FA0021A4
:102EA000484601F0AFFACC21584601F0ABFA0021B8
:102EB0004BF2011001F0A6FA0521504601F0A2FAEA
:102EC00070214FF4374001F09DFA70214BF20170F0
:102ED00001F098FA01214FF4384001F093FA0321F0
:102EE0004BF6010001F08EFA03214BF6020001F0CF
:102EF00089FA03214BF6030001F084FA02214FF412
:102F00003C4001F07FFA00214BF6014001F07AFAD3
:102F100000214BF6024001F075FAD0214FF44940F0
:102F200001F070FA02214CF6011001F06BFA502109
:102F30004CF6021001F066FA50214CF6031001F035
:102F400061FA50214CF6041001F05CFA00214FF4B4
:102F5000545001F057FA55214FF4685001F052FADD
:102F60004FF488502080782002F09EFB4FF42450CC
:102F70002080FDE3A0F513414FF4E06740F2022901
:102F800040F23F1A4FF4274825392FD0FE1DA0F5F7
:102F9000134128397ED0A0F513414FF4887B4FF4BC
:102FA0001C58203977D0A0F51341313974D0A0F5E1
:102FB000A841083971D0A0F5A8514FF4407B0539DC
:102FC0006CD0A0F53541053969D0A0F545410539EA
:102FD00066D0A0F58A4131397ED0A0F58A413539D5
:102FE0007BD0A0F5C851633978D0C2E747F6F0012D
:102FF000E52001F007FA4FF48071012001F002FA98
:103000003946022001F0FEF941F23001032001F0BF
:10301000F9F90021042001F0F5F94946082001F0F2
:10302000F1F90021092001F0EDF900210A2001F059
:10303000E9F900210C2001F0E5F900210D2001F053
:10304000E1F900210F2001F0DDF90021102001F04D
:10305000D9F90721112001F0D5F90021122001F042
:10306000D1F90021132001F0CDF90021072001F052
:10307000C9F941F29061102001F0C4F940F2272112
:10308000112001F0BFF99D21122001F0BBF94FF48E
:10309000C85106E082E03AE1DEE1B3E24EE3FDE34F
:1030A000FDE3132001F0AEF92521292001F0AAF952
:1030B0000D212B2001F0A6F90721302001F0A2F903
:1030C00040F20331312001F09DF90321322001F05B
:1030D00099F940F2062102E0FDE3FDE3FDE335202E
:1030E00001F090F90821362001F08CF940F20641F8
:1030F000372001F087F94FF44171382001F082F94F
:103100000721392001F07EF940F202613C2001F0F4
:1031100079F908213D2001F075F90021502001F0D6
:1031200071F9EF21512001F06DF90021522001F0D9
:1031300069F95146532001F065F94146602001F0DC
:1031400061F90121612001F05DF900216A2001F09F
:1031500059F90021802001F055F90021812001F06A
:1031600051F90021822001F04DF90021832001F066
:1031700049F90021842001F045F90021852001F062
:1031800041F91021902001F03DF94FF4C0619220E7
:1031900001F038F940F233110720FDE341F28F01CD
:1031A000EC2001F02FF941F23421EF2001F02AF94F
:1031B0004FF48071012001F025F93946022001F019
:1031C00021F941F23001032001F01CF90021042013
:1031D00001F018F94946082001F014F900210920EE
:1031E00001F010F900210A2001F00CF901210C2056
:1031F00001F008F900210D2001F004F900210F2051
:1032000001F000F90021102001F0FCF80721112045
:1032100001F0F8F80021122001F0F4F80021132049
:1032200001F0F0F80121072001F0ECF8322002F063
:1032300021FA41F29041102001F0E4F840F22721F8
:10324000112001F0DFF8322002F014FA8A21122056
:1032500001F0D8F8322002F00DFA4FF4D0511320CB
:1032600001F0D0F80621292001F0CCF80D212B2007
:1032700001F0C8F8322002F0FDF90021202001F011
:10328000C1F80021212001F0BDF8322002F0F2F94E
:103290000021302001F0B6F840F20461312001F045
:1032A000B1F840F20531322001F0ACF800213520B0
:1032B00001F0A8F840F60941362001F0A3F84FF4D8
:1032C0000171372001F09EF840F20131382001F001
:1032D00099F83146392001F095F800213C2001F0A1
:1032E00091F840F60A213D2001F08CF8322002F0DE
:1032F000C1F90021502001F085F8EF21512001F0A3
:1033000081F80021522001F07DF851464BE1002167
:10331000084601F077F84FF48071012001F072F84F
:103320003946022001F06EF841F23001032001F02D
:1033300069F80021042001F065F84946082001F0F1
:1033400061F80021092001F05DF800210A2001F058
:1033500059F801210C2001F055F800210D2001F051
:1033600051F800210F2001F04DF8322002F082F9CF
:1033700040F20111072001F045F8322002F07AF9FD
:103380004FF48651102001F03DF80721112001F083
:1033900039F85B465946122001F034F84FF4306199
:1033A000132001F02FF80021292001F02BF844F21E
:1033B00010012B2001F026F80021502001F022F806
:1033C000EF21512001F01EF80021522001F01AF8DF
:1033D0005146532001F016F84146602001F012F8E2
:1033E0000121612001F00EF800216A2001F00AF8A5
:1033F0000021802001F006F80021812001F002F870
:103400000021822000F0FEFF0021832000F0FAFF5F
:103410000021842000F0F6FF0021852000F0F2FF5B
:103420001021902000F0EEFF0021922000F0EAFF32
:103430000121932000F0E6FF1946952000F0E2FFFD
:103440000021972000F0DEFF0021982000F0DAFF35
:1034500040F27311072081E341F21401E72000F0EC
:10346000D1FF4FF48071012000F0CCFF4FF40071C8
:10347000022000F0C7FF41F23801032000F0C2FF34
:103480004946082000F0BEFF0021092000F0BAFFE5
:1034900000210A2000F0B6FF00210C2000F0B2FF4E
:1034A00000210D2000F0AEFF00210F2000F0AAFF48
:1034B0000021102000F0A6FF0721112000F0A2FF3C
:1034C0000021122000F09EFF0021132000F09AFF3F
:1034D000C82002F0CFF841F29061102000F092FF76
:1034E00040F22721112000F08DFF322002F0C2F8B7
:1034F0000C21122000F086FF322002F0BBF84FF4BE
:103500000061132000F07EFF1121292000F07AFFD6
:103510000B212B2000F076FF322002F0ABF80021C7
:10352000202000F06FFF53465146212000F06AFF33
:103530000021302000F066FF4FF4837421463120D3
:1035400000F060FF0021322000F05CFF4FF40171B9
:10355000352000F057FF41F20A61362000F052FF9B
:103560003146372000F04EFF2146382000F04AFF58
:103570003146392000F046FF40F202413C2000F085
:1035800041FF40F60F413D2000F03CFF002150205C
:1035900000F038FFEF21512000F034FF00215220CD
:1035A00000F030FF1946532000F02CFF4146602008
:1035B00000F028FF0121612000F024FF00216A2093
:1035C00000F020FF0021802000F01CFF002181205E
:1035D00000F018FF0021822000F014FF002183205A
:1035E00000F010FF0021842000F00CFF0021852056
:1035F00000F008FF1021902000F004FF4FF4C0619C
:103600009220FDE34FF48071012000F0FBFE39466B
:10361000022000F0F7FE41F23001032000F0F2FE3C
:103620000021042000F0EEFE40F20721082000F007
:10363000E9FE0021092000F0E5FE00210A2000F04B
:10364000E1FE00210C2000F0DDFE00210D2000F045
:10365000D9FE00210F2000F0D5FE142002F00AF858
:1036600041F2B061102000F0CDFE0121112000F0E8
:10367000C9FE0121172000F0C5FE4FF49C711220F5
:1036800000F0C0FE4FF40061132000F0BBFE0921E2
:10369000292000F0B7FE09212A2000F0B3FE002106
:1036A000A42000F0AFFE0021502000F0ABFEEF217F
:1036B000512000F0A7FE0021522000F0A3FE514649
:1036C000532000F09FFE4146602000F09BFE012148
:1036D000612000F097FE00216A2000F093FE002197
:1036E000802000F08FFE0021812000F08BFE002161
:1036F000822000F087FE0021832000F083FE00215D
:10370000842000F07FFE0021852000F07BFE132145
:10371000902000F077FE0021922000F073FE03213C
:10372000932000F06FFE5946952000F06BFE40F2AA
:103730007311072000F066FE32200FE10021072000
:1037400000F060FE322001F095FF4FF48E711220E0
:1037500000F058FE0121A42000F054FE0F210820A3
:1037600000F050FE08210A2000F04CFE082100E085
:1037700075E30D2000F046FE3146302000F042FE99
:103780000721312000F03EFE40F20361322000F0BC
:1037900039FE3946332000F035FE4946342000F02A
:1037A00031FE0221352000F02DFE41F60F7136204A
:1037B00000F028FE3146372000F024FE002138209A
:1037C00000F020FE0021392000F01CFE31463A2096
:1037D00000F018FE00213B2000F014FE07213C20E1
:1037E00000F010FE00213D2000F00CFE322001F020
:1037F00041FF0121072000F005FE0121172000F004
:1038000001FE322001F036FF4FF4BD51102000F0D0
:10381000F9FD40F21721112000F0F4FD4FF48F71F3
:10382000122000F0EFFD4FF47061132000F0EAFD6C
:1038300000212A2000F0E6FD0A21292000F0E2FD07
:103840004FF49F71122000F0DDFD0021502000F0A8
:10385000D9FDEF21512000F0D5FD0021522000F0CC
:10386000D1FD5146532000F0CDFD4146602000F0CF
:10387000C9FD0121612000F0C5FD00216A2000F092
:10388000C1FD0021802000F0BDFD0021812000F05D
:10389000B9FD0021822000F0B5FD01E061E05EE1AC
:1038A0000021832000F0AEFD0021842000F0AAFD5D
:1038B0000021852000F0A6FD1321902000F0A2FD3C
:1038C0005946922000F09EFD0521932000F09AFDBC
:1038D0000021952002E00BE2C2E26AE300F092FDD3
:1038E0000021972000F08EFD0021982000F08AFD35
:1038F0004FF48071012000F085FD3946022000F070
:1039000081FD41F23801032000F07CFD00210420FC
:1039100000F078FD00210C2000F074FD00210F2044
:1039200000F070FD0021202000F06CFD002121201E
:1039300000F068FD2121072000F064FD142001F053
:1039400099FE6121072000F05DFD142001F092FE38
:1039500040F27311072000F055FD142001F08AFE9B
:10396000A1E30021084600F04DFD0021084600F0CB
:1039700049FD0021084600F045FD0021084600F001
:1039800041FD0121A42000F03DFD142001F072FE54
:1039900044464146602000E0DCE000F033FD4E4646
:1039A0004946082000F02EFD4FF40571302000F04C
:1039B00029FD43F21571312000F024FD40F204612D
:1039C000322000F01FFD40F61661332000F01AFD92
:1039D00042F21121342000F015FD4FF4A85135209A
:1039E00000F010FD48F20751362000F00BFD41F2C7
:1039F0000741372000F006FD41F20341382000F076
:103A000001FD2021392000F0FDFC1A21902000F05A
:103A1000F9FC0021102000F0F5FC0721112000F036
:103A2000F1FC0021122000F0EDFC0021132000F039
:103A3000E9FC142001F01EFE4FF4E661102000F0B6
:103A4000E1FC40F23711112000F0DCFC142001F001
:103A500011FE4FF4DC71122000F0D4FC142001F0B0
:103A600009FE4FF47061132000F0CCFC80212A2065
:103A700000F0C8FC4821292000F0C4FC142001F00B
:103A8000F9FD4FF48071012000F0BCFC39460220A2
:103A900000F0B8FC41F23801032000F0B3FC3146DD
:103AA000082000F0AFFC00210A2000F0ABFC002150
:103AB0000C2000F0A7FC00210D2000F0A3FC302119
:103AC0000E2000F09FFC0021502000F09BFCEF2115
:103AD000512000F097FC0021522000F093FC514649
:103AE000532000F08FFC2146602000F08BFC012168
:103AF000612000F087FC00216A2000F083FC112186
:103B0000902000F07FFC4FF4C061922000F07AFC1E
:103B100040F20241932000F075FC0221942000F055
:103B200071FC142001F0A6FD0121072000F06AFCC1
:103B3000142001F09FFD6121072000F063FC40F29A
:103B40007311072000F05EFC0021202000F05AFCD9
:103B50000021212000F056FC222100207DE10021DF
:103B6000084600F04FFC0021084600F04BFC1420F2
:103B700001F080FD0021084600F044FC00210846C9
:103B800000F040FC0021084600F03CFC0021084603
:103B900000F038FC0121A42000F034FC142001F0D6
:103BA00069FD4146602000F02DFC40F6060108202A
:103BB00000F028FC40F203731946302000F022FC8C
:103BC0000121312000F01EFC0421322000F01AFCFB
:103BD0004FF48171332000F015FC5C4659463420C7
:103BE00000F010FC40F20311352000F00BFC1F2107
:103BF000362000F007FC1946372000F003FC0121B5
:103C0000382000F0FFFB0421392000F0FBFB1521D8
:103C1000902000F0F7FB4FF48261102000F0F2FBDF
:103C200040F24721112000F0EDFB4FF4DE7112202D
:103C300000F0E8FB4FF46061132000F0E3FB782014
:103C400001F018FD4FF480763146012000F0DAFBD8
:103C50007100022000F0D6FB41F23001032000F099
:103C6000D1FB08210A2000F0CDFB00210C2000F040
:103C7000C9FB20210E2000F0C5FB00210F2000F021
:103C8000C1FB0021202000F0BDFB0021212000F01D
:103C9000B9FB3D212A2000F0B5FB142001F0EAFC1D
:103CA0002D21292000F0AEFB0021502000F0AAFBBE
:103CB0004DF2EF01512000F0A5FB0021522000F051
:103CC000A1FB5146532000F09DFB0021612000F034
:103CD00099FB00216A2000F095FB2146922000F01C
:103CE00091FB0521932000F08DFB3146FFF7B2BB1D
:103CF0000121002000F086FB0A2001F0BBFC41F20C
:103D00002861102000F07EFB0E21122000F07AFBCB
:103D100040F63921132000F075FB0A2001F0AAFCBF
:103D20004021112000F06EFB5021152000F06AFBAD
:103D30000A2001F09FFC1E21122000F063FB0A20E4
:103D400001F098FC4FF4B151102000F05BFB42F6FB
:103D50003921132000F056FB0A2001F08BFC4FF4B0
:103D600080731946012000F04DFB5946022000F0F7
:103D700049FB41F23801032000F044FB494608208A
:103D800000F040FB08210A2000F03CFB002130201D
:103D900000F038FB40F20241312000F033FB4FF4D9
:103DA0008371322000F02EFB40F20351332000F0EB
:103DB00029FB4FF48271342000F024FB40F20131E2
:103DC000352000F01FFB3146362000F01BFB40F28F
:103DD0000531372000F016FB4FF40271382000F057
:103DE00011FB40F60B71392000F00CFB0221412041
:103DF00000F008FB4146602000F004FB012100E0D8
:103E0000D2E0612000F0FEFA4FF40471902000F03F
:103E1000F9FA4FF48571922000F0F4FA042193200E
:103E200000F0F0FA1946A02000F0ECFA012107207A
:103E300000F0E8FA2121072000F0E4FA232107200E
:103E400000F0E0FA3321072000F0DCFA40F23311F1
:103E5000072000F0D7FA0021A02000F0D3FA22E1D9
:103E60003021152000F0CEFA10219A2000F0CAFA75
:103E70002021112000F0C6FA43F22841102000F062
:103E8000C1FA0221122000F0BDFA41F238011320DC
:103E900000F0B8FA282001F0EDFB1221084600F0EE
:103EA000B1FA282001F0E6FB43F22041102000F097
:103EB000A9FA43F23801132000F0A4FA462001F0D9
:103EC000D9FB0021302000F09DFA40F20241312060
:103ED00000F098FA40F20731322000F093FA4FF4E4
:103EE0004171332000F08EFA0421342000F08AFA68
:103EF00040F20141352000F085FA3146362000F0CD
:103F000081FA40F20531372000F07CFA4FF4C263A9
:103F10001946382000F076FA1946392000F072FA76
:103F20004FF480731946012000F06CFA59460220C4
:103F300000F068FA41F23001032000F063FA40F625
:103F40000801082000F05EFA08210A2000F05AFA61
:103F50004146602000F056FA0121612000F052FA3B
:103F60004FF49F71902000F04DFA1946922000F016
:103F700049FA1946932000F045FA4FF44051A02029
:103F800000F040FA1021A32000F03CFA01210720A4
:103F900000F038FA2121072000F034FA232107200D
:103FA00000F030FA3321072000F02CFA40F23311F0
:103FB0009CE6E22020801D2060800220608004209A
:103FC0006080642001F070FBE02020800120608090
:103FD0000A2001F04FFBE0202080032060800C20AD
:103FE00001F048FB012020800A2001F043FBE6207D
:103FF00020802F206080FF2060806080B0202080A3
:1040000020206080002060800320608040F21F300C
:1040100060800120608040F2DF10608000206080BE
:10402000B42020800420608040F21F406080002087
:1040300060802E20608000206080608060806080D2
:10404000B6202080022060804FF403706080002042
:104050006080172060801520608000206080608074
:10406000F02020800320608029202080D020208024
:1040700000206080BE20208005206080FE206080BF
:10408000012060800020608060806080B8202080F7
:104090000320608001206080BA20208001206080A1
:1040A000642000F01DF80020FDF72EF82846FCF7EC
:1040B000F5FF1BB0BDE8F08F08B54FF0C040408859
:1040C000ADF80000BDF8000008BD10B54FF0C041CC
:1040D0000880052001F0E8FABDE81040FFF7ECBFCA
:1040E00010B54FF0C044BE21218005216180FCF74E
:1040F00093F94FF06632074BFCF717F9FCF7B2F96A
:10410000608001206080FF206080002060806080EF
:1041100010BD000066660440F0B5674E00233146CE
:10412000B279898846F6040741F66314012A01D062
:104130002AB11DE0B9421BD0A14202D118E0A14230
:1041400016D1082814D2DFE800F00406080A0C0E85
:10415000101206200CE007200AE0042008E00520E9
:1041600006E0012004E0002002E0032000E002203D
:10417000A1F5134C45F2103245F21055BCF1410C3B
:1041800007D0B94205D0914203D0A94201D0A14243
:1041900075D1082812D2DFE800F0110406080A0CD5
:1041A0000E1080230AE0402308E0C02306E020230D
:1041B00004E0602302E0A02300E0E023A94202D152
:1041C0004FF4585000E03620914205D0A94203D068
:1041D000A14201D043F00803B94201D143F00203E8
:1041E000194600F00FF9B288A2420AD0980630882A
:1041F000718802D5884202D303E0884201D9318018
:1042000070804FF0C0407189AA42018021D1002204
:1042100042804A1C0280002242808A1C028032882E
:10422000521E130A4380C91C0180D1B24180B1895A
:104230000180002242804A1C0280002242808A1CA7
:1042400002807288521E130A4380C91C0180D1B2B9
:1042500012E00021418041803188491E0A0A4280D3
:10426000C9B24180B18901800021418041807188BB
:10427000491E0A0A4280C9B24180F0BDFFE7082802
:1042800012D2DFE800F0040608110A0C0E103023E9
:104290000AE0102308E0202306E0382304E0282366
:1042A00002E0182300E00823BDE8F040032043F4B7
:1042B000805100F0A7B80000860000202DE9F04FE3
:1042C0004B4F0B463A46BD880C0A91895289A5F599
:1042D00013464FEA102C4FF0C04A413E1DD0A5F5C1
:1042E000A646103E19D03E46BB4696F80690368844
:1042F000A5F5D047A6EB0008A8F10108043F12D0AD
:10430000A5F5C857633F21D0A5F5AA475E46103FE3
:104310004ED0B9F1010F5ED05FE05546AAF80020FB
:10432000AAF802C00AE0B9F1010F01D11FFA88F022
:104330005546AAF80020020AAAF80220C0B26880F6
:1043400029806C80D8B26880BDE8F08FB9F1000F89
:104350001ED0AAF80020AAF802C0C0B2AAF8020033
:10436000761E300AAAF80200F0B2AAF80200AAF8F3
:104370000010AAF80240D9B2AAF80210BBF8021045
:10438000491E0A0AAAF80220C9B2AAF80210DBE7FD
:104390001FFA88F5AAF800200022AAF80220AAF83D
:1043A00002202A0AAAF80220EAB2AAF80220DEE7CE
:1043B0005546AAF80020AAF802C0521CAAF800200C
:1043C000C0B2AAF80200AAF80010AAF80240491CDC
:1043D000AAF80010B6E71FFA88F00146104600F070
:1043E00011F8B089BDE8F04F194600F00BB8000095
:1043F0008600002002484FF0C041008908807047C5
:10440000860000204FF0C0421080518070470000AD
:10441000012240210148FCF726BD000000800B402E
:10442000002240210148FCF71EBD000000800B4027
:10443000012280210148FCF716BD000000800B40DE
:10444000002280210148FCF70EBD000000800B40D7
:1044500010B500214FF4801040220123FCF764FBCB
:10446000064C0122C0212046FCF7CAFC204601224E
:10447000BDE81040C021FCF7F6BC000000800B40F6
:10448000FEE700F01F02012191404009800000F189
:10449000E020C0F80011704700F01F020121914098
:1044A0004009800000F1E020C0F80011704730B5ED
:1044B00000F00703C3F10704042C00D90424181DDD
:1044C000072801D2002300E0DB1E012505FA04F0D5
:1044D000401E084098409D406D1E1540284330BD49
:1044E0000907090E002806DA00F00F0000F1E020AD
:1044F00080F8141D704700F1E02080F80014704728
:104500002DE9F047564C642140F29633606903254B
:10451000B0FBF1F202260127513A4FF004099A420A
:1045200001D2A67013E0B0FBF1F123392D2903D895
:10453000A570FFF775FF0CE0B0F5616F06D284F847
:104540000290FFF76DFFFFF77BFF04E0A770FFF716
:104550005FFFFFF76DFF4349E068421842498A4216
:1045600001D2E67006E03F49C943884201DAE570AE
:1045700000E0E7703D4920693D4A0144914201D283
:10458000267106E03949C943884201DA257100E005
:104590002771394837490068FBF789FE3749384A9F
:1045A00001444FF00008914201D266711EE0334988
:1045B000C943884204DC65712078401C207015E0F6
:1045C000304988420BDD67716078401CC0B2607072
:1045D00006280BD1FCF728FA84F8018006E02A4966
:1045E00008442A49884201D284F80590284908687D
:1045F0005F2801DDE67112E08A4638B1E771607824
:10460000401CC0B26070062802D008E0E57120E0CE
:10461000FCF70AFA84F80180DAF80000C8B11D48F6
:104620000068A0F13B01292902D2A671BDE8F087FC
:104630003A2806DAA77105E0FCF7F6F984F801805C
:10464000F4E7A5716078401CC0B260700A28F3D00E
:10465000ECE784F806902078401C2070E6E7000024
:1046600000000020FFFF6FBEFFFF4F00FFFFD7BD20
:10467000FFFF5F000000C84228000020FFFFF3BDDD
:10468000FFFF090000001842FFFFE9BDFFFF010026
:10469000680000203C00002070470000F0B50A4F81
:1046A000D7F80441D7F80851D7F80C6184438D43FB
:1046B000964313B104430D431643C7F80441C7F8AA
:1046C0000851C7F80C61F0BD0080084070B5044681
:1046D000C1B24FF08045284600F0FEF9402128463F
:1046E00000F0C6F90028F9D0204670BD10B5FBF7E0
:1046F0008EFE0449FBF7A9FDBDE810400249FBF717
:10470000D6BD00000000C84200FF7F4710B5FBF790
:104710007EFE0549FBF799FD0449FBF7C8FDBDE89E
:1047200010400349FBF78BBD00002F4300FF7F477C
:104730000000344270B5054600240E46204601F0C4
:104740001FF860F30704002001F01AF860F30F244B
:10475000304601F015F860BA288070BD7CB5064679
:1047600000200D46ADF80000ADF8040000F084F81C
:10477000040004D14FF4604000F086F8044601F0D4
:1047800075F9ACB900F070F8040011D10021684649
:10479000FFF7D0FF012101A8FFF7CCFFBDF8000013
:1047A000FFF7B4FF3060BDF80400FFF79FFF2860FB
:1047B00001F05CF920467CBD70B50D46044600262C
:1047C00000F05AF80028FBD17CB3012C17D0022C42
:1047D00046D1052D44D2DFE805F00306090C0F0091
:1047E00042F22F003AE042F22D1037E042F22B2045
:1047F00034E042F2293031E042F22A702EE0052DF9
:104800002ED2DFE805F003060C0F130042F224005D
:1048100024E042F2261000F037F8064620E042F28B
:1048200020201BE042F2223018E002E042F2217028
:1048300014E0052D14D2DFE805F00306090C0F0083
:1048400042F232000AE042F2301007E042F2362033
:1048500004E042F2343001E042F2377000F014F824
:1048600001F004F9304670BD10B501F0D1F8BDE893
:104870001040892000F0DEBF10B501F0C9F8BDE896
:104880001040882000F0D6BF70B50446000A00F042
:10489000D1FF0546E0B200F0CDFF2844C0B270BDA4
:1048A00070474FF0E0210428086903D020F004008D
:1048B0000861704740F00400FAE77047144801218E
:1048C000C0F80013134AC2F8A810D2F80831002B20
:1048D000FBD0002313624FF010638361C2F8A41071
:1048E000D2F80431002BFBD00B4AD2F8003223F06F
:1048F0000703DB1CC2F800320162426822F00302A7
:10490000521C4260426BB1EB927FFBD170470000BA
:104910000080084000001043000008402DE9F041ED
:1049200001218F07384600F0A3F8234D234E0024C1
:10493000E8B1384600F0C3F82988C0B2090416D49B
:104940002988490405D50A2810D1288840F4004058
:104950001AE00D2815D02988C1F30D01705428885C
:10496000401C28802888B0F5487F00D32C802888F8
:1049700000041FD53078312808D0002132280CD00F
:1049800005E0288840F480402880F0E701210022DB
:10499000114304D000F0B6F80BE00122F8E7352807
:1049A00002D0362803D004E0FCF762FA01E0FCF7FD
:1049B00067FA2C80BDE8F0812400002094000020DC
:1049C000B0B5254F0121384600F052F8234C0025A0
:1049D00030B3384600F073F82188C0B209041FD400
:1049E0002188490415D5012E10D021881C4AC1F315
:1049F0000D0150542088401C20802088A0F5804163
:104A000008390DD1208840F4004023E0662806D103
:104A100006E0662820881BD0B0F5487F00D32580AB
:104A20002088000412D50E4800F0FEFDFBF7EFFCD5
:104A30000C4908600C49884207DD0C490868401C95
:104A40000860A0F57F41FE3901D02580B0BDFEE7AA
:104A500040F480402080E3E700000440260000206E
:104A6000F4090020280000200000C8422C0000208B
:104A70008069084000D00120704770B505460C469B
:104A8000C88889882A690843218922F01F021143B6
:104A900008432861686A618920F00300084368625E
:104AA000FCF73AF82168B0FBF1F0A86370BD002A6A
:104AB000426801D00A4300E08A43426070470068C0
:104AC00080B270470029C16802D041F4007101E052
:104AD00021F40071C1607047016070470029C1680E
:104AE00002D041F4807101E021F48071C16070470F
:104AF000FEE70000002210210148FCF7B4B90000D5
:104B000000800B4010B5012210210548FCF7ABF9DD
:104B10000A2000F0AFFDBDE81040FFF7EBBF00003A
:104B200000800B4010B500214FF48010402201237B
:104B3000FBF7FAFF064C012210212046FCF760F932
:104B400020460022BDE810401021FCF78CB900007F
:104B500000800B4005490028486802D040F48030AE
:104B600001E020F48030486070470000008006407B
:104B70000020102201230146FFF790BD70B54FF4CD
:104B80008020011150220123FBF7CEFF4FF4007467
:104B9000002221460220FBF70DFF0F4D0122214686
:104BA0002846FCF72DF9FFF7E3FF4FF4E04000F053
:104BB0002BF840F6FF6000F031F8012000F00EF80D
:104BC0000120FFF7C7FF00F017F821462846BDE88F
:104BD00070400122FCF747B900400B40054900280E
:104BE000486802D040F4005001E020F400504860D2
:104BF0007047000000800640024901480860704785
:104C00000100A05F0080064003498A68C2F30B02DE
:104C100002438A60704700000080064003494A68EA
:104C200002F4704202434A60704700000080064070
:104C300070B50D4D4FF4002421462846FCF7DAF9F3
:104C40000028F9D14FF4007400225B212846FCF7BC
:104C50001DFA2846C268510705D49105FAD52146A8
:104C6000FCF7B7F9F0E770BD00800440014A024943
:104C700000F0E8B8DD5600001C00002037B51446EF
:104C80000846064B6A46214600F0EEF8044669469F
:104C9000002000F080FC20463EBD0000975500003B
:104CA00002E008C8121F08C1002AFAD170477047F5
:104CB000002001E001C1121F002AFBD17047000053
:104CC0002DE9FF5F82B00021DDE90430020DDDF83F
:104CD00040B0034318D044F61050A2F2FF324243D2
:104CE0001514119801281FD0A5EB0B00401C5FEA9A
:104CF000000A4FF000064E4FDFF83891B04650469C
:104D000015D5CAF1000413E0119801244AA3012823
:104D100001D16FEA0B010298119AC0E90031C0E994
:104D2000024206B0BDE8F09FCBF10000DFE7044689
:104D30000021404A491842EB0450CDE9001012E02E
:104D4000E00707D032463B4640464946FBF7EDFABE
:104D50008046894632463B4610461946FBF7E5FA3F
:104D600006460F466410002CEAD1DDE90401DDE9B6
:104D70000023BAF1000F06DAFBF7D7FA42464B469A
:104D8000FBF7D3FA05E0FBF72BFD42464B46FBF75A
:104D900027FD04460E460022284BFBF7A9FD03D849
:104DA0004FF0FF30014607E00022254B20463146F8
:104DB000FBF76FFCFBF783FD102409E0002C0ADBF6
:104DC0000A220023FBF790FB039B30321A55641E26
:104DD00050EA0102F2D1641C039AC4F11103144495
:104DE000119A012A03D0012208430DD10AE0084399
:104DF00004D000204FF0110B119072E7A3EB0B05CC
:104E00006D1E0DE05B4504DD4FF0000205F101056C
:104E100004E003DA4FF00002A5F10105002AECD00E
:104E200002981199C0E90231C0E9004579E7000014
:104E3000000014400000F03F300000000000F0438C
:104E40000000E03F2DE9F04116460F4604460025DC
:104E500003E03946B047641C6D1C20780028F8D167
:104E60002846BDE8F08100002DE9FF4F95B09B4634
:104E70008946064600250FE2252877D100242746DB
:104E8000F84A0121059400E0044316F8013F203B55
:104E900001FA03F01042F7D130782A2811D06FF0D0
:104EA0002F033078A0F13002092A16D8059A44F071
:104EB000020402EB820203EB42021044761C0590CE
:104EC000EFE759F8042B0592002A03DA504244F424
:104ED0000054059044F00204761C30782E2816D138
:104EE00016F8010F44F004042A280DD06FF02F02A9
:104EF0003078A0F13003092B09D807EB870302EBC8
:104F00004303C718761CF3E759F8047B761C307806
:104F10006C280FD006DC4C2817D068280DD06A28E2
:104F200014D104E0742810D07A280FD10DE044F495
:104F300000140AE044F4801401E044F44014727850
:104F4000824202D104F58014761C761C30786628E3
:104F50000BD013DC582877D009DC002875D0452801
:104F6000F6D04628F4D047281AD19DE118E06328EE
:104F700035D0642879D0652812D195E1702873D096
:104F800008DC6728F1D069286FD06E280DD06F2813
:104F900006D1B5E073282CD0752875D0782874D048
:104FA0005A46179990476D1C75E1C4F302500228C8
:104FB00009D003280DD0D9F8001004280DD00D60B9
:104FC00009F1040967E1D9F80010EA17C1E90052B4
:104FD000F6E7D9F800100D80F2E70D70F0E719F848
:104FE000041B8DF8001000208DF80100EA46012016
:104FF00003E059F804AB4FF0FF3061074FF00001B8
:1050000002D40DE008F101018846B9420FDA80456B
:10501000F8DB1AF808100029F4D108E008F10101C2
:1050200088468142FADB1AF808100029F6D1059863
:105030005B46A0EB080721463846179A00F094FA21
:10504000284400EB080507E04DE029E10DE01AF8DF
:10505000010B5A4617999047B8F10108F7D25B4601
:1050600021463846179A13E142E00A220092C4F31F
:1050700002524FF0000A022A08D059F804CB032A42
:105080004FEAEC710AD00DE029E02AE009F10701AE
:1050900021F00702F2E802C1914609E00FFA8CFC08
:1050A0004FEAEC71042A03D14FFA8CFC4FEAEC7101
:1050B000002907DA0A460021DCF1000C61EB02014D
:1050C0002D2202E0220504D52B228DF80420012296
:1050D00003E0E20701D02022F7E7904659E00A21D9
:1050E00002E010220DE010214FF0000A00910BE0C9
:1050F00010224FF0000A44F004040827009203E055
:1051000008224FF0000A0092C4F30252022A05D08E
:1051100059F804CB0021032A08D009E009F107015E
:1051200021F00702F2E802C1914605E01FFA8CFC6B
:10513000042A01D10CF0FF0C4FF00008220728D5FB
:10514000702806D0009B83F0100353EA0A0305D0B1
:105150000EE040228DF80420012208E05CEA010202
:1051600006D030228DF804208DF8050002229046EA
:10517000009B83F0080353EA0A030AD15CEA0102A8
:1051800001D1620705D530228DF804204FF00108C7
:105190007F1E582804D034A003900EA802900DE082
:1051A00036A0F9E753466046009AFBF79DF984461E
:1051B0000398825C0298401E029002705CEA010033
:1051C000F0D1029806A9081A00F1200A600702D55A
:1051D00024F4803400E00127574502DDA7EB0A00E4
:1051E00000E0002000EB0A01009005984144401ABD
:1051F0000590E00306D45B462146179A059800F017
:10520000B3F90544002706E001A85A46C05D179986
:1052100090476D1C7F1C4745F6DBE0030CD55B46D1
:105220002146179A059800F09FF9054404E03020C4
:105230005A46179990476D1C0099481E0090002906
:10524000F5DC08E0029802995A460078491C029160
:10525000179990476D1CBAF10001AAF1010AF1DC1F
:1052600065E100000928010030313233343536372A
:1052700038396162636465660000000030313233A2
:105280003435363738394142434445460000000042
:1052900000F058F90544761C307800287FF4ECAD16
:1052A00019B02846BDE8F08F620700D4062709F13F
:1052B000070222F0070CFCE80223E14603F0004855
:1052C0005FEA080C02D00FF2702C0DE05FEA045C7C
:1052D00002D50FF2682C07E05FEAC47C02D00FF21F
:1052E000602C01E0AFF2700C4FF0FF3823F0004368
:1052F000CDF850C065280CD006DC452809D04628DA
:105300001DD047283DD13DE0662818D067287ED1C2
:1053100038E00021112F01DB112000E0781CCDE9DD
:10532000000106A90EA8FFF7CBFCDDE90F010E9ADC
:1053300003910021009207F1010A04914DE04FF022
:1053400000400097CDE9011006A90EA8FFF7B8FCB0
:10535000DDE90F0203920E9B11990022DDF80CA0EB
:105360000093049211B9791C00EB010AB7EB0A0013
:1053700004D4C0F1FF3007F1010A0490AAEB070042
:10538000019044E0012F00DA01270021112F01DDF7
:10539000112000E03846CDE9000106A90EA8FFF76C
:1053A0008FFCDDE90F010E9A039100210491009218
:1053B000BA4621070CD40399514500DA8A46BAF15E
:1053C000010F05DD009AAAF10101515C302908D0D6
:1053D000B84202DA10F1040F06DA0121CDE901101A
:1053E00015E0AAF10101E9E7002805DC0499014470
:1053F0000491AAEB000102E0411C514500DD8A4600
:105400000499401A401C01904FF000400290200780
:1054100004D40198504501DBCDF8048000208DF8BC
:105420004F0002980DF14F07B0F1004F25D02B200F
:105430000E9002984FF0020800280CDA40420290C9
:105440002D200E9007E00A210298FBF737F8303143
:10545000029007F8011DB8F10001A8F10108F2DC83
:1054600002980028EFD1791E0E980870307800F06D
:10547000200040F0450007F8020D12A8C01B00F103
:1054800007081498007800B1012000EB0A01019888
:1054900001EBE07105984144401A401E0590E0037D
:1054A00006D45B462146179A059800F05DF805443E
:1054B0001498007818B15A46179990476D1CE0036C
:1054C00024D55B462146179A059800F04DF805440F
:1054D0001CE00498002807DBDDE90301884203DDB6
:1054E0000098405C179901E0179930205A46904780
:1054F000049805F10105401C04900198401E01909C
:1055000004D12E205A46179990476D1CBAF100011C
:10551000AAF1010ADDDC05E017F8010B5A461799DC
:1055200090476D1CB8F10001A8F10108F4DC5B465E
:105530002146179A0598ABE62D0000002B000000CD
:10554000200000002DE9F041044600251E461746C4
:10555000880404D405E039462020B0476D1C641E41
:10556000F9D52846BDE8F0812DE9F0410446002533
:105570001E469046C80301D5302700E02027880446
:1055800004D505E041463846B0476D1C641EF9D588
:105590002846BDE8F0810A68531C0B601070704704
:1055A00010B54FF40020402241110123FBF7BCFA53
:1055B00000220C210320FBF7FDF9074C00220C21EF
:1055C0002046FBF71DFC01220C212046FBF720FCA6
:1055D00002490120087010BD00600B4075000020DA
:1055E00070B500244FF40020402201232146FBF730
:1055F0009BFA074D01220C212846FBF701FC0122F2
:105600000C212846FBF70CFC0248047070BD00001A
:1056100000600B407500002000224FF4007101482B
:10562000FBF721BC00400B400248B0F8030040BA31
:1056300070470000F409002010B56FF00400FFF778
:1056400030F9094800680949B0FBF1F00849C0B2D7
:1056500000EB40020870C2EBC0104FF6FF7202EA86
:10566000C000488010BD00001800002000127A0021
:10567000200000200B49498848434FF0E021486151
:1056800000238B61086940F0010008610869C207C6
:1056900001D0C003FAD5086920F0010008618B61D0
:1056A00070470000200000200B49097848434FF064
:1056B000E021486100238B61086940F00100086126
:1056C0000869C20701D0C003FAD5086920F00100BB
:1056D00008618B617047000020000020FEF7F6BFD4
:1056E00010B51148114C017809B1FFF779FF00227C
:1056F00008212046FBF7B7FB00F01AF8012204212D
:105700002046FBF7B0FB00F013F8002204212046EE
:10571000FBF7A9FB00F00CF820460122BDE8104081
:105720000821FBF7A0BB00007500002000600B40C3
:105730000020401CC0B21E28FBD3704710B50E4895
:105740000E4C017809B1FFF74BFF012208212046DA
:10575000FBF789FBFFF7ECFF012204212046FBF752
:1057600082FBFFF7E5FF002204212046FBF77BFBCD
:10577000BDE81040FFF7DCBF7500002000600B4063
:105780002DE9F0410746FFF72BFF0024284E254660
:105790006006040E002204213046FBF764FB14204F
:1057A000FFF782FF012204213046FBF75CFB1E203D
:1057B000FFF77AFFFFF7F4FE08213046FBF74CFBBA
:1057C00008B1641CE4B2FFF70BFF1420FFF76CFF75
:1057D0006D1CEDB2082DDBD3002204213046FBF70F
:1057E00042FB17B1012F02D01EE0002200E001228F
:1057F00008213046FBF737FB0A20FFF755FF01224F
:1058000004213046FBF72FFB3220FFF74DFF00222B
:1058100004213046FBF727FB012208213046FBF725
:1058200022FBC820FFF740FF2046BDE8F0810000C2
:1058300000600B4070B505463848394E0078E0B33B
:10584000FFF7CEFE80242C4201D1002200E001228D
:1058500008213046FBF707FB0A20FFF725FF01224E
:1058600004213046FBF7FFFA3220FFF71DFF00222C
:1058700004213046FBF7F7FA0A20FFF715FF64080A
:10588000E1D1012208213046FBF7EDFA0122042183
:105890003046FBF7E8FA6420FFF706FFC820FFF761
:1058A00003FF00F03FF80446FFF79AFE00220421B0
:1058B0003046FBF7D8FA0A2000E003E0FFF7F4FED9
:1058C000204670BD80242C4201D1002200E001223C
:1058D00008213046FBF7C7FA0A20FFF7E5FE012250
:1058E00004213046FBF7BFFA3220FFF7DDFE00222D
:1058F00004213046FBF7B7FA0A20FFF7D5FE64080B
:10590000E1D1012208213046FBF7ADFA0122042142
:105910003046FBF7A8FA6420C1E7000075000020BC
:1059200000600B4010B5FFF703FFFFF739FE0821B9
:105930000348FBF791FA002800D0012010BD0000B9
:1059400000600B4070B504462F48304E007830B1EF
:10595000FFF746FE002520062BD501222AE0002570
:10596000200601D5012200E0002208213046FBF785
:105970007AFA0A20FFF798FE012204213046FBF74D
:1059800072FA3220FFF790FE002204213046FBF726
:105990006AFA072D04D1012208213046FBF763FA89
:1059A00060066D1C040EEDB2082DD9D3FFF7C0FEC2
:1059B00023E0002208213046FBF755FA0A20FFF7C2
:1059C00073FE012204213046FBF74DFA3220FFF727
:1059D0006BFE002204213046FBF745FA072D04D167
:1059E000012208213046FBF73EFA6006040EFFF75D
:1059F0009FFE6D1CEDB2082DADD33046BDE8704062
:105A000001220421FBF72FBA7500002000600B4033
:105A100010B51448144C017809B1FFF7E1FD0122DB
:105A200008212046FBF71FFA0A20FFF73DFE01225E
:105A300004212046FBF717FA0A20FFF735FE002263
:105A400008212046FBF70FFA6420FFF72DFE002205
:105A500004212046FBF707FABDE810406420FFF759
:105A600023BE00007500002000600B4010B50E48FA
:105A70000E4C017809B1FFF7B3FD00220821204642
:105A8000FBF7F1F9012204212046FBF7ECF9642031
:105A9000FFF70AFE012208212046FBF7E4F9BDE8E2
:105AA00010406420FFF700BE7500002000600B402E
:105AB00070B5FFF73DFEFFF773FD0A4D082128463C
:105AC000FBF7CAF908B1012400E00024FFF788FDC4
:105AD000002204212846FBF7C6F9FFF729FE2046DD
